:100000000C94A4070C94E8070C94E8070C94E807F8
:100010000C94E8070C94E8070C94E8070C94E807A4
:100020000C94E8070C94E8070C94B5130C9487140F
:100030000C94E8070C94E8070C94E8070C94E80784
:100040000C94E8070C94102D0C94E8070C94E80726
:100050000C94E8070C9411230C94E8070C94E8071F
:100060000C94E8070C94E8070C94E8070C94E80754
:100070000C94E8070C94E8070C94E8070C94E80744
:100080000C94E8070C94E8070C94E8070C94E80734
:100090000C94E8070C94E8070C94E8070C94E80724
:1000A0000C94E8070C94E8070C94E807EC140E1580
:1000B000F9150E15F91550157315F915C815DB1539
:1000C0004419441973197319AA19CC19F71AF71A94
:1000D000D719F71A801A801AE81AF71AF71AF11ABC
:1000E0008D1A8D1A8D1A8D1A8D1A8D1A8D1A8D1AD8
:1000F0008D1A8D1A8D1A8D1A8D1A8D1A8D1A8D1AC8
:100100009E1AAC1AB31ABA1AC41A0000F0A1290038
:100110002B00E000E100358100001E001400040007
:100120001D0034744D001F001A0016001B00E30070
:100130002A00200008000700060052002C002100C1
:1001400015000900190051004A00220017000A009A
:10015000050000006574500001540000910000008B
:10016000E3004F000154000090000000E200230073
:100170001C000B00110000002971240018000D0064
:10018000100050004B0025000C000E0036004F0000
:100190002800260012000F0037002F002B00270038
:1001A00013003382387130004E002D0031002800DA
:1001B000E500C10000000100010001000100010094
:1001C00000003A001E0220022202010001003B0052
:1001D0001F0221022302010001003C002F0226021F
:1001E0002F00010001003D00300227023000010015
:1001F00001003E003102350035020000010001001F
:1002000001000000010000000100010001000000E9
:100210000100000001003F005200510024020000D4
:1002200001004000240021001E00010001004100E7
:10023000250022001F003700010042002600230095
:10024000200027000100430025022E0231002E006D
:1002500001004400450001000100010000000050C1
:100260000100010001000100000001000100F20096
:100270000100010001000100F000F1000100010097
:10028000010001000100F3000100F4000100010081
:10029000010001000100F500010001000100010062
:1002A0000100000001000100010000000100000049
:1002B0000100010001000000010000000100010038
:1002C0000100010001000000010001000100010027
:1002D0000100A9000100010001000100AC00AA001A
:1002E000B600010001000100AB00A8000100010000
:1002F0000100010001000100010001000100AE0049
:100300000100010000000A002530313662003A2069
:100310000025303258000A722F63203031323334D6
:1003200035363738394142434445460A000A0025EC
:1003300030325800626F756E6365213A20006C653B
:1003400066742073696465206174746163686564B0
:100350000A006C6566742073696465206E6F742092
:10036000726573706F6E64696E670A007472796982
:100370006E6720746F207265736574206D637032D0
:10038000333031380A000A44454255473A20656EF9
:1003900061626C65642E0A005B735D004B65796277
:1003A0006F6172642073746172742E0A005B575D12
:1003B000005B535D005B525D005B445D005B435D31
:1003C0000016034500720067006F0044006F00785C
:1003D00000200045005A0000001603450072006727
:1003E000006F0044006F007800200045005A0000B4
:1003F000000403090409028D00050100A0FA0904A4
:1004000000000103010100092111010001223F0048
:100410000705810308000A09040100010301020025
:10042000092111010001224D000705820308000A7D
:10043000090402000103000000092111010001224A
:1004400036000705830308000A09040300020300BD
:10045000000009211101000122200007058403206A
:100460000001070504032000010904040001030042
:100470000000092111010001223900070585031040
:1004800000011201100100000008EDFE0713010039
:100490000102000105010906A101050719E029E78C
:1004A0001500250195087501810205081901290526
:1004B00095057501910295017503910105071900D4
:1004C000297715002501957875018102C00631FF55
:1004D0000974A1010975150025FF95207508810291
:1004E0000976150025FF952075089102C0050109C0
:1004F00080A101850216010026B7001A01002AB763
:1005000000751095018100C0050C0901A10185034A
:10051000160100269C021A01002A9C027510950102
:100520008100C005010902A1010901A10005091905
:1005300001290515002501950575018102950175B3
:100540000381010501093009311581257F95027567
:1005500008810609381581257F95017508810605F2
:100560000C0A38021581257F950175088106C0C0E7
:1005700005010906A101050719E029E71500250174
:100580009508750181029501750881010508190119
:1005900029059505750191029501750391010507DE
:1005A0001900296815002568950675088100C00A9C
:1005B000002530325820006B6579626F6172645F8C
:1005C0007265706F72743A20000A0025303258004C
:1005D0006B6579626F6172645F7365745F6C65648B
:1005E0003A200064656C5F6B65795F6269743A20DC
:1005F00063616E27742064656C3A20253032580A96
:10060000006164645F6B65795F6269743A2063615D
:100610006E2774206164643A20253032580A0064E1
:100620006F6E652E0A00626F6F676D616769632088
:100630007363616E3A202E2E2E2000290A00257544
:10064000002F002575005D2800256400200025642A
:1006500000200025640020002564007C0025303245
:1006600058006D6F7573656B6579205B62746E7C85
:10067000782079207620685D287265702F61636C20
:10068000293A205B006D6B5F776865656C5F746904
:100690006D655F746F5F6D6178203D2025640A0091
:1006A0006D6B5F776865656C5F6D61785F737065B2
:1006B0006564203D2025640A006D6B5F74696D657B
:1006C0005F746F5F6D6178203D2025640A006D6B5B
:1006D0005F6D61785F7370656564203D2025640AF5
:1006E000006D6B5F696E74657276616C203D2025CC
:1006F000640A006D6B5F64656C6179203D20256440
:100700000A006D6B5F776865656C5F74696D655F26
:10071000746F5F6D6178203D2025640A006D6B5F0A
:10072000776865656C5F6D61785F7370656564207F
:100730003D2025640A006D6B5F74696D655F746FA1
:100740005F6D6178203D2025640A006D6B5F6D61EF
:10075000785F7370656564203D2025640A006D6BC9
:100760005F696E74657276616C203D2025640A00B5
:100770006D6B5F64656C6179203D2025640A000A19
:1007800000257500363A20776865656C5F74696D81
:10079000655F746F5F6D61783A20000A002575000F
:1007A000353A20776865656C5F6D61785F73706559
:1007B00065643A20000A00257500343A2074696D9A
:1007C000655F746F5F6D61783A20000A00257500DF
:1007D000333A206D61785F73706565643A20000A72
:1007E00000257500323A20696E74657276616C2856
:1007F0006D73293A20000A00257500313A2064659E
:100800006C6179282A31306D73293A20000A092D4C
:100810002056616C756573202D0A004D3E004D25F4
:10082000643E20003F007365742064656661756CEA
:10083000740A00433E200077686572652064656C29
:1008400074613A20637572736F723D25642C207752
:100850006865656C3D25640A53656520687474702D
:100860003A2F2F656E2E77696B6970656469612E0A
:100870006F72672F77696B692F4D6F7573655F6B4B
:100880006579730A000A092D204D6F7573656B65D4
:1008900079202D0A4553432F713A09717569740AFD
:1008A000313A0964656C6179282A31306D73290AFF
:1008B000323A09696E74657276616C286D73290A23
:1008C000333A096D61785F73706565640A343A097B
:1008D00074696D655F746F5F6D61780A353A097789
:1008E0006865656C5F6D61785F73706565640A3615
:1008F0003A09776865656C5F74696D655F746F5FF1
:100900006D61780A0A703A097072696E74207661B6
:100910006C7565730A643A09736574206465666171
:10092000756C74730A75703A092B310A646F776EAF
:100930003A092D310A706775703A092B31300A7007
:1009400067646F776E3A092D31300A0A73706565F6
:1009500064203D2064656C7461202A206D61785F9D
:100960007370656564202A20287265706561742043
:100970002F2074696D655F746F5F6D6178290A005F
:100980003F004D3E2000433E20004C25640A007489
:10099000696D65725F636F756E743A202530346CD3
:1009A000580A006B6579626F6172645F6E6B726F7B
:1009B0003A2025580A006B6579626F6172645F693D
:1009C000646C653A2025580A006B6579626F617224
:1009D000645F70726F746F636F6C3A2025580A0001
:1009E000686F73745F6B6579626F6172645F6C6569
:1009F000647328293A2025580A000A092D205374C7
:100A000061747573202D0A004743433A20342E3811
:100A10002E31204156522D4C4942433A20312E3836
:100A20002E3073766E204156525F415243483A2031
:100A3000617672350A004F5054494F4E533A204C5C
:100A400055464120424F4F544D41474943204D4F59
:100A50005553454B45592045585452414B45592013
:100A6000434F4E534F4C4520434F4D4D414E442034
:100A70004E4B524F203531320A004255494C443AD0
:100A800020756E6B6E6F776E202831353A34383AA8
:100A90003134204D61792031342032303136290A09
:100AA000005649443A203078464545442845726707
:100AB0006F446F7820455A29205049443A203078B5
:100AC00031333037284572676F446F7820455A2993
:100AD000205645523A203078303030310A004445B3
:100AE00053433A20742E6D2E6B2E206B6579626F06
:100AF000617264206669726D7761726520666F72DB
:100B0000204572676F646F780A000A092D205665C8
:100B10007273696F6E202D0A000A092D20436F6ED3
:100B2000736F6C65202D0A4553432F713A09717517
:100B300069740A6D3A096D6F7573656B65790A00A2
:100B40000A092D204D61676963202D0A443A094442
:100B500065627567204D65737361676520546F67C3
:100B6000676C650A583A094D61747269782044656A
:100B7000627567204D6F646520546F67676C6520F0
:100B80002D2053686F77206B65797072657373657C
:100B90007320696E206D6174726978206772696470
:100BA0000A4B3A094B6579626F6172642044656251
:100BB000756720546F67676C65202D2053686F77C9
:100BC000206B65797072657373207265706F7274D3
:100BD0000A4D3A094465627567204D6F757365204B
:100BE000546F67676C650A563A0956657273696F88
:100BF0006E0A533A095374617475730A433A094192
:100C00006374697661746520436F6E736F6C6520E1
:100C10004D6F64650A46312D4631303A0953776984
:100C200074636820746F204C6179657220302D39AF
:100C30002028463130203D204C30290A302D393AC9
:100C40000953776974636820746F204C6179657209
:100C500020302D390A4553433A0953776974636844
:100C600020746F204C6179657220302028616C748B
:100C700065726E617465206B65792031290A47526F
:100C80004156453A0953776974636820746F204C64
:100C90006179657220302028616C7465726E6174B0
:100CA00065206B65792032290A50415553453A0930
:100CB0004A756D7020746F20426F6F746C6F616441
:100CC000657220285265736574290A453A09507285
:100CD000696E7420454550524F4D205365747469B8
:100CE0006E67730A4E3A094E4B524F20546F676736
:100CF0006C650A5A3A09536C656570204C4544206E
:100D0000546573740A000A002575002E6E6B726FAD
:100D10003A20000A002575002E737761705F6261CA
:100D2000636B736C6173685F6261636B7370616343
:100D3000653A20000A002575002E737761705F67A1
:100D4000726176655F6573633A20000A002575005D
:100D50002E6E6F5F6775693A20000A002575002EB8
:100D6000737761705F72616C745F726775693A2046
:100D7000000A002575002E737761705F6C616C74DA
:100D80005F6C6775693A20000A002575002E636163
:100D900070736C6F636B5F746F5F636F6E74726F91
:100DA0006C3A20000A002575002E737761705F632E
:100DB0006F6E74726F6C5F636170736C6F636B3AAC
:100DC00020000A0025303258006B65796D61705F34
:100DD000636F6E6669672E7261773A20000A00259C
:100DE00075002E6D6F7573653A20000A0025750039
:100DF0002E6B6579626F6172643A20000A00257576
:100E0000002E6D61747269783A20000A0025750021
:100E10002E656E61626C653A20000A0025303258FA
:100E20000064656275675F636F6E6669672E7261E5
:100E3000773A20000A0025750064656661756C7458
:100E40005F6C617965723A20003F004E4B524F3A19
:100E5000206F66660A004E4B524F3A206F6E0A00B2
:100E60000A6D6F7573653A206F66660A000A6D6FCA
:100E70007573653A206F6E0A000A6B6579626F615F
:100E800072643A206F66660A000A6B6579626F6168
:100E900072643A206F6E0A000A6D61747269783A62
:100EA000206F66660A000A6D61747269783A206F75
:100EB0006E0A000A64656275673A206F66660A000A
:100EC0000A64656275673A206F6E0A000A0A4A75FD
:100ED0006D70696E6720746F20626F6F746C6F61E4
:100EE0006465722E2E2E2000433E20006565636FE0
:100EF0006E6669673A0A00536C656570204C45441C
:100F000020546573740A0000000000000000000017
:100F10000000010204060A0F17202C3A4A5D71876F
:100F20009DB3C7DAE9F5FCFFFCF5E9DAC7B39D87A5
:100F3000715D4A3A2C20170F0A06040201000000D6
:100F4000000000000000000011241FBECFEFDAE017
:100F5000DEBFCDBF04B603FE24C08091FA0190919C
:100F6000FB01A091FC01B091FD018730904BA7409F
:100F7000B04BB9F41092FA011092FB011092FC01EF
:100F80001092FD0114BE84B7877F84BF88E10FB63D
:100F9000F89480936000109260000FBEE0E0FFE3E1
:100FA000099511E0A0E0B1E0E6ECFDE502C0059096
:100FB0000D92AA33B107D9F721E0AAE3B1E001C04D
:100FC0001D92AA3FB207E1F70E94EF100C94E12EA8
:100FD0000C940000FF93EF93E0913A01F0913B01F4
:100FE000309709F00995EF91FF910895FC018591E3
:100FF000803011F0EFDFFBCF0895FF27E0E230E211
:1010000047FF0CC0419597FF09C0EDE260957095D0
:1010100080959095611D711D811D911D27FF02C056
:10102000219530E350E2AA27660F771F881F991F8A
:10103000AA1FA41710F0A41B63955A95A9F7AA300C
:1010400008F0A95FA05DAF93F39561157105810567
:10105000910541F7ED3211F4EF93F395F21718F47F
:101060003F93F395FBCF8F91B5DFFA95E1F70895A4
:10107000E991F9918591803021F0853219F0AADF4C
:10108000F9CF089520E0E89455915532C1F35033DB
:1010900011F4689455915A3348F4505390F3220F49
:1010A000022E220F220F200D250FF4CF0EF42195D2
:1010B00089919991533619F3533729F1533559F1E1
:1010C000BC0188279927E8945C3621F4899199918D
:1010D00068945591543639F446EF7EF077FF0DC091
:1010E0008FEF9FEF0AC055374AE039F0583540E19D
:1010F00021F0523642E009F00895FF93EF937DDF2F
:10110000EF91FF91B7CFFF93EF93FC018191803076
:10111000B9F360DFFBCFFF93EF9368DFF1CFDF938D
:10112000CF93CDB7DEB72596A3DFCF91DF9108959A
:1011300061110BC0FC018281882321F085EE0E94A1
:10114000BE1703C085EE0E94861880E090E00895E7
:1011500008956091BC017091BD018091BE01909194
:10116000BF010E940E2256985E9825982D982698C9
:101170002E9827982F98813019F0823021F0089509
:10118000259A2D9A0895269A2E9A08950C94A908C6
:1011900056985E9825982D9826982E9827982F98DF
:1011A0008FEF90E0909389008093880090938B005C
:1011B00080938A0090938D0080938C00259A2D9ABD
:1011C0002FEF80E792E0215080409040E1F700C08F
:1011D0000000269A2E9A2FEF80E792E0215080405F
:1011E0009040E1F700C00000279A2F9A2FEF80E788
:1011F00092E0215080409040E1F700C00000259827
:101200002D982FEF80E792E0215080409040E1F749
:1012100000C0000026982E982FEF80E792E0215022
:1012200080409040E1F700C0000027982F98569822
:101230005E9825982D9826982E9827982F9808958F
:1012400089EA8093800089E08093810024982C981B
:101250003F988AB18F748AB96E98479A8BB1806B28
:101260008BB9769A0E94C8080C94A80880E28093F3
:10127000000180913C0181110EC00E94850981E02E
:1012800080933C012FEF83ED90E32150804090400C
:10129000E1F700C0000080E40E948B098093000108
:1012A00081112EC00E94B50980930001811128C0D0
:1012B0000E94B50980930001811122C08FE30E9432
:1012C000B5098093000181111BC00E94AD0980E423
:1012D0000E948B0980930001811112C08CE00E9452
:1012E000B5098093000181110BC00E94B50980935C
:1012F0000001811105C08FE30E94B50980930001B0
:101300000E94AD098091000108951092B9008AE011
:101310008093B800089594EA9093BC009091BC002B
:1013200097FFFCCF9091B900987F983021F09031D1
:1013300011F081E008958093BB0084E88093BC00A5
:101340008091BC0087FFFCCF8091B900887F8831F5
:1013500011F0803471F780E0089584E98093BC0037
:101360008091BC0084FDFCCF08958093BB0084E88D
:101370008093BC008091BC0087FFFCCF9091B900A6
:10138000987F81E0983209F480E0089584E88093A2
:10139000BC008091BC0087FFFCCF8091BB0008950A
:1013A00080910001811115C080E40E948B09809317
:1013B000000181110CC082E10E94B50980930001F7
:1013C000811105C08FEF0E94B509809300010E9432
:1013D000AD0984B1807F84B985B1807F85B98AB138
:1013E000837F8AB98BB1837F8BB93E9846980895E5
:1013F0000E943609809300010E94D00980B38C704E
:1014000080BB81B3836F81BBECE4F1E0AEE3B1E07C
:1014100011921D9281E0EA35F807D1F70C9420096A
:101420009F92AF92BF92CF92DF92EF92FF920F9373
:101430001F93CF93DF93809100018823E1F0809187
:101440003D018F5F80933D01811115C08CE693E0D3
:101450000E94F6070E94360980930001882329F034
:1014600082E593E00E94F60706C08EE393E00E94B7
:10147000F6070E94C8080EE311E0C0E0D0E0BB24EC
:10148000B39482E0A82ECC24C394D12C2FE2E22E78
:1014900023E0F22EC73000F580910001811162C077
:1014A00080E40E948B0980930001811112C082E1C7
:1014B0000E94B5098093000181110BC0C6010C2E5A
:1014C00001C0880F0A94EAF780950E94B5098093BD
:1014D00000010E94AD0946C0CA30A1F028F4C8300E
:1014E00059F0C93061F005C0CC3089F070F0CD30D2
:1014F00089F0209A289810C0219A29980DC0229A24
:101500002A980AC0239A2B9807C0529A01C0539A6E
:101510005B9802C03E9A4698E0EAEA95F1F78FB1EF
:1015200079997FC092E081708B25892B7C9B02C0CA
:1015300090E001C094E0892B7D9B02C090E001C047
:1015400098E0892B7E9B02C090E001C090E1892B3E
:101550009FB19095991F9927991F9295990F907E09
:10156000892B10C080910001811170C080E40E941D
:101570008B0980930001882309F455C0912C0E94A7
:10158000AD09892DF8019081981739F180838091F8
:101590000101882301F18091D90180FF04C084E317
:1015A00093E00E94F6078091D90180FF0CC08091E2
:1015B00001011F928F93FF92EF920E948F080F906C
:1015C0000F900F900F908091D90180FF04C08DE2A1
:1015D00093E00E94F607A09201010E94D009219693
:1015E0000F5F1F4FCE30D10509F054CF809101011C
:1015F000882371F1815080930101882339F08FE9AC
:101600009FE00197F1F700C0000022C0ACE4B1E018
:10161000EEE3F1E081918D9391E0EC34F907D1F79D
:1016200017C090E080CF83E10E94B509809300014C
:101630008111A4CF81E40E948B0980930001811164
:101640009DCF0E94C609982E909499CF80E09ACFA2
:101650000E94C60881E0DF91CF911F910F91FF900A
:10166000EF90DF90CF90BF90AF909F900895E82FBC
:10167000F0E0E45BFE4F80810895CF92DF92EF921D
:10168000FF920F931F93CF93DF9386E193E00E9425
:10169000F6073CE4E32E31E0F32EC0E0D0E041E178
:1016A000C42E43E0D42E08E013E0DF93CF93DF9203
:1016B000CF920E948F088EE093E00E94F607F70118
:1016C00081917F0190E00E9473229F938F931F93DB
:1016D0000F930E948F0886E093E00E94F607219600
:1016E0008DB79EB708960FB6F8949EBF0FBE8DBFFC
:1016F000CE30D105D1F6DF91CF911F910F91FF90A0
:10170000EF90DF90CF900895089596E0799FF001D3
:10171000112494E5899FE00DF11D1124E60FF11DC0
:10172000EE0FFF1FE25FFE4F859194910895880FA1
:10173000991F86579040FC01859194910895880FD8
:10174000991F865F9E4FFC018591949108950F9398
:101750001F93CF93DF93EC01811520E3920730F5BF
:10176000811530E2930708F0B1C08B3B910588F4F6
:10177000883A910508F058C0853A910508F049C0AB
:101780008430910508F043C08130910509F4C6C149
:10179000C2C18F3F910509F0D0F5803F910508F057
:1017A00092C0805E9109089790F1B5C1C11581E59D
:1017B000D807A8F4C23090E5D90708F0A3C0C11536
:1017C00020E5D20709F486C008F092C0C11580E474
:1017D000D80708F0A0C18E011127106CE0C1C11517
:1017E00090E8D90758F4C11520E7D20708F08FC157
:1017F000C11530E6D30708F427C18DC1C11580E9B2
:10180000D80708F088C18E011F70106AC8C18E0108
:10181000C6C1853A910509F484C1863A910509F457
:1018200083C103E810E4BBC1883A910509F47FC184
:10183000893A910509F47EC18A3A910509F47DC17E
:101840008B3A910509F47CC18C3A910509F47BC16E
:101850008D3A910509F47AC1803B910509F479C16B
:101860008E3A910509F478C18F3A910509F477C150
:10187000813B910509F476C1823B910509F475C15C
:10188000833B910509F474C1843B910509F473C14C
:10189000853B910509F472C1863B910509F471C13C
:1018A000873B910509F470C1883B910509F46FC12C
:1018B000893B910509F46EC18A3B910509F06DC120
:1018C0000AE216E46CC18C01106569C19F700E9428
:1018D0009F0B66C10E94431B9FEF24E33CE09150A5
:1018E00020403040E1F700C000000E94362357C17D
:1018F00086E893E00E94F6078091D9018160809389
:10190000D9014DC10E94E624811102C00E94CC245D
:101910000E94032590E09093FA018093F901C23070
:1019200080E5D80721F48091F901816086C0C43038
:1019300090E5D90721F48091F90182607EC0C6301C
:1019400020E5D20721F48091F901846076C0C83087
:1019500030E5D30719F48091F90127C0CA3080E53A
:10196000D80721F48091F901806167C0CC3090E5FF
:10197000D90721F48091F90180625FC0CE3020E563
:10198000D20721F48091F901806457C0C03130E55D
:10199000D30721F48091F90180684FC0C23180E5FE
:1019A000D80729F48091F9018460886046C0C3306B
:1019B00090E5D90721F48091F9018E7F3EC0C530B2
:1019C00020E5D20721F48091F9018D7F36C0C73020
:1019D00030E5D30721F48091F9018B7F2EC0C93007
:1019E00080E5D80719F48091F90126C0CB3090E545
:1019F000D90721F48091F9018F7E1FC0CD3020E5F9
:101A0000D20721F48091F9018F7D17C0CF3030E5E6
:101A1000D30721F48091F9018F7B0FC0C13180E59C
:101A2000D80721F48091F9018F7707C0C331D045E1
:101A300031F48091F9018B7F877F8093F901809148
:101A4000F9010E940725ABC08D2F99278F70992728
:101A500081309105E9F48E01037011279C0102C0C9
:101A6000220F331F0A95E2F789011C68CE01E4E0DA
:101A7000880F991FEA95E1F788279370082B192B97
:101A8000F3E0CC0FDD1FFA95E1F7C076DD272CC01F
:101A90008230910529F41C2F0027016F106A7FC046
:101AA0008330910561F4CE018370992701E010E045
:101AB00002C0000F111F8A95E2F71C680EC0843027
:101AC0009105A9F4CE018370992701E010E002C0CE
:101AD000000F111F8A95E2F71A6863E0CC0FDD1F33
:101AE0006A95E1F7C07ED7700C2B1D2B58C085304E
:101AF000910529F41C2F0027046F106A50C0069727
:101B000009F04DC0CF71DD271C2F002702C08E01C8
:101B10001F70106244C000E010E041C001E010E01E
:101B20003EC001E810E43BC002E810E438C002EE19
:101B300014E435C009EE14E432C00AEE14E42FC0F8
:101B400005EB14E42CC006EB14E429C007EB14E405
:101B500026C00CEC14E423C00DEC14E420C003E810
:101B600015E41DC00AE815E41AC002E915E417C01F
:101B700004E915E414C001E216E411C003E216E41E
:101B80000EC004E216E40BC005E216E408C006E24B
:101B900016E405C007E216E402C000E014E4C80140
:101BA000DF91CF911F910F91089596E0799FF001F9
:101BB000112494E5899FE00DF11D1124E60FF11D1C
:101BC000EE0FFF1FE25FFE4F85919491803E9105DD
:101BD000E0F4803C910558F58133910509F46FC01C
:101BE00048F48932910509F463C08A32910509F4F9
:101BF0006DC072C089339105E9F082389105D1F04A
:101C00008533910509F44DC067C0833E910581F18C
:101C100038F4803E9105B9F0823E9105D9F05CC060
:101C2000863E910561F1873E9105A1F155C00E9464
:101C3000970B08952091F90120FD02C021FF4CC0AF
:101C400080EE90E049C08091F90180FFF9CF89E3EF
:101C500090E042C08091F90182FF0EC08091F901AD
:101C600084FF03C080E090E037C083EE90E034C092
:101C70008091F90182FFF2CF82EE90E02DC0809139
:101C8000F90183FF0BC08091F90184FDEBCF87EE52
:101C900090E022C08091F90183FFF5CF86EE90E0BD
:101CA0001BC08091F90185FF07C089E290E014C054
:101CB0008091F90185FFF9CF85E390E00DC0809117
:101CC000F90186FF07C08AE290E006C08091F90121
:101CD00086FFF9CF81E390E00E94A70B0895089555
:101CE0000C946F0E80916D0108959FB7F894109237
:101CF0005C019FBF9091F001943009F058C0909121
:101D0000E9009F702091EC0020FF02C020E801C094
:101D100020E0292B94E09093E9009091EB0090FF54
:101D200043C09091EE0097FF3FC090915A019923D4
:101D300021F09091E80095FF37C010925A0196E08B
:101D40003091E80035FD15C03091F001343061F577
:101D50003091EB0035FD28C0915021F481E0809353
:101D60005A0122C0EFE9FFE03197F1F700C000000F
:101D7000E7CF8093F1008091E80085FD0AC0809153
:101D8000E80080FFFCCF8091E8008E778093E80028
:101D900006C08FB7F89491E090935C018FBF2F70CD
:101DA0002093E90080E008952F702093E9008FEFE1
:101DB0000895CF93DF9300D01F92CDB7DEB7209167
:101DC000F001243019F523E029839B838A83209333
:101DD000E9008FEF9091E800815095FD06C095EDE8
:101DE0009A95F1F700008111F5CF8091E80085FF09
:101DF0000DC040E050E063E070E0CE0101960E942B
:101E0000A8118091E8008E778093E8000F900F90E2
:101E10000F90DF91CF910895CF93DF9300D01F9261
:101E2000CDB7DEB72091F001243021F522E02983DF
:101E30009B838A8383E08093E9008FEF9091E80091
:101E4000815095FD06C095ED9A95F1F7000081113E
:101E5000F5CF8091E80085FF0DC040E050E063E0E1
:101E600070E0CE0101960E94A8118091E8008E7763
:101E70008093E8000F900F900F90DF91CF9108951D
:101E80002091F0012430F1F422E02093E9002FEFBB
:101E90003091E800215035FD06C035ED3A95F1F757
:101EA00000002111F5CF2091E80025FF0BC040E094
:101EB00050E065E070E00E94A8118091E8008E7704
:101EC0008093E8000895CF93DF93EC018091F001B7
:101ED000843009F047C080910C018823E1F08091A3
:101EE0000D018823C1F085E08093E9008FEF909188
:101EF000E800815095FD06C095E19A95F1F7000044
:101F00008111F5CF8091E80085FF2CC040E050E0C2
:101F100060E170E017C081E08093E9008FEF90915D
:101F2000E800815095FD06C095ED9A95F1F7000007
:101F30008111F5CF8091E80085FF14C040E050E0AA
:101F400068E070E0CE010E94A8118091E8008E77D1
:101F50008093E80080E1FE01ADE5B1E001900D92D3
:101F60008A95E1F7DF91CF9108958DEB93E00E9480
:101F7000F6078091EF01811109C00E943A130E9477
:101F800097138091E20084608093E200089589EBCA
:101F900093E00E94F6071092EF01089585EB93E01D
:101FA0000C94F60781EB93E00E94F6070C94FD2C4D
:101FB0008DEA93E00E94F6070E94CD220E94032D35
:101FC0000E9433160C94700E80915B018F5F80939A
:101FD0005B0162E30E94712E911135C010925B018A
:101FE00080915C01882379F18091F001843049F57A
:101FF0008091E9008F709091EC0090FF02C090E812
:1020000001C090E0982B84E08093E9008091EB0080
:1020100080FF14C08091EE0087FF10C08091E8001F
:1020200085FF03C01092F100F9CF8091E80080FF96
:1020300005C08091E8008E778093E8009F709093B0
:10204000E90010925C01089542E061EC81E00E9499
:10205000B41242E061EC82E00E94B41242E061EC12
:1020600083E00E94B41242E261EC84E00E94B41268
:1020700042E161EC85E00C94B4128091F20183306E
:1020800009F455C030F4813071F0823009F48EC00B
:1020900008958A3009F47AC08B3009F460C0893021
:1020A00009F09CC020C08091F101813A09F096C0EE
:1020B0008091E800877F8093E8008091F5019091FE
:1020C000F601892B21F060E080E090E003C060E140
:1020D0008DE591E070E00E94F1118091E8008B772E
:1020E0008093E80008958091F101813209F076C073
:1020F0008091F5019091F601009719F0049709F08D
:102100006DC08091E800877F8093E8008091E800AF
:1021100082FD05C08091F0018111F8CF5FC08091F0
:10212000F10080936D018091E8008B7753C080911E
:10213000F101813A09F052C08091F5019091F601C8
:10214000892B09F04BC08091E800877F8093E800DD
:102150008091E80080FFFCCF80910C0136C0809117
:10216000F1018132D9F58091F5019091F601892B29
:10217000A9F58091E800877F8093E8000E94E9122A
:102180008091F30180930C010C94431B8091F10129
:10219000813221F58091E800877F8093E8000E94DA
:1021A000E9128091F40180936E0108958091F1010C
:1021B000813AA1F48091E800877F8093E8008091C4
:1021C000E80080FFFCCF80916E018093F100809148
:1021D000E8008E778093E8000C94E912089584B7A4
:1021E000877F84BF88E10FB6F894809360001092D7
:1021F00060000FBE90E080E80FB6F8948093610015
:10220000909361000FBE0E94BC160E943A130E9478
:1022100097138091E20084608093E20085E79EE05E
:102220000E94092278940E9411160E94BE1682E034
:1022300091E00E942E160E94EB2C8CE993E00E9404
:10224000F6078091F001853089F488E993E00E94D7
:10225000F6070E948D228091EE01882391F30E945F
:10226000B822882371F30E949211EBCF0E94EC16E2
:10227000E8CF292F332723303105A9F06CF4213022
:10228000310509F442C02230310509F043C08DE820
:1022900090E025EF33E042C021323105C9F022320F
:1022A000310519F137C099278130910541F082300D
:1022B000910541F0892B71F5E1EFF3E005C0E9EDFF
:1022C000F3E002C0E1ECF3E0849190E09F0126C0CE
:1022D000653000F5E62FF0E0EE0FFF1FEB5DFE4FDF
:1022E0002081318189E090E019C0653098F4E62FB3
:1022F000F0E0DF01AA0FBB1FA55EBE4F2D913C9100
:10230000EA5EFE4F808190E009C082E190E022E821
:1023100034E004C080E090E020E030E0FA01318356
:102320002083089580E189BD82E189BD09B400FE62
:10233000FDCF8091D8008F7D8093D8008091E00000
:1023400082608093E0008091E00081FDFCCF0895E1
:10235000CF92DF92EF92FF920F931F93CF93DF9371
:102360007C018B01EA010E940A13811131C0209780
:1023700031F088819981081B190BE80EF91EC12CD8
:10238000D12C0115110519F18091E80085FD14C0CB
:102390008091E8008E778093E800209741F0888153
:1023A00099818C0D9D1D9983888385E011C00E94C1
:1023B0000A13882331F30CC0F70181917F018093C8
:1023C000F10001501109FFEFCF1ADF0ADACF80E0E8
:1023D000DF91CF911F910F91FF90EF90DF90CF9001
:1023E00008952091F7013091F8012617370748F03A
:1023F0006115710539F42091E8002E772093E800EB
:1024000001C0B901FC0120E061157105B9F18091AD
:10241000F001882309F440C0853009F43FC0809161
:10242000E80083FD3DC08091E80082FF06C08091F6
:10243000E80082FF26C080E008958091E80080FFD8
:10244000E3CF2091F3008091F20090E0922B611590
:10245000710551F08830910538F421912093F100F5
:10246000615071090196F3CF21E0089709F020E04F
:102470008091E8008E778093E800C6CF2111C7CF06
:10248000D6CF8091F001882339F0853039F08091E2
:10249000E80083FFCCCF04C082E0089583E0089574
:1024A00081E008952091F7013091F8012617370750
:1024B00048F06115710539F42091E8002E772093DA
:1024C000E80001C0B901FC0120E061157105C1F10E
:1024D0008091F001882309F441C0853009F440C09F
:1024E0008091E80083FD3EC08091E80082FF06C035
:1024F0008091E80082FF27C080E008958091E80085
:1025000080FFE3CF2091F3008091F20090E0922BC6
:102510006115710559F08830910540F4249120939C
:10252000F1003196615071090196F2CF21E00897D0
:1025300009F020E08091E8008E778093E800C5CF15
:102540002111C6CFD5CF8091F001882339F0853095
:1025500039F08091E80083FFCBCF04C082E008957A
:1025600083E0089581E00895982F973058F590936F
:10257000E900981739F07091EC002091ED0050912E
:10258000F00003C0242F762F50E021FF19C03091B6
:10259000EB003E7F3093EB003091ED003D7F3093B8
:1025A000ED003091EB0031603093EB007093EC0064
:1025B0002093ED005093F0002091EE0027FF07C01C
:1025C0009F5FD3CF8F708093E90081E0089580E012
:1025D00008958091F10187FD05C08091E80080FF9A
:1025E0000EC012C08091E80082FD05C08091F0010C
:1025F0008111F8CF08958091E8008B7708C0809111
:10260000F0018111EACF08958091E8008E778093E0
:10261000E80008958091E4009091E50045E620915E
:10262000EC0020FF21C02091E80020FD21C0209176
:10263000F001222389F0253089F02091EB0025FD5F
:102640000FC02091E4003091E5002817390739F3D5
:10265000415041F0C901E3CF82E0089583E008953D
:1026600081E0089584E008952091E80022FFDFCF03
:1026700080E008950E94A8130E94B013E0EEF0E0FD
:10268000808181608083E8EDF0E080818F778083B6
:1026900019BCA7EDB0E08C918E7F8C9380818F7EEA
:1026A00080831092EF0108950F931F93CF93DF93D0
:1026B0000E94A8130E94B013C8EDD0E088818F77E4
:1026C000888388818068888388818F7D888319BC0E
:1026D0001092F0011092EC011092EE011092ED01B7
:1026E00000EE10E0F80180818B7F8083888181601B
:1026F000888342E060E080E00E94B412E1EEF0E006
:1027000080818E7F8083E2EEF0E080818160808333
:10271000808188608083F80180818E7F80838881BA
:1027200080618883DF91CF911F910F910895E8ED2B
:10273000F0E080818F7E8083E7EDF0E08081816032
:10274000808384E082BF81E08093EF010C94541376
:10275000E8EDF0E080818E7F80831092E2000895A2
:102760001092DA001092E10008951F920F920FB6B6
:102770000F9211242F933F934F935F936F937F9307
:102780008F939F93AF93BF93EF93FF938091E1005B
:1027900082FF0BC08091E20082FF07C08091E100C0
:1027A0008B7F8093E1000E94E40F8091DA0080FF2C
:1027B0001FC08091D80080FF1BC08091DA008E7FFF
:1027C0008093DA008091D90080FF0DC080E189BD3F
:1027D00082E189BD09B400FEFDCF81E08093F00164
:1027E0000E94B50F05C019BC1092F0010E94C70FDE
:1027F0008091E10080FF19C08091E20080FF15C048
:102800008091E2008E7F8093E2008091E2008061FF
:102810008093E2008091D80080628093D80019BC38
:1028200085E08093F0010E94D20F8091E10084FF47
:1028300030C08091E20084FF2CC080E189BD82E13C
:1028400089BD09B400FEFDCF8091D8008F7D8093B3
:10285000D8008091E1008F7E8093E1008091E200BA
:102860008F7E8093E2008091E20081608093E2009D
:102870008091EC01882311F084E007C08091E3008F
:1028800087FF02C083E001C081E08093F0010E94D5
:10289000D80F8091E10083FF29C08091E20083FF7F
:1028A00025C08091E100877F8093E10082E08093E2
:1028B000F0011092EC018091E1008E7F8093E100A5
:1028C0008091E2008E7F8093E2008091E20080613F
:1028D0008093E20042E060E080E00E94B4128091C8
:1028E000F00088608093F0000E94CE0FFF91EF917E
:1028F000BF91AF919F918F917F916F915F914F9118
:102900003F912F910F900FBE0F901F9018951F921F
:102910000F920FB60F9211242F933F934F935F9313
:102920006F937F938F939F93AF93BF93CF93EF93C7
:10293000FF93C091E900CF708091EC001092E90004
:102940008091F000877F8093F00078940E94C314F8
:102950001092E9008091F00088608093F000C093AD
:10296000E900FF91EF91CF91BF91AF919F918F912E
:102970007F916F915F914F913F912F910F900FBE7B
:102980000F901F9018951F93CF93DF93CDB7DEB7AD
:10299000AA970FB6F894DEBF0FBECDBFE1EFF1E00E
:1029A0008091F100819321E0E93FF207C9F70E948D
:1029B0003D108091E80083FF1CC12091F10130910E
:1029C000F201832F90E08A30910508F012C1FC01DA
:1029D000EA5AFF4F0C94912E203881F0223809F0EA
:1029E00008C18091F5018F708093E9008091EB0020
:1029F00085FB882780F91092E90006C08091ED01DF
:102A00009091EE01911182609091E800977F9093F0
:102A1000E8008093F1001092F100C5C0822F8D7FF5
:102A200009F0E7C0222319F0223061F0E2C0809162
:102A3000F301813009F0DDC0333009F080E080938C
:102A4000EE0128C08091F301811124C02091F5018D
:102A50002F7009F4CEC02093E9008091EB0080FF35
:102A600019C08091EB00333011F4806211C0806195
:102A70008093EB0081E090E0022E01C0880F0A9461
:102A8000EAF78093EA001092EA008091EB008860F8
:102A90008093EB001092E9008091E800877F86C068
:102AA0002111A7C01091F3011F778091E300807876
:102AB000812B8093E3008091E800877F8093E8007A
:102AC0000E94E9128091E80080FFFCCF8091E30032
:102AD00080688093E300112311F083E001C082E05D
:102AE0008093F00186C02058223008F082C0809187
:102AF000F3019091F4018C3D23E0920779F583E096
:102B00008A838AE289834FB7F894DE01139620E026
:102B10003EE051E2E32FF0E050935700E49120FFB4
:102B200003C0E295EF703F5FEF708E2F90E0EA30C8
:102B300010F0C79601C0C0968D939D932F5F2431EE
:102B400049F74FBF8091E800877F8093E8006AE2F1
:102B500070E0CE0101960E94F11114C0AE014F5FEA
:102B60005F4F6091F5010E943911009709F441C04F
:102B70002091E800277F2093E800BC0189819A8199
:102B80000E9452128091E8008B778093E80031C058
:102B9000203879F58091E800877F8093E800809164
:102BA000EC018093F1008091E8008E778093E8003B
:102BB0000E94E9121EC021111CC09091F3019230B5
:102BC000C0F48091E800877F8093E8009093EC0147
:102BD0000E94E9128091EC01811104C08091E30010
:102BE00087FF02C084E001C081E08093F0010E9471
:102BF00024108091E80083FF0AC08091E800877F5D
:102C00008093E8008091EB0080628093EB00AA96AD
:102C10000FB6F894DEBF0FBECDBFDF91CF911F91ED
:102C20000895CF938091F0018823B1F08091E9005D
:102C30008F709091EC0090FF02C090E801C090E08E
:102C4000C92FC82B1092E9008091E80083FD0E94F3
:102C5000C314CF70C093E900CF910895909374018D
:102C6000809373010895E0917301F091740130979E
:102C700021F00190F081E02D099480E00895FF9209
:102C80000F931F93CF93DF938C01E0917301F09129
:102C90007401309799F10280F381E02D09958091BC
:102CA000D90182FF2BC080FF04C087EB95E00E9412
:102CB000F607E80180E1F82E01EB15E08091D901DB
:102CC00080FF0BC088811F928F931F930F930E94E8
:102CD0008F080F900F900F900F90FA942196F1109B
:102CE000EDCF8091D90180FF09C08FEA95E0DF9197
:102CF000CF911F910F91FF900C94F607DF91CF9128
:102D00001F910F91FF900895E0917301F09174016C
:102D1000309721F00480F581E02D099408952091E9
:102D20007101309172018217930771F090937201D3
:102D300080937101E0917301F0917401309721F05B
:102D40000680F781E02D0994089520916F0130915C
:102D500070018217930771F09093700180936F0157
:102D6000E0917301F0917401309721F00084F185B6
:102D7000E02D0994089508950C94BB160E94D32267
:102D80000E94F8090C949923CF93C82F8091D90100
:102D900082FF1EC080FF04C080ED95E00E94F60710
:102DA0008091D90180FF0CC01F92CF932BEC35E0AE
:102DB0003F932F930E948F080F900F900F900F90CA
:102DC0008091D90180FF04C089EC95E00E94F6074C
:102DD0008C2FCF910C94700ECF92DF92EF92FF92D6
:102DE0000F931F93CF93DF93CDB7DEB72B970FB61B
:102DF000F894DEBF0FBECDBF0E94100A36E7E32E67
:102E000031E0F32E00E010E0C02E802F0E94370B3F
:102E1000F701D1907F01D826B1F40F5F1F4F0E301C
:102E2000110591F78FEF89838A831B820E94DC2230
:102E30008160782F9D838C8349815A816B818D813C
:102E40000E948F1741C09091D90191FF04C08B87D8
:102E50000E943D0B8B8520E030E04D2D50E0922FFD
:102E6000BA01022E02C0759567950A94E2F760FFD9
:102E700025C02E83CF82EE24E394F12C02C0EE0C09
:102E8000FF1C9A95E2F790E08E219F2121E0892B8B
:102E900009F420E028870E94DC228160782F9A873D
:102EA00089874E815F8168858A850E948F17F80126
:102EB000EA58FE4F80818E25808306C02F5F3F4FEA
:102EC0002630310561F6A9CF0E94072710917501C0
:102ED0000E9433161817A1F00E94331680937501D3
:102EE0002B960FB6F894DEBF0FBECDBFDF91CF910A
:102EF0001F910F91FF90EF90DF90CF900C94C4162C
:102F00002B960FB6F894DEBF0FBECDBFDF91CF91E9
:102F10001F910F91FF90EF90DF90CF900895CF9386
:102F2000DF93CDB7DEB72B970FB6F894DEBF0FBE99
:102F3000CDBF4F83588769877A878B87DE011196CB
:102F400086E0FD0111928A95E9F785E0FE0137964A
:102F500001900D928A95E1F749815A816B817C81BC
:102F60008D819E810E94131E2B960FB6F894DEBFB2
:102F70000FBECDBFDF91CF9108950895CF93C82F95
:102F8000882309F4C1C0823859F40E94331681FDA8
:102F9000BBC089E30E94EE200E94DA2189E30CC0C5
:102FA000833879F40E94331680FDAEC083E50E9419
:102FB000EE200E94DA2183E50E943F21CF910C94FC
:102FC000DA21843859F40E94331682FD9DC087E4CB
:102FD0000E94EE200E94DA2187E4EECF8CEF8C0F66
:102FE000813A48F48C2F0E94962B81118DC08C2F32
:102FF0000E94EE20E3CF80E28C0F883048F4C77047
:1030000081E001C0880FCA95EAF70E949121D6CFCE
:103010008BE58C0F833078F4C53A29F0C63A31F449
:1030200082E890E005C081E890E002C083E890E08B
:10303000CF910C948F1688E58C0F833108F064C013
:10304000C83A39F1C93A41F1CA3A49F1CB3A51F19A
:10305000CC3A59F1CD3A61F1C03B69F1CE3A71F108
:10306000CF3A79F1C13B81F1C23B89F1C33B91F188
:10307000C43B99F1C53BA1F1C63BA9F1C73BB1F1F6
:10308000C83BB9F1C93BC1F1CA3BC9F58AE292E03C
:1030900038C082EE90E035C089EE90E032C08AEE12
:1030A00090E02FC085EB90E02CC086EB90E029C02B
:1030B00087EB90E026C08CEC90E023C08DEC90E094
:1030C00020C083E891E01DC08AE891E01AC082E93F
:1030D00091E017C084E991E014C081E292E011C050
:1030E00083E292E00EC084E292E00BC085E292E0BF
:1030F00008C086E292E005C087E292E002C080E06C
:1031000090E0CF910C94A516CF910895882309F4EF
:103110004BC0823859F40E94331681FF45C089E3C1
:103120000E94EE200E94DA2189E30CC0833871F4FA
:103130000E94331680FF38C083E50E94EE200E9473
:10314000DA2183E50E943F210C94DA21843859F476
:103150000E94331682FF28C087E40E94EE200E945E
:10316000DA2187E4EFCF9CEF980F913A58F390E281
:10317000980F983050F4877091E001C0990F8A95AC
:10318000EAF7892F0E949721DFCF9BE5980F9330B4
:1031900020F480E090E00C948F16885A833120F45C
:1031A00080E090E00C94A5160895882321F00E94F9
:1031B00091210C94DA210895882321F00E9497210F
:1031C0000C94DA2108958F929F92AF92BF92CF9282
:1031D000DF92EF92FF920F931F93CF93DF9300D074
:1031E00000D000D0CDB7DEB77C0185E0F701DE016D
:1031F000119601900D928A95E1F7F701D080118127
:103200000281B580B2949FE0B92223813481232BBF
:1032100039F01F3F39F481E0FFEFDF1203C003C034
:1032200081E001C080E080FD07C2C7010E94BD1798
:10323000D9821A8369817A81802F0E94B920182F40
:10324000C92E0E946D200E94401F01110E94AE21D4
:103250000E94E720882379F0002369F080E2810F43
:10326000883048F082E00E94D0200E94E720DD24D0
:10327000D394D82601C0D12CEC2DE295EF70F0E06C
:10328000E05AFF4F0C94912E8C2D807F9C2D9F70C7
:10329000B92E882319F0B29480EFB822002389F068
:1032A000BB2009F48BC180E2810F883020F48B2D84
:1032B0000E94912103C08B2D0E94A1210E94DA213E
:1032C0007DC1812F0E948618BB2009F490C1105E39
:1032D0008B2D183018F40E94972102C00E94A7215C
:1032E0000E94DA2184C12C2D207F8C2D8F702032FA
:1032F00011F08295807F112319F01130B9F020C0B0
:10330000002349F0BB2009F410C191E0B9120DC1AE
:103310000E94C1216CC1BB2021F0E1E0BE1609F47E
:1033200066C18E830E94C4218E8105C1002329F0CD
:10333000F1E0FB1508F45BC1F8C0B11058C1FBC047
:10334000002321F0BB2009F4F0C038C1BB2009F4F0
:10335000F2C03AC12C2D26952695237030E0211518
:10336000310521F02130310561F041C1002321F008
:10337000812F9C2D937002C080E090E00E948F16F8
:1033800036C1002321F0812F9C2D937002C080E074
:1033900090E00E94A5162BC1812F002319F00E94F6
:1033A0008D2502C00E94F5250E947A2620C18C2D11
:1033B000837009F04FC001111AC1212F2295269563
:1033C0002770220F220F812F8F70882E912CA12C15
:1033D000B12C022E04C0880C991CAA1CBB1C0A9498
:1033E000D2F714FF10C06FE070E080E090E004C0FE
:1033F000660F771F881F991F2A95D2F760957095E1
:103400008095909503C060E070E0CB012C2D26954F
:1034100026952370422F50E04230510569F0433029
:10342000510589F0682979298A299B29413051055C
:1034300071F00E94651FDBC0682979298A299B29C0
:103440000E947F1FD4C00E94651FC501B4010E9465
:103450004B1FCDC0002319F08C2D817001C08695C3
:10346000882309F4C4C0212F229526952770220FA6
:10347000220F812F8F70882E912CA12CB12C022E1F
:1034800004C0880C991CAA1CBB1C0A94D2F714FF18
:1034900010C06FE070E080E090E004C0660F771F1E
:1034A000881F991F2A95D2F7609570958095909501
:1034B00003C060E070E0CB012C2D2695269523708B
:1034C000422F50E04230510569F04330510589F0F8
:1034D000682979298A299B294130510571F00E9478
:1034E000392085C0682979298A299B290E9453207F
:1034F0007EC00E943920C501B4010E941F2077C000
:10350000412F50E0FA01E05EF109E531F10508F0E4
:1035100051C0E059FF4F0C94912E1F708C2D8F716C
:10352000002331F00E94B81F812F0E94D5185FC080
:103530000E94D91F812F0E94DC1859C0002339F046
:10354000B11055C08C2D8F710E94FE1F50C081E0BC
:103550008B1508F44CC0F6CF002339F08C2D8F71F9
:103560000E94B81F44C00023C9F38C2D8F710E94A4
:10357000D91F3DC0002329F08C2D8F710E94A31FFD
:1035800036C00E94991F33C0002351F01C2D1F71BB
:10359000812F0E94B81F63E0812F0E94C72027C09F
:1035A00081E00E94D02091E09B1508F582E00E9406
:1035B000D0201DC0002331F0BB2081F2812F0E945A
:1035C000BE1715C0BB2089F2812F0E9486180FC03C
:1035D0004C2D4F70612FC7010E9498080E94C01E99
:1035E00006C04C2D4F70612FC7010E94840BDD2057
:1035F00019F10E94C32080FD1FC0F70112820E94B2
:10360000BD200E94B81FC7010E94E3180E94BD2080
:1036100026960FB6F894DEBF0FBECDBFDF91CF91D7
:103620001F910F91FF90EF90DF90CF90BF90AF90E0
:103630009F908F900C94D91F26960FB6F894DEBFFA
:103640000FBECDBFDF91CF911F910F91FF90EF90F3
:10365000DF90CF90BF90AF909F908F9008950E9481
:10366000AE210E94BE210E9483210E94DA210E9485
:10367000A8270E947A2680E090E00E948F1680E0C2
:1036800090E00C94A5160E949E210C942F1B0E9482
:10369000AE20292F22952F7030E02C3031054CF4CC
:1036A0002A3031056CF42250310922303105B0F452
:1036B00007C02C30310571F02F30310559F00EC0A4
:1036C000803F31F018F4803E48F402C0843F31F46A
:1036D00081E0089593FB882780F9089580E008959C
:1036E000CF93DF9300D000D01F92CDB7DEB70F90FD
:1036F0000F900F900F900F90DF91CF910895CF937F
:10370000DF9300D000D000D0CDB7DEB726960FB63D
:10371000F894DEBF0FBECDBFDF91CF9108951F9308
:10372000CF93DF93C091840116E080918501C81783
:1037300099F0D0E01C9FF0011D9FF00D1124EA5775
:10374000FE4F4081518162817381848195810E9405
:103750007F1B2196C770E9CFDF91CF911F9108950C
:103760004091B6015091B7016091B8017091B901D3
:103770008091BA019091BB010C947F1BCF938091F3
:10378000BB0182958F7009F05FC08091B8018823DA
:1037900009F45AC020918401A09185016091B6017D
:1037A0007091B7018091B9019091BA0131E06F3FFA
:1037B00009F030E0B32FC6E02A1709F445C000979E
:1037C00021F07F3F21F44B2F03C041E001C040E0D6
:1037D00030E040FD35C0C29FF001C39FF00D1124C1
:1037E000EA57FE4F418174132BC04081641328C0F7
:1037F0004281411125C0438154814817590710F473
:1038000041505109481B590B483C5105C8F480915F
:10381000BB018F7080618093BB0186E0829FF001C5
:10382000839FF00D1124E557FE4F80818F708061DA
:10383000808386EB91E00E94E318CF910C948F1B5C
:103840002F5F3F4F2770B8CFCF910895CF92DF926F
:10385000EF92FF920F931F93CF93DF93CDB7DEB715
:1038600062970FB6F894DEBF0FBECDBF8C0185E026
:10387000F801DE011D9601900D928A95E1F7D801BD
:103880004C9111965C91119712966C911297139628
:10389000ED90FC9014977091B601E091B7012091E2
:1038A000B9013091BA012115310531F0EF3F31F402
:1038B00081E07F3F19F403C081E001C080E0B82FB0
:1038C000B170CB2E80FD6CC1D090B801DD2009F421
:1038D000F5C0F091BB01E216F30638F0C701821B78
:1038E000930B883C910548F09BC0209530952E0D98
:1038F0003F1D283C310508F093C08F2F807F09F0D1
:1039000052C0E51314C0741312C0D62E61110FC03B
:10391000FF70F061F093BB010E94B01B86EB91E059
:103920000E94E3188091BB01F80185836CC1EF28E8
:1039300031F05F3F31F481E04F3F19F403C081E083
:1039400001C080E080FD03C081E0862701C080E0E7
:10395000F82FF170FF2E80FF1CC080918401209110
:10396000850136E0821709F428C190E0389FF00104
:10397000399FF00D1124EA57FE4F7181571306C08D
:103980007081471303C07281671303C0019687706B
:10399000E9CFD62E662309F436C18091BB01816040
:1039A0008093BB0153C0E51308C0741306C06111B6
:1039B00004C0D8011596FC93AEC04D875E878D85F7
:1039C0009E856A8B0E94471B6A89882329F1D62E1F
:1039D000662311F12091BB01822F82958F7090E0B8
:1039E00002970CF460C08091B6019091B70198875E
:1039F0008F831986FB86EA862C87CE01079651C0F5
:103A0000E51731F14D875E878D859E856A8B0E9413
:103A1000471B6A8981112EC0C8010E94E318A4C007
:103A20008F2F807F69F77E2DF98AE88A89890E9425
:103A3000701B86EB91E00E94E318E6EBF1E086E074
:103A4000DF011D928A95E9F70E94B01BD12CDBC0E3
:103A50007413D8CF6111D6CFD8011596FC93C80145
:103A60000E94E318E6EBF1E086E0DF011D928A9503
:103A7000E9F7C9C0D62E662379F22091BB01822FC7
:103A800082958F7090E0029774F08091B6019091CA
:103A9000B7019A8389831B82FD82EC822E83CE013B
:103AA00001960E94E31886E0F801A6EBB1E00190D0
:103AB0000D928A95E1F70E94BE1B6FC0E216F306D5
:103AC00028F0C701821B930B9C0104C02095309500
:103AD0002E0D3F1D283C310508F052C0D62E66231E
:103AE00009F49ACFE5132CC074132AC08091BB014E
:103AF00080FD1DC0982F92959F70C9F0D801159632
:103B00008C9315979F3039F09F5F9295907F8F70BF
:103B1000892B15968C93C8010E94E31886E0F80162
:103B2000A6EBB1E001900D928A95E1F736C086E0F0
:103B3000F801A6EBB1E001900D928A95E1F763C020
:103B40004D875E878D859E850E94471B882379F06F
:103B500086E0F801A6EBB1E001900D928A95E1F7BD
:103B60000E94BE1B0E94B01BDD24D3944CC08091E8
:103B7000BB0181608093BB01C8010E94E31843C070
:103B80007E2DF98AE88A89890E94701BE6EBF1E0B4
:103B900086E0DF011D928A95E9F70E94B01B33C0D1
:103BA000662309F439CF4D875E878D859E850E94F7
:103BB000471B882309F430CFCBCF4D875E878D8597
:103BC0009E850E94AE20292F22952F7030E0223052
:103BD00031052CF49F7041F0811106C00CC02430D7
:103BE00031052CF49F7049F4805E883020F0C801C4
:103BF0000E94E318CF2CDC2C06C0D80115969C91AE
:103C0000907F91F7F8CF8D2D62960FB6F894DEBFB6
:103C10000FBECDBFDF91CF911F910F91FF90EF901D
:103C2000DF90CF9008951F93CF93DF93CDB7DEB78A
:103C30002C970FB6F894DEBF0FBECDBF4F835887C9
:103C400069877A878B879C87CE0107960E94261CFE
:103C50008823C1F02F8138858A859B85892B31F097
:103C60003F3F11F080E003C02F3FE1F781E0811179
:103C700047C04F81588569857A858B859C850E94D0
:103C80007F1B3EC086E0FE013796DE011196019053
:103C90000D928A95E1F7FF81E8854A855B8541159C
:103CA000510531F0EF3F31F481E0FF3F19F403C0DB
:103CB00081E001C080E080FD23C02091850130E0DB
:103CC000C9010196877099276091840170E0861779
:103CD0009707F1F1F983EA835D834C8396E0929F25
:103CE000D001939FB00D1124AA57BE4FFE0131960B
:103CF00001900D929A95E1F7809385010E948F1BA8
:103D000016E08091840190918501891779F1189FBF
:103D1000C00111248A579E4F0E94261C882331F12E
:103D2000E09184011E9FF0011124EA57FE4F40816B
:103D3000518162817381848195810E947F1B809172
:103D4000840190E001968770992780938401D9CFF0
:103D50000E94431B1092850110928401E6EBF1E072
:103D600086E0DF011D928A95E9F7CACF2C960FB63F
:103D7000F894DEBF0FBECDBFDF91CF911F910895A4
:103D8000EF92FF920F931F93CF93DF93FC01009765
:103D900009F46FC0F12CEE24E394EF012196849195
:103DA000843740F4843008F055C0813081F082308F
:103DB00021F15FC0853709F447C0C0F19CE7980F37
:103DC000903708F056C08F770E94861845C08F0143
:103DD0000E5F1F4FFE01849190E2980F983050F4CF
:103DE0008770FE2D01C0FF0F8A95EAF78F2F0E9482
:103DF000B12115C00E94BE1714C08F010E5F1F4F66
:103E0000FE01849190E2980F983068F48770FE2D3F
:103E100001C0FF0F8A95EAF78F2F0E94B7210E94F9
:103E2000DA21E80119C00E948618FBCFCF01029663
:103E3000FE01C491CC2361F0EFE9FFE03197F1F787
:103E400000C00000C150F6CFCF010296FE01F490F1
:103E5000EC0102C00E94BE178F2D882341F0EFE9CC
:103E6000FFE03197F1F700C000008150F6CFFE016E
:103E700094CFDF91CF911F910F91FF90EF90089514
:103E800008956093C0017093C1018093C201909323
:103E9000C3010C942F1B0F931F930091C00110912D
:103EA000C1012091C2013091C301062B172B282B91
:103EB000392B0093C0011093C1012093C2013093AC
:103EC000C3011F910F910C942F1B0F931F9300910F
:103ED000C0011091C1012091C2013091C30106239C
:103EE0001723282339230093C0011093C101209385
:103EF000C2013093C3011F910F910C942F1B0F939C
:103F00001F930091C0011091C1012091C201309115
:103F1000C30106271727282739270093C0011093CC
:103F2000C1012093C2013093C3011F910F910C94E2
:103F30002F1B1092BC011092BD011092BE01109275
:103F4000BF010C942F1B41E050E060E070E004C022
:103F5000440F551F661F771F8A95D2F74093BC0107
:103F60005093BD016093BE017093BF010C942F1B51
:103F700041E050E060E070E004C0440F551F661F50
:103F8000771F8A95D2F78091BC019091BD01A091D5
:103F9000BE01B091BF01842B952BA62BB72B80932C
:103FA000BC019093BD01A093BE01B093BF010C94DE
:103FB0002F1B41E050E060E070E004C0440F551F4B
:103FC000661F771F8A95D2F740955095609570953A
:103FD0008091BC019091BD01A091BE01B091BF0143
:103FE00084239523A623B7238093BC019093BD011E
:103FF000A093BE01B093BF010C942F1B41E050E091
:1040000060E070E004C0440F551F661F771F8A955B
:10401000D2F78091BC019091BD01A091BE01B091F9
:10402000BF0184279527A627B7278093BC019093CB
:10403000BD01A093BE01B093BF010C942F1B0F9341
:104040001F930091BC011091BD012091BE013091E0
:10405000BF01062B172B282B392B0093BC01109383
:10406000BD012093BE013093BF011F910F910C94AD
:104070002F1B0F931F930091BC011091BD01209144
:10408000BE013091BF010623172328233923009353
:10409000BC011093BD012093BE013093BF011F915D
:1040A0000F910C942F1B0F931F930091BC01109143
:1040B000BD012091BE013091BF0106271727282797
:1040C00039270093BC011093BD012093BE013093AA
:1040D000BF011F910F910C942F1B0895CF92DF9277
:1040E000EF92FF920F931F93CF93DF93EC01C09059
:1040F000C001D090C101E090C201F090C301809155
:10410000BC019091BD01A091BE01B091BF01C82A30
:10411000D92AEA2AFB2A0FE110E0B701A601002EF6
:1041200004C076956795579547950A94D2F740FD58
:1041300005C00150110988F780E007C0BE01802F3B
:104140000E94D50D0197A9F3802FDF91CF911F9188
:104150000F91FF90EF90DF90CF900895CF93DF9372
:10416000EC010E946E20BE010E94D50DDF91CF911F
:104170000895CB010E94AE2008958091C4018595D9
:104180008595859508958091C4018770089598E07C
:10419000899F90011124622B6093C4010C94B81F75
:1041A0004091C401809584238093C401982F977017
:1041B00069F450E0282F332727FD30954217530725
:1041C00029F08595859585950C94D91F0895909132
:1041D000C401977081E009F480E0089590910C018A
:1041E000992361F190910D01992341F1982F9695B2
:1041F000969596959F3088F4E0910E01F0910F010D
:10420000E90FF11D877021E030E001C0220F8A958F
:10421000EAF78181822B818308959091D90190FFE3
:104220002DC01F928F9381E096E09F938F930E9401
:104230008F080F900F900F900F90089540910E01EE
:1042400050910F0120E030E09FEFFA01E20FF31FE1
:104250006281681799F09F3F19F4611101C0922F94
:104260002F5F3F4F2E30310581F79F3F39F0FA0124
:10427000E90FF11D97FDFA958283089508959091B5
:104280000C01992369F190910D01992349F1982F1F
:104290009695969596959F3090F4E0910E01F09149
:1042A0000F01E90FF11D877021E030E001C0220FFE
:1042B0008A95EAF72095818128232183089590919A
:1042C000D90190FF1FC01F928F9383EE95E09F93BB
:1042D0008F930E948F080F900F900F900F9008956A
:1042E00040910E0150910F0120E030E0FA01E20F01
:1042F000F31F9281981301C012822F5F3F4F2E301F
:104300003105A1F7089581E090E0E0910E01F09170
:104310000F01E80FF91F1082019680319105A9F76E
:1043200008959091D801982B9093D8010895809585
:104330009091D80198239093D80108951092D801B4
:1043400008959091D701982B9093D7010895809567
:104350009091D70198239093D70108951092D70197
:1043600008959091D601982B9093D6010895809549
:104370009091D60198239093D60108951092D6017A
:1043800008958093C50108951092C5010895409144
:104390000E0150910F0120E030E080E0FA01E20FC1
:1043A000F31F918191118F5F2F5F3F4F2F303105A8
:1043B000A9F70895E0910E01F0910F018091D801C5
:1043C0008083E0910E01F0910F0180819091D701DF
:1043D000892B8083E0910E01F0910F0180819091F3
:1043E000D601892B80839091C501992361F0E091DA
:1043F0000E01F0910F018081892B80830E94C721DB
:1044000081111092C50180910E0190910F010C94C1
:104410003F1690933B0180933A010895CF92DF922B
:10442000EF92FF920F931F936C01EE24FF24C114AF
:10443000D104E104F10421F46B017C0180E001C0AE
:1044400080E133272F2D1E2D0D2D0115110521057E
:10445000310519F0885F6801790197018601A4E0B0
:104460003695279517950795AA95D1F7011511054A
:104470002105310519F08C5F6801790197018601EA
:10448000F2E03695279517950795FA95D1F701151E
:1044900011052105310519F08E5F68017901B70119
:1044A000A6017695679557954795452B462B472B43
:1044B00009F08F5F1F910F91FF90EF90DF90CF90E9
:1044C00008958295982F9C7C96959695837344E0E9
:1044D000849F90011124922B892F8A7A8695957555
:1044E000990F892B08951F93CF93DF931F92CDB718
:1044F000DEB799830E946122182F9981892F0E942B
:104500006122212F30E0322F2227A901482BCA0136
:104510000F90DF91CF911F9108958091F001843029
:1045200021F11092DA0120E488E190E00FB6F894CE
:10453000A895809360000FBE2093600080E00E94E9
:10454000700E83B7817F846083BF83B7816083BF30
:104550007894889583B78E7F83BF88E10FB6F894EF
:1045600080936000109260000FBE08950895089532
:10457000CF930E94B6220E94100A0E94B722C0E088
:104580008C2F0E94370B811105C0CF5FCE30C1F751
:1045900080E001C081E0CF9108950E94431B0E94FA
:1045A00033160C94700E82E084BD93E095BD9AEFB3
:1045B00097BD80936E0008952FB7F8948091DB012A
:1045C0009091DC01A091DD01B091DE012FBF089533
:1045D000CF92DF92EF92FF920F931F932FB7F89431
:1045E0004091DB015091DC016091DD017091DE01B1
:1045F0002FBF6A017B01EE24FF248C0120E030E014
:10460000C016D106E206F30610F441505109481BCA
:10461000590BCA011F910F91FF90EF90DF90CF903F
:1046200008951F920F920FB60F9211248F939F93AC
:10463000AF93BF938091DB019091DC01A091DD01EC
:10464000B091DE010196A11DB11D8093DB01909315
:10465000DC01A093DD01B093DE01BF91AF919F918A
:104660008F910F900FBE0F901F9018950E943A13D4
:10467000F8942FEF87EA91E6215080409040E1F7CF
:1046800000C0000087E090EBDC018093FA0190937A
:10469000FB01A093FC01B093FD012CE088E190E0C8
:1046A0000FB6F894A895809360000FBE2093600029
:1046B000FFCFEF92FF920F931F93CF93DF93E82EDC
:1046C000F12C8F2D0E94370BC0E0D0E0082F10E0B6
:1046D00098010C2E02C0359527950A94E2F720FD2B
:1046E00005C02196C630D10599F709C06C2F7F2DE2
:1046F00080E00E94850BE812F4CF81E005C0F394BE
:104700008EE0F812DECF80E0DF91CF911F910F9104
:10471000FF90EF900895CF93C82F8CE20E94592309
:10472000882321F08C2FCF910C94592380E0CF91D6
:104730000895CF930E94E624811102C00E94CC24E8
:1047400086E296E00E94F607C5E6C15049F00E9455
:10475000100A8FE39CE90197F1F700C00000F5CF44
:104760008FE196E00E94F60789E20E948B23811177
:1047700011C18AE20E948B2381110E94CC2485E022
:104780000E948B2381110E9436230E94F124809382
:10479000D90187E00E948B23882399F18BE10E9445
:1047A0008B23882351F09091D90191FB882780F9C0
:1047B00021E0822780FB91F922C08EE00E948B23AA
:1047C000882351F09091D90192FB882780F921E04C
:1047D000822780FB92F913C080E10E948B23909185
:1047E000D901882341F093FB882780F921E08227B3
:1047F00080FB93F904C0892F809580FB90F99093FA
:10480000D9018091D9010E94F5240E94032580934B
:10481000F90180EE0E948B23882341F08091F901F9
:10482000982F909590FB80F98093F90189E30E947D
:104830008B23882359F09091F90191FB882780F907
:1048400021E0822780FB91F99093F90182EE0E948A
:104850008B23882359F09091F90192FB882780F9E6
:1048600021E0822780FB92F99093F90186EE0E9465
:104870008B23882359F09091F90193FB882780F9C5
:1048800021E0822780FB93F99093F90183EE0E9447
:104890008B23882359F09091F90194FB882780F9A4
:1048A00021E0822780FB94F99093F90185E30E942F
:1048B0008B23882359F09091F90195FB882780F983
:1048C00021E0822780FB95F99093F90181E30E9412
:1048D0008B23882359F09091F90196FB882780F962
:1048E00021E0822780FB96F99093F90181E10E94F3
:1048F0008B23882359F09091F90197FB882780F941
:1049000021E0822780FB97F99093F9018091F901CA
:104910000E9407258091F90187FB882780F9809301
:104920000D0187E20E948B23C82F8EE10E948B230A
:104930008111C2608FE10E948B238111C46080E2EB
:104940000E948B238111C86081E20E948B23811118
:10495000C06182E20E948B238111C06283E20E94C7
:104960008B238111C06484E20E948B23882311F081
:10497000C06802C0CC2329F08C2F0E94FE246C2F2B
:1049800003C00E94FA24682F70E080E090E0CF918D
:104990000C94411FCF9108956DEE7EEF80E090E082
:1049A0000E94CB2E60E082E090E00E94B92E60E091
:1049B00083E090E00E94B92E60E084E090E00E94E5
:1049C000B92E60E085E090E00C94B92E80E090E094
:1049D0000E94B32E21E08D3E9E4F09F020E0822FF1
:1049E000089582E090E00C94AB2E682F82E090E076
:1049F0000C94B92E83E090E00C94AB2E682F83E0EA
:104A000090E00C94B92E84E090E00C94AB2E682FCB
:104A100084E090E00C94B92E8091E10180FF0BC0FE
:104A20006091130185E0689FB00111247595679529
:104A3000759567952AC081FF09C06091130185E0D3
:104A4000689FB0011124759567951FC082FF07C04C
:104A50006091130185E0689FB001112416C0409158
:104A6000E2014423C9F060911201461788F72091B2
:104A7000130185E0289F90011124429FC001439FAC
:104A8000900D112470E00E947D2E6038710540F475
:104A90006115710539F002C065E070E0862F089558
:104AA0008FE7089581E008958091E10180FF08C0BB
:104AB0006091110170E0759567957595679521C0B6
:104AC00081FF06C06091110170E07595679519C06E
:104AD00082FF04C06091110170E010C08091E2017A
:104AE0008823C1F0609110018617A0F79091110101
:104AF000989FC001112470E00E947D2E60387105DE
:104B000028F46115710521F0862F08958FE7089527
:104B100081E0089561E070E0F4CF803F21F40E94CD
:104B20000C25819504C0813F29F40E940C258093B7
:104B3000E5010895823F21F40E940C25819504C06F
:104B4000833F29F40E940C258093E4010895893F56
:104B500019F40E94542505C08A3F31F40E9454255F
:104B600081958093E60108958B3F21F40E9454259E
:104B7000819504C08C3F29F40E9454258093E7015D
:104B80000895843F21F48091E301816017C0853F3F
:104B900021F48091E301826011C0863F21F480916D
:104BA000E30184600BC0873F21F48091E3018860BA
:104BB00005C0883F31F48091E30180618093E30177
:104BC00008958D3F21F48091E10181600BC08E3FFB
:104BD00021F48091E101826005C08F3F29F480912A
:104BE000E10184608093E1010895803F39F4809170
:104BF000E50187FF6CC01092E50169C0813F29F48F
:104C00008091E5011816BCF362C09091E401823FE7
:104C100029F497FF5CC01092E40159C0833F19F456
:104C20001916CCF354C0893F41F48091E60118165F
:104C30000CF04DC01092E6014AC08A3F29F48091E1
:104C4000E60187FF44C0F6CF8B3F39F48091E7013E
:104C500087FF3DC01092E7013AC08C3F29F4809154
:104C6000E7011816BCF333C0843F21F48091E301BF
:104C70008E7F17C0853F21F48091E3018D7F11C0A5
:104C8000863F21F48091E3018B7F0BC0873F21F4A5
:104C90008091E301877F05C0883F31F48091E30173
:104CA0008F7E8093E30113C08D3F21F48091E10159
:104CB0008E7F0BC08E3F21F48091E1018D7F05C076
:104CC0008F3F29F48091E1018B7F8093E1018091F6
:104CD000E40181110EC08091E50181110AC080912B
:104CE000E601811106C08091E701811102C0109296
:104CF000E20108958091D90183FF7EC082E696E0AB
:104D00000E94F6078091E3011F928F938DE596E054
:104D10009F938F930E948F088BE596E00E94F60781
:104D20002091E401822F992787FD90959F932F93DF
:104D300088E596E09F938F930E948F0886E596E022
:104D40000E94F6072091E501822F992787FD909513
:104D50009F932F9383E596E09F938F930E948F08F4
:104D600081E596E00E94F6072091E601822F9927BF
:104D700087FD90959F932F938EE496E09F938F935A
:104D80000E948F088CE496E00E94F6072091E701CC
:104D9000822F992787FD90959F932F9389E496E022
:104DA0009F938F930E948F0886E496E00E94F607F7
:104DB0008091E2011F928F9383E496E09F938F93FB
:104DC0000E948F0881E496E00E94F6078091E1013D
:104DD0001F928F938EE396E09F938F930E948F088C
:104DE0008BE396E00E94F6078DB79EB74C960FB600
:104DF000F8949EBF0FBE8DBF83EE91E00E94841693
:104E00000E94DC229093E0018093DF0108951F93BC
:104E1000CF93DF938091DF019091E0010E94E8221F
:104E20004091E201442321F02091140130E006C0BA
:104E3000209115015AE0259F9001112482179307B4
:104E400008F482C08091E4011091E501D091E6015F
:104E5000C091E701811107C0111105C0D11103C034
:104E6000CC2309F471C04F3F19F04F5F4093E2012A
:104E7000181624F40E940C258093E4018091E4012B
:104E800087FF05C00E940C2581958093E4011116CF
:104E900024F40E940C258093E5018091E50187FFB1
:104EA00005C00E940C2581958093E5016091E40185
:104EB000662339F11091E501112319F1772767FD78
:104EC0007095872F972F0E94822D23E333E343E3CE
:104ED0005FE30E94E62D0E944F2D6093E401612F55
:104EE000772767FD7095872F972F0E94822D23E3E8
:104EF00033E343E35FE30E94E62D0E944F2D60936E
:104F0000E5011D1624F40E9454258093E60180914A
:104F1000E60187FF05C00E94542581958093E60134
:104F20001C1624F40E9454258093E7018091E70128
:104F300087FF05C00E94542581958093E701DF918A
:104F4000CF911F910C947A26DF91CF911F910895F4
:104F5000E3EEF1E085E0DF011D928A95E9F710921A
:104F6000E2011092E101089585E898E00E94F607B9
:104F70001F9281E08F931F9285E08F9387E398E0E3
:104F80009F938F930E948F080F900F900F900F9018
:104F90000F900F9008958330E9F128F4813061F08B
:104FA000823009F10895853009F462C008F449C0DF
:104FB000863009F474C0089520911501862F90E081
:104FC000820F911D8F3F910520F4620F60931501B0
:104FD00003C08FEF80931501809115011F928F936D
:104FE00080E797E072C020911401862F90E0820F35
:104FF000911D8F3F910520F4620F6093140103C04F
:105000008FEF80931401809114011F928F938EE58E
:1050100097E05BC020911301862F90E0820F911DD5
:105020008F3F910520F4620F6093130103C08FEF4F
:1050300080931301809113011F928F938BE497E06B
:1050400044C020911201862F90E0820F911D8F3F66
:10505000910520F4620F6093120103C08FEF8093DB
:105060001201809112011F928F9386E397E02DC069
:1050700020911101862F90E0820F911D8F3F9105A5
:1050800020F4620F6093110103C08FEF8093110130
:10509000809111011F928F938DE197E016C02091AE
:1050A0001001862F90E0820F911D8F3F910520F413
:1050B000620F6093100103C08FEF80931001809105
:1050C00010011F928F9382E097E09F938F930E942D
:1050D0008F080F900F900F900F900895833081F1FB
:1050E00028F4813059F08230D1F00895853009F4E8
:1050F00049C0B8F1863009F456C008958091150171
:10510000681720F4861B8093150102C010921501C8
:10511000809115011F928F9383EF96E054C0809188
:105120001401681720F4861B8093140102C01092AA
:105130001401809114011F928F9381EE96E043C079
:1051400080911301681720F4861B8093130102C01D
:1051500010921301809113011F928F938EEC96E0B1
:1051600032C080911201681720F4861B80931201CF
:1051700002C010921201809112011F928F9389EB4D
:1051800096E021C080911101681720F4861B80935E
:10519000110102C010921101809111011F928F9391
:1051A00080EA96E010C080911001681720F4861BF9
:1051B0008093100102C010921001809110011F9283
:1051C0008F9385E896E09F938F930E948F080F90AE
:1051D0000F900F900F900895CF93C82F1F928F9329
:1051E0002AE839E03F932F930E948F0861E070E036
:1051F00080E090E004C0660F771F881F991FCA9552
:10520000D2F70E94411F0F900F900F900F90CF91F7
:105210000C94431BCF938D3109F465C0B0F58E30EB
:1052200009F4D1C100F5873009F49BC1A8F4863098
:1052300009F070C28091D901817F8E7F8093D9015E
:1052400089E19BE00E94F60788EE9EE00E94F60747
:1052500081E08093E90180C1883009F44FC08B3030
:1052600009F47CC157C2863109F4F3C138F48031A6
:1052700009F4BCC1813109F433C24CC2893109F44B
:10528000D1C18B3109F48CC145C2853309F43EC2CA
:1052900048F4873209F43AC208F436C2893209F474
:1052A00035C238C2833438F48A3308F02BC28833CD
:1052B00009F454C12FC2833409F428C2883409F098
:1052C00029C20E94431B8CEC9EE00E94F6079FEFD0
:1052D00023ED80E3915020408040E1F700C00000C2
:1052E0000E94362339C187EF9EE00E94F6070E9494
:1052F000092D0E9433160E94700E2EC18CEE9EE086
:105300000E94F60789E39EE00E94F6070E94FA24B5
:105310001F928F9386E39EE09F938F930E948F0846
:1053200084E39EE00E94F6070E94F124C82F81E2E8
:105330009EE00E94F6071F92CF932CE13EE03F9340
:105340002F930E948F088AE19EE00E94F60780E179
:105350009EE00E94F6078C2F81701F928F932DE0A4
:105360003EE03F932F930E948F088BE09EE00E94C7
:10537000F60781E09EE00E94F607C1FB882780F9CE
:105380001F928F932EEF3DE03F932F930E948F0843
:105390008CEF9DE00E94F60780EF9DE00E94F607EB
:1053A000C2FB882780F91F928F932DEE3DE03F933B
:1053B0002F930E948F088BEE9DE00E94F60782EEED
:1053C0009DE00E94F607C3FBCC27C0F91F92CF9344
:1053D0008FED9DE09F938F930E948F088DED9DE050
:1053E0000E94F6070E940325C82F89EC9DE00E94C9
:1053F000F6071F92CF9324EC3DE03F932F930E943A
:105400008F0882EC9DE00E94F60789EA9DE00E94E9
:10541000F6078C2F81701F928F9326EA3DE03F9311
:105420002F930E948F088DB79EB780960FB6F89481
:105430009EBF0FBE8DBF84EA9DE00E94F6078DE8F7
:105440009DE00E94F607C1FB882780F91F928F9389
:105450002AE83DE03F932F930E948F0888E89DE063
:105460000E94F60786E79DE00E94F607C2FB8827A8
:1054700080F91F928F9323E73DE03F932F930E9483
:105480008F0881E79DE00E94F6078FE59DE00E946E
:10549000F607C3FB882780F91F928F932CE53DE028
:1054A0003F932F930E948F088AE59DE00E94F607A4
:1054B00080E59DE00E94F607C4FB882780F91F92D3
:1054C0008F932DE43DE03F932F930E948F088BE450
:1054D0009DE00E94F60789E39DE00E94F607C5FB68
:1054E000882780F91F928F9326E33DE03F932F9307
:1054F0000E948F0884E39DE00E94F60788E19DE00A
:105500000E94F607C6FB882780F91F928F9325E13A
:105510003DE03F932F930E948F0883E19DE00E941E
:10552000F6078BE09DE00E94F607C7FBCC27C0F989
:105530001F92CF9388E09DE09F938F930E948F08E6
:1055400086E09DE00E94F6078DB79EB74C960FB699
:10555000F8949EBF0FBE8DBFC1E0E1C080E49BE028
:105560005EC08091D901C82FC095C170C0FB80F981
:105570008093D901CC2349F080EC9EE00E94F6078D
:105580008091D9018660886045C083EB9EE00E94CF
:10559000F6078091D901897F877F8093D901DCCF7D
:1055A0008091D90181FBCC27C0F991E0C927C0FBCC
:1055B00081F98093D901CC2319F086EA9EE025C0B9
:1055C00088E99EE02CC08091D90182FBCC27C0F9EC
:1055D00091E0C927C0FB82F98093D901CC2319F04F
:1055E00089E89EE012C089E79EE019C08091D90148
:1055F00083FBCC27C0F991E0C927C0FB83F98093D6
:10560000D901CC2351F08DE69EE00E94F6078091EF
:10561000D90181608093D90182C080E69EE00E941A
:10562000F6079ACF8AE09BE00E94F6078EED9AE09B
:105630000E94F60781EA9AE00E94F6078AE79AE05C
:105640000E94F60786E39AE00E94F60788E09AE057
:10565000E6CF8AEF99E00E94F6070E9433161F9268
:105660008F9380EE99E09F938F930E948F08809193
:105670000C011F928F9389EC99E09F938F930E9466
:105680008F0880916E011F928F9386EB99E09F9314
:105690008F930E948F0880910D011F928F9383EA50
:1056A00099E09F938F930E948F088091DB019091E6
:1056B000DC01A091DD01B091DE01BF93AF939F9318
:1056C0008F938FE899E09F938F930E948F088DB7F7
:1056D0009EB746960FB6F8949EBF0FBE8DBF3CCFC7
:1056E0000E94431BC0910D0181E0C827C0930D01AA
:1056F000CC2329F086E59EE00E94F60710C08BE4DB
:105700009EE08DCF895303C08D5101C080E00E947F
:10571000EC2822CF89E49EE00E94F607C0E08C2F9F
:10572000CF91089580E0089580E00895CF93C82F29
:105730008091E901813081F020F0823009F44CC081
:1057400042C1A0910E01B0910F018C91813169F09D
:10575000823209F03AC109C0A0910E01B0910F0147
:105760008C91813111F0823249F48C2F0E94922B5E
:1057700081112FC08C2F0E940A292CC08C2F0E94CF
:10578000942B811126C0C431E1F070F4CB3081F04C
:10579000C031D1F40E94B42782E899E00E94F60754
:1057A00082E08093E90115C0C93259F0C83361F431
:1057B00089E19BE00E94F60786E899E00E94F607DF
:1057C00008C01092E90103C180E899E00E94F60741
:1057D000FEC081E08170FDC0C43220F5CE3108F0FA
:1057E000C0C0CB3099F1C8F4C73009F0D2C08AE00C
:1057F0008093150194E19093140193E09093130129
:105800008093120188E08093110188E28093100157
:1058100086E298E00E94F607BFC0C33149F1C43167
:10582000C1F0B7C0CB3409F4A9C028F4C93289F05B
:10583000C83361F0AEC0C13509F49EC0C23509F469
:1058400099C0CE3409F0A5C06AE09EC00E94B4277A
:10585000A3C08091E801882319F01092E8019CC050
:1058600083E398E00E94F60781E08093E901B1C0EC
:105870008DE098E00E94F6078BEF97E00E94F60714
:10588000809115011F928F9388EF97E09F938F93DC
:105890000E948F0886EF97E00E94F60784EE97E05B
:1058A0000E94F607809114011F928F9381EE97E07A
:1058B0009F938F930E948F088FED97E00E94F607C9
:1058C00080ED97E00E94F607809113011F928F935D
:1058D0008DEC97E09F938F930E948F088BEC97E05D
:1058E0000E94F6078AEB97E00E94F607809112016A
:1058F0001F928F9387EB97E09F938F930E948F085F
:1059000085EB97E00E94F60780EA97E00E94F60791
:10591000809111011F928F938DE997E09F938F9350
:105920000E948F088BE997E00E94F60784E897E0D1
:105930000E94F607809110011F928F9381E897E0F3
:105940009F938F930E948F088FE797E00E94F6073E
:105950008DB79EB748960FB6F8949EBF0FBE8DBF09
:105960001BC0CE51EC2FF0E0E15DFE4F80818093B3
:10597000E80112C061E003C061E006C06AE0809106
:10598000E8010E94CB2708C08091E8010E946E28A0
:1059900003C084E298E013C08091E801882369F095
:1059A0001F928F938EE198E09F938F930E948F08B0
:1059B0000F900F900F900F9004C08BE198E00E9421
:1059C000F60781E006C01092E90180E002C080E0A5
:1059D00001CFCF910895E1E8F0E080818860808375
:1059E0008081816080838FB7F89493E090938900E1
:1059F00090ED909388008FBF0895EFE6F0E08081EE
:105A0000826080830895EFE6F0E080818D7F80835F
:105A10000895EFE6F0E0808192E089278083089581
:105A20001F920F920FB60F9211242F933F934F9313
:105A30005F936F937F938F939F93AF93BF93EF93F6
:105A4000FF938091EA019091EB0101969093EB0115
:105A50008093EA01811103C082E00E94700EE09100
:105A6000EB01E695E695F0E0E95FF04FE491809177
:105A7000EA018E1303C080E00E94700EFF91EF9147
:105A8000BF91AF919F918F917F916F915F914F9156
:105A90003F912F910F900FBE0F901F90189504D03B
:105AA0006894B1118DC0089570D088F09F5790F020
:105AB000B92F9927B751A0F0D1F0660F771F881F33
:105AC000991F1AF0BA95C9F712C0B13081F077D09A
:105AD000B1E0089574C0672F782F8827B85F39F038
