:100000000C9484070C94C8070C94C8070C94C80778
:100010000C94C8070C94C8070C94C8070C94C80724
:100020000C94C8070C94C8070C9495130C9467148F
:100030000C94C8070C94C8070C94C8070C94C80704
:100040000C94C8070C94F02C0C94C8070C94C807A7
:100050000C94C8070C94F1220C94C8070C94C807A0
:100060000C94C8070C94C8070C94C8070C94C807D4
:100070000C94C8070C94C8070C94C8070C94C807C4
:100080000C94C8070C94C8070C94C8070C94C807B4
:100090000C94C8070C94C8070C94C8070C94C807A4
:1000A0000C94C8070C94C8070C94C807CC14EE1421
:1000B000D915EE14D91530155315D915A815BB153A
:1000C00024192419531953198A19AC19D71AD71A94
:1000D000B719D71A601A601AC81AD71AD71AD11ABC
:1000E0006D1A6D1A6D1A6D1A6D1A6D1A6D1A6D1AD8
:1000F0006D1A6D1A6D1A6D1A6D1A6D1A6D1A6D1AC8
:100100007E1A8C1A931A9A1AA41A0000F0A12900D8
:100110002B00E000E100358100001E001400040007
:100120001D0034744D001F001A0016001B00E30070
:100130002A00200008000700060052002C002100C1
:1001400015000900190051004A00220017000A009A
:10015000050000006574500001540000910000008B
:10016000E3004F000154000090000000E200230073
:100170001C000B00110000002971240018000D0064
:10018000100050004B0025000C000E0036004F0000
:100190002800260012000F0037002F002B00270038
:1001A00013003382387130004E002D0031002800DA
:1001B000E500C10000000100010001000100010094
:1001C00000003A001E0220022202010001003B0052
:1001D0001F0221022302010001003C002F0226021F
:1001E0002F00010001003D00300227023000010015
:1001F00001003E003102350035020000010001001F
:1002000001000000010000000100010001000000E9
:100210000100000001003F005200510024020000D4
:1002200001004000240021001E00010001004100E7
:10023000250022001F003700010042002600230095
:10024000200027000100430025022E0231002E006D
:1002500001004400450001000100010000000050C1
:100260000100010001000100000001000100F20096
:100270000100010001000100F000F1000100010097
:10028000010001000100F3000100F4000100010081
:10029000010001000100F500010001000100010062
:1002A0000100000001000100010000000100000049
:1002B0000100010001000000010000000100010038
:1002C0000100010001000000010001000100010027
:1002D0000100A9000100010001000100AC00AA001A
:1002E000B600010001000100AB00A8000100010000
:1002F0000100010001000100010001000100AE0049
:100300000100010000000A002530313662003A2069
:100310000025303258000A722F63203031323334D6
:1003200035363738394142434445460A000A0025EC
:1003300030325800626F756E6365213A20006C653B
:1003400066742073696465206174746163686564B0
:100350000A006C6566742073696465206E6F742092
:10036000726573706F6E64696E670A007472796982
:100370006E6720746F207265736574206D637032D0
:10038000333031380A000A44454255473A20656EF9
:1003900061626C65642E0A005B735D004B65796277
:1003A0006F6172642073746172742E0A005B575D12
:1003B000005B535D005B525D005B445D005B435D31
:1003C0000016034500720067006F0044006F00785C
:1003D00000200045005A0000001603450072006727
:1003E000006F0044006F007800200045005A0000B4
:1003F000000403090409026D00040100A0FA0904C5
:1004000000000103010100092111010001223F0048
:100410000705810308000A09040100010301020025
:10042000092111010001224D000705820308000A7D
:10043000090402000103000000092111010001224A
:1004400036000705830308000A09040300010300BE
:100450000000092111010001223900070584031061
:1004600000011201100100000008EDFE0713010059
:100470000102000105010906A101050719E029E7AC
:100480001500250195087501810205081901290546
:1004900095057501910295017503910105071900F4
:1004A000297715002501957875018102C00501099C
:1004B00080A101850216010026B7001A01002AB7A3
:1004C00000751095018100C0050C0901A10185038B
:1004D000160100269C021A01002A9C027510950143
:1004E0008100C005010902A1010901A10005091946
:1004F00001290515002501950575018102950175F4
:100500000381010501093009311581257F950275A7
:1005100008810609381581257F9501750881060532
:100520000C0A38021581257F950175088106C0C027
:1005300005010906A101050719E029E715002501B4
:100540009508750181029501750881010508190159
:10055000290595057501910295017503910105071E
:100560001900296815002568950675088100C00ADC
:10057000002530325820006B6579626F6172645FCC
:100580007265706F72743A20000A0025303258008C
:100590006B6579626F6172645F7365745F6C6564CB
:1005A0003A200064656C5F6B65795F6269743A201C
:1005B00063616E27742064656C3A20253032580AD6
:1005C000006164645F6B65795F6269743A2063619E
:1005D0006E2774206164643A20253032580A006422
:1005E0006F6E652E0A00626F6F676D6167696320C9
:1005F0007363616E3A202E2E2E2000290A00257585
:10060000002F002575005D2800256400200025646A
:1006100000200025640020002564007C0025303285
:1006200058006D6F7573656B6579205B62746E7CC5
:10063000782079207620685D287265702F61636C60
:10064000293A205B006D6B5F776865656C5F746944
:100650006D655F746F5F6D6178203D2025640A00D1
:100660006D6B5F776865656C5F6D61785F737065F2
:100670006564203D2025640A006D6B5F74696D65BB
:100680005F746F5F6D6178203D2025640A006D6B9B
:100690005F6D61785F7370656564203D2025640A35
:1006A000006D6B5F696E74657276616C203D20250C
:1006B000640A006D6B5F64656C6179203D20256480
:1006C0000A006D6B5F776865656C5F74696D655F67
:1006D000746F5F6D6178203D2025640A006D6B5F4B
:1006E000776865656C5F6D61785F737065656420C0
:1006F0003D2025640A006D6B5F74696D655F746FE2
:100700005F6D6178203D2025640A006D6B5F6D612F
:10071000785F7370656564203D2025640A006D6B09
:100720005F696E74657276616C203D2025640A00F5
:100730006D6B5F64656C6179203D2025640A000A59
:1007400000257500363A20776865656C5F74696DC1
:10075000655F746F5F6D61783A20000A002575004F
:10076000353A20776865656C5F6D61785F73706599
:1007700065643A20000A00257500343A2074696DDA
:10078000655F746F5F6D61783A20000A002575001F
:10079000333A206D61785F73706565643A20000AB2
:1007A00000257500323A20696E74657276616C2896
:1007B0006D73293A20000A00257500313A206465DE
:1007C0006C6179282A31306D73293A20000A092D8D
:1007D0002056616C756573202D0A004D3E004D2535
:1007E000643E20003F007365742064656661756C2B
:1007F000740A00433E200077686572652064656C6A
:1008000074613A20637572736F723D25642C207792
:100810006865656C3D25640A53656520687474706D
:100820003A2F2F656E2E77696B6970656469612E4A
:100830006F72672F77696B692F4D6F7573655F6B8B
:100840006579730A000A092D204D6F7573656B6514
:1008500079202D0A4553432F713A09717569740A3D
:10086000313A0964656C6179282A31306D73290A3F
:10087000323A09696E74657276616C286D73290A63
:10088000333A096D61785F73706565640A343A09BB
:1008900074696D655F746F5F6D61780A353A0977C9
:1008A0006865656C5F6D61785F73706565640A3655
:1008B0003A09776865656C5F74696D655F746F5F31
:1008C0006D61780A0A703A097072696E74207661F7
:1008D0006C7565730A643A097365742064656661B2
:1008E000756C74730A75703A092B310A646F776EF0
:1008F0003A092D310A706775703A092B31300A7048
:1009000067646F776E3A092D31300A0A7370656536
:1009100064203D2064656C7461202A206D61785FDD
:100920007370656564202A20287265706561742083
:100930002F2074696D655F746F5F6D6178290A009F
:100940003F004D3E2000433E20004C25640A0074C9
:10095000696D65725F636F756E743A202530346C13
:10096000580A006B6579626F6172645F6E6B726FBB
:100970003A2025580A006B6579626F6172645F697D
:10098000646C653A2025580A006B6579626F617264
:10099000645F70726F746F636F6C3A2025580A0041
:1009A000686F73745F6B6579626F6172645F6C65A9
:1009B000647328293A2025580A000A092D20537407
:1009C00061747573202D0A004743433A20342E3852
:1009D0002E31204156522D4C4942433A20312E3877
:1009E0002E3073766E204156525F415243483A2072
:1009F000617672350A004F5054494F4E533A204C9D
:100A000055464120424F4F544D41474943204D4F99
:100A10005553454B45592045585452414B45592053
:100A2000434F4E534F4C4520434F4D4D414E442074
:100A30004E4B524F203531320A004255494C443A10
:100A400020756E6B6E6F776E202831343A35373AE9
:100A50003136204D61792031332032303136290A48
:100A6000005649443A203078464545442845726747
:100A70006F446F7820455A29205049443A203078F5
:100A800031333037284572676F446F7820455A29D3
:100A9000205645523A203078303030310A004445F3
:100AA00053433A20742E6D2E6B2E206B6579626F46
:100AB000617264206669726D7761726520666F721B
:100AC000204572676F646F780A000A092D20566509
:100AD0007273696F6E202D0A000A092D20436F6E14
:100AE000736F6C65202D0A4553432F713A09717558
:100AF00069740A6D3A096D6F7573656B65790A00E3
:100B00000A092D204D61676963202D0A443A094482
:100B100065627567204D65737361676520546F6703
:100B2000676C650A583A094D6174726978204465AA
:100B3000627567204D6F646520546F67676C652030
:100B40002D2053686F77206B6579707265737365BC
:100B50007320696E206D61747269782067726964B0
:100B60000A4B3A094B6579626F6172642044656291
:100B7000756720546F67676C65202D2053686F7709
:100B8000206B65797072657373207265706F727413
:100B90000A4D3A094465627567204D6F757365208B
:100BA000546F67676C650A563A0956657273696FC8
:100BB0006E0A533A095374617475730A433A0941D2
:100BC0006374697661746520436F6E736F6C652022
:100BD0004D6F64650A46312D4631303A09537769C5
:100BE00074636820746F204C6179657220302D39F0
:100BF0002028463130203D204C30290A302D393A0A
:100C00000953776974636820746F204C6179657249
:100C100020302D390A4553433A0953776974636884
:100C200020746F204C6179657220302028616C74CB
:100C300065726E617465206B65792031290A4752AF
:100C40004156453A0953776974636820746F204CA4
:100C50006179657220302028616C7465726E6174F0
:100C600065206B65792032290A50415553453A0970
:100C70004A756D7020746F20426F6F746C6F616481
:100C8000657220285265736574290A453A095072C5
:100C9000696E7420454550524F4D205365747469F8
:100CA0006E67730A4E3A094E4B524F20546F676776
:100CB0006C650A5A3A09536C656570204C454420AE
:100CC000546573740A000A002575002E6E6B726FEE
:100CD0003A20000A002575002E737761705F62610B
:100CE000636B736C6173685F6261636B7370616384
:100CF000653A20000A002575002E737761705F67E2
:100D0000726176655F6573633A20000A002575009D
:100D10002E6E6F5F6775693A20000A002575002EF8
:100D2000737761705F72616C745F726775693A2086
:100D3000000A002575002E737761705F6C616C741A
:100D40005F6C6775693A20000A002575002E6361A3
:100D500070736C6F636B5F746F5F636F6E74726FD1
:100D60006C3A20000A002575002E737761705F636E
:100D70006F6E74726F6C5F636170736C6F636B3AEC
:100D800020000A0025303258006B65796D61705F74
:100D9000636F6E6669672E7261773A20000A0025DC
:100DA00075002E6D6F7573653A20000A0025750079
:100DB0002E6B6579626F6172643A20000A002575B6
:100DC000002E6D61747269783A20000A0025750062
:100DD0002E656E61626C653A20000A00253032583B
:100DE0000064656275675F636F6E6669672E726126
:100DF000773A20000A0025750064656661756C7499
:100E00005F6C617965723A20003F004E4B524F3A59
:100E1000206F66660A004E4B524F3A206F6E0A00F2
:100E20000A6D6F7573653A206F66660A000A6D6F0A
:100E30007573653A206F6E0A000A6B6579626F619F
:100E400072643A206F66660A000A6B6579626F61A8
:100E500072643A206F6E0A000A6D61747269783AA2
:100E6000206F66660A000A6D61747269783A206FB5
:100E70006E0A000A64656275673A206F66660A004A
:100E80000A64656275673A206F6E0A000A0A4A753D
:100E90006D70696E6720746F20626F6F746C6F6124
:100EA0006465722E2E2E2000433E20006565636F20
:100EB0006E6669673A0A00536C656570204C45445C
:100EC00020546573740A0000000000000000000058
:100ED0000000010204060A0F17202C3A4A5D7187B0
:100EE0009DB3C7DAE9F5FCFFFCF5E9DAC7B39D87E6
:100EF000715D4A3A2C20170F0A0604020100000017
:100F0000000000000000000011241FBECFEFDAE057
:100F1000DEBFCDBF04B603FE24C08091F4019091E2
:100F2000F501A091F601B091F7018730904BA740F1
:100F3000B04BB9F41092F4011092F5011092F60141
:100F40001092F70114BE84B7877F84BF88E10FB683
:100F5000F89480936000109260000FBEE0E0FFE321
:100F6000099511E0A0E0B1E0E6E8FDE502C00590DA
:100F70000D92A433B107D9F721E0A4E3B1E001C099
:100F80001D92A43FB207E1F70E94CF100C94C12E2E
:100F90000C940000FF93EF93E0913401F091350140
:100FA000309709F00995EF91FF910895FC01859123
:100FB000803011F0EFDFFBCF0895FF27E0E230E251
:100FC00047FF0CC0419597FF09C0EDE26095709511
:100FD00080959095611D711D811D911D27FF02C097
:100FE000219530E350E2AA27660F771F881F991FCB
:100FF000AA1FA41710F0A41B63955A95A9F7AA304D
:1010000008F0A95FA05DAF93F395611571058105A7
:10101000910541F7ED3211F4EF93F395F21718F4BF
:101020003F93F395FBCF8F91B5DFFA95E1F70895E4
:10103000E991F9918591803021F0853219F0AADF8C
:10104000F9CF089520E0E89455915532C1F350331B
:1010500011F4689455915A3348F4505390F3220F89
:10106000022E220F220F200D250FF4CF0EF4219512
:1010700089919991533619F3533729F1533559F121
:10108000BC0188279927E8945C3621F489919991CD
:1010900068945591543639F446EF7EF077FF0DC0D1
:1010A0008FEF9FEF0AC055374AE039F0583540E1DD
:1010B00021F0523642E009F00895FF93EF937DDF6F
:1010C000EF91FF91B7CFFF93EF93FC0181918030B7
:1010D000B9F360DFFBCFFF93EF9368DFF1CFDF93CE
:1010E000CF93CDB7DEB72596A3DFCF91DF910895DB
:1010F00061110BC0FC018281882321F085EE0E94E2
:101100009E1703C085EE0E94661880E090E0089567
:1011100008956091B6017091B7018091B8019091E6
:10112000B9010E94EE2156985E9825982D98269830
:101130002E9827982F98813019F0823021F0089549
:10114000259A2D9A0895269A2E9A08950C94890826
:1011500056985E9825982D9826982E9827982F981F
:101160008FEF90E0909389008093880090938B009C
:1011700080938A0090938D0080938C00259A2D9AFD
:101180002FEF80E792E0215080409040E1F700C0CF
:101190000000269A2E9A2FEF80E792E0215080409F
:1011A0009040E1F700C00000279A2F9A2FEF80E7C8
:1011B00092E0215080409040E1F700C00000259867
:1011C0002D982FEF80E792E0215080409040E1F78A
:1011D00000C0000026982E982FEF80E792E0215063
:1011E00080409040E1F700C0000027982F98569863
:1011F0005E9825982D9826982E9827982F980895D0
:1012000089EA8093800089E08093810024982C985B
:101210003F988AB18F748AB96E98479A8BB1806B68
:101220008BB9769A0E94A8080C94880880E2809373
:1012300000018091360181110EC00E94650981E094
:10124000809336012FEF83ED90E321508040904052
:10125000E1F700C0000080E40E946B098093000168
:1012600081112EC00E94950980930001811128C030
:101270000E94950980930001811122C08FE30E9492
:1012800095098093000181111BC00E948D0980E4A3
:101290000E946B0980930001811112C08CE00E94B2
:1012A00095098093000181110BC00E9495098093DC
:1012B0000001811105C08FE30E9495098093000110
:1012C0000E948D098091000108951092B9008AE072
:1012D0008093B800089594EA9093BC009091BC006C
:1012E00097FFFCCF9091B900987F983021F0903112
:1012F00011F081E008958093BB0084E88093BC00E6
:101300008091BC0087FFFCCF8091B900887F883135
:1013100011F0803471F780E0089584E98093BC0077
:101320008091BC0084FDFCCF08958093BB0084E8CD
:101330008093BC008091BC0087FFFCCF9091B900E6
:10134000987F81E0983209F480E0089584E88093E2
:10135000BC008091BC0087FFFCCF8091BB0008954A
:1013600080910001811115C080E40E946B09809377
:10137000000181110CC082E10E9495098093000157
:10138000811105C08FEF0E949509809300010E9492
:101390008D0984B1807F84B985B1807F85B98AB198
:1013A000837F8AB98BB1837F8BB93E984698089525
:1013B0000E941609809300010E94B00980B38C70CE
:1013C00080BB81B3836F81BBE6E4F1E0A8E3B1E0C9
:1013D00011921D9281E0E435F807D1F70C940009D1
:1013E0009F92AF92BF92CF92DF92EF92FF920F93B4
:1013F0001F93CF93DF93809100018823E1F08091C8
:1014000037018F5F80933701811115C08CE693E01F
:101410000E94D6070E94160980930001882329F0B4
:1014200082E593E00E94D60706C08EE393E00E9417
:10143000D6070E94A80808E311E0C0E0D0E0BB2472
:10144000B39482E0A82ECC24C394D12C2FE2E22EB8
:1014500023E0F22EC73000F580910001811162C0B7
:1014600080E40E946B0980930001811112C082E127
:101470000E9495098093000181110BC0C6010C2EBA
:1014800001C0880F0A94EAF780950E94950980931D
:1014900000010E948D0946C0CA30A1F028F4C8306E
:1014A00059F0C93061F005C0CC3089F070F0CD3012
:1014B00089F0209A289810C0219A29980DC0229A64
:1014C0002A980AC0239A2B9807C0529A01C0539AAF
:1014D0005B9802C03E9A4698E0EAEA95F1F78FB130
:1014E00079997FC092E081708B25892B7C9B02C00B
:1014F00090E001C094E0892B7D9B02C090E001C088
:1015000098E0892B7E9B02C090E001C090E1892B7E
:101510009FB19095991F9927991F9295990F907E49
:10152000892B10C080910001811170C080E40E945D
:101530006B0980930001882309F455C0912C0E9407
:101540008D09892DF8019081981739F18083809158
:101550000101882301F18091D30180FF04C084E35D
:1015600093E00E94D6078091D30180FF0CC0809148
:1015700001011F928F93FF92EF920E946F080F90CC
:101580000F900F900F908091D30180FF04C08DE2E7
:1015900093E00E94D607A09201010E94B009219613
:1015A0000F5F1F4FCE30D10509F054CF809101015C
:1015B000882371F1815080930101882339F08FE9EC
:1015C0009FE00197F1F700C0000022C0A6E4B1E05F
:1015D000E8E3F1E081918D9391E0E634F907D1F7EA
:1015E00017C090E080CF83E10E94950980930001AD
:1015F0008111A4CF81E40E946B09809300018111C5
:101600009DCF0E94A609982E909499CF80E09ACF02
:101610000E94A60881E0DF91CF911F910F91FF906A
:10162000EF90DF90CF90BF90AF909F900895E82FFC
:10163000F0E0EA5BFE4F80810895CF92DF92EF9257
:10164000FF920F931F93CF93DF9386E193E00E9465
:10165000D60736E4E32E31E0F32EC0E0D0E041E1DE
:10166000C42E43E0D42E08E013E0DF93CF93DF9243
:10167000CF920E946F088EE093E00E94D607F70198
:1016800081917F0190E00E9453229F938F931F933B
:101690000F930E946F0886E093E00E94D607219680
:1016A0008DB79EB708960FB6F8949EBF0FBE8DBF3C
:1016B000CE30D105D1F6DF91CF911F910F91FF90E0
:1016C000EF90DF90CF900895089596E0799FF00114
:1016D000112494E5899FE00DF11D1124E60FF11D01
:1016E000EE0FFF1FE25FFE4F859194910895880FE2
:1016F000991F86579040FC01859194910895880F19
:10170000991F865F9E4FFC018591949108950F93D8
:101710001F93CF93DF93EC01811520E3920730F5FF
:10172000811530E2930708F0B1C08B3B910588F436
:10173000883A910508F058C0853A910508F049C0EB
:101740008430910508F043C08130910509F4C6C189
:10175000C2C18F3F910509F0D0F5803F910508F097
:1017600092C0805E9109089790F1B5C1C11581E5DD
:10177000D807A8F4C23090E5D90708F0A3C0C11576
:1017800020E5D20709F486C008F092C0C11580E4B4
:10179000D80708F0A0C18E011127106CE0C1C11557
:1017A00090E8D90758F4C11520E7D20708F08FC197
:1017B000C11530E6D30708F427C18DC1C11580E9F2
:1017C000D80708F088C18E011F70106AC8C18E0149
:1017D000C6C1853A910509F484C1863A910509F498
:1017E00083C103E810E4BBC1883A910509F47FC1C5
:1017F000893A910509F47EC18A3A910509F47DC1BF
:101800008B3A910509F47CC18C3A910509F47BC1AE
:101810008D3A910509F47AC1803B910509F479C1AB
:101820008E3A910509F478C18F3A910509F477C190
:10183000813B910509F476C1823B910509F475C19C
:10184000833B910509F474C1843B910509F473C18C
:10185000853B910509F472C1863B910509F471C17C
:10186000873B910509F470C1883B910509F46FC16C
:10187000893B910509F46EC18A3B910509F06DC160
:101880000AE216E46CC18C01106569C19F700E9468
:101890007F0B66C10E94231B9FEF24E33CE0915025
:1018A00020403040E1F700C000000E94162357C1DD
:1018B00086E893E00E94D6078091D30181608093EF
:1018C000D3014DC10E94C624811102C00E94AC24E4
:1018D0000E94E32490E09093F4018093F301C230DE
:1018E00080E5D80721F48091F301816086C0C4307F
:1018F00090E5D90721F48091F30182607EC0C63063
:1019000020E5D20721F48091F301846076C0C830CD
:1019100030E5D30719F48091F30127C0CA3080E580
:10192000D80721F48091F301806167C0CC3090E545
:10193000D90721F48091F30180625FC0CE3020E5A9
:10194000D20721F48091F301806457C0C03130E5A3
:10195000D30721F48091F30180684FC0C23180E544
:10196000D80729F48091F3018460886046C0C330B1
:1019700090E5D90721F48091F3018E7F3EC0C530F8
:1019800020E5D20721F48091F3018D7F36C0C73066
:1019900030E5D30721F48091F3018B7F2EC0C9304D
:1019A00080E5D80719F48091F30126C0CB3090E58B
:1019B000D90721F48091F3018F7E1FC0CD3020E53F
:1019C000D20721F48091F3018F7D17C0CF3030E52D
:1019D000D30721F48091F3018F7B0FC0C13180E5E3
:1019E000D80721F48091F3018F7707C0C331D04528
:1019F00031F48091F3018B7F877F8093F301809195
:101A0000F3010E94E724ABC08D2F99278F7099278F
:101A100081309105E9F48E01037011279C0102C009
:101A2000220F331F0A95E2F789011C68CE01E4E01A
:101A3000880F991FEA95E1F788279370082B192BD7
:101A4000F3E0CC0FDD1FFA95E1F7C076DD272CC05F
:101A50008230910529F41C2F0027016F106A7FC086
:101A60008330910561F4CE018370992701E010E085
:101A700002C0000F111F8A95E2F71C680EC0843067
:101A80009105A9F4CE018370992701E010E002C00E
:101A9000000F111F8A95E2F71A6863E0CC0FDD1F73
:101AA0006A95E1F7C07ED7700C2B1D2B58C085308E
:101AB000910529F41C2F0027046F106A50C0069767
:101AC00009F04DC0CF71DD271C2F002702C08E0109
:101AD0001F70106244C000E010E041C001E010E05F
:101AE0003EC001E810E43BC002E810E438C002EE5A
:101AF00014E435C009EE14E432C00AEE14E42FC039
:101B000005EB14E42CC006EB14E429C007EB14E445
:101B100026C00CEC14E423C00DEC14E420C003E850
:101B200015E41DC00AE815E41AC002E915E417C05F
:101B300004E915E414C001E216E411C003E216E45E
:101B40000EC004E216E40BC005E216E408C006E28B
:101B500016E405C007E216E402C000E014E4C80180
:101B6000DF91CF911F910F91089596E0799FF00139
:101B7000112494E5899FE00DF11D1124E60FF11D5C
:101B8000EE0FFF1FE25FFE4F85919491803E91051D
:101B9000E0F4803C910558F58133910509F46FC05C
:101BA00048F48932910509F463C08A32910509F439
:101BB0006DC072C089339105E9F082389105D1F08A
:101BC0008533910509F44DC067C0833E910581F1CD
:101BD00038F4803E9105B9F0823E9105D9F05CC0A1
:101BE000863E910561F1873E9105A1F155C00E94A5
:101BF000770B08952091F30120FD02C021FF4CC016
:101C000080EE90E049C08091F30180FFF9CF89E335
:101C100090E042C08091F30182FF0EC08091F301F9
:101C200084FF03C080E090E037C083EE90E034C0D2
:101C30008091F30182FFF2CF82EE90E02DC080917F
:101C4000F30183FF0BC08091F30184FDEBCF87EE9E
:101C500090E022C08091F30183FFF5CF86EE90E003
:101C60001BC08091F30185FF07C089E290E014C09A
:101C70008091F30185FFF9CF85E390E00DC080915D
:101C8000F30186FF07C08AE290E006C08091F3016D
:101C900086FFF9CF81E390E00E94870B08950895B5
:101CA0000C944F0E8091670108959FB7F89410929D
:101CB00056019FBF9091EA01943009F058C090916D
:101CC000E9009F702091EC0020FF02C020E801C0D5
:101CD00020E0292B94E09093E9009091EB0090FF95
:101CE00043C09091EE0097FF3FC09091540199231B
:101CF00021F09091E80095FF37C01092540196E0D2
:101D00003091E80035FD15C03091EA01343061F5BD
:101D10003091EB0035FD28C0915021F481E0809393
:101D2000540122C0EFE9FFE03197F1F700C0000055
:101D3000E7CF8093F1008091E80085FD0AC0809193
:101D4000E80080FFFCCF8091E8008E778093E80068
:101D500006C08FB7F89491E0909356018FBF2F7013
:101D60002093E90080E008952F702093E9008FEF21
:101D70000895CF93DF9300D01F92CDB7DEB72091A7
:101D8000EA01243019F523E029839B838A83209379
:101D9000E9008FEF9091E800815095FD06C095ED28
:101DA0009A95F1F700008111F5CF8091E80085FF49
:101DB0000DC040E050E063E070E0CE0101960E946B
:101DC00088118091E8008E778093E8000F900F9043
:101DD0000F90DF91CF910895CF93DF9300D01F92A2
:101DE000CDB7DEB72091EA01243021F522E0298326
:101DF0009B838A8383E08093E9008FEF9091E800D2
:101E0000815095FD06C095ED9A95F1F7000081117E
:101E1000F5CF8091E80085FF0DC040E050E063E021
:101E200070E0CE0101960E9488118091E8008E77C3
:101E30008093E8000F900F900F90DF91CF9108955D
:101E40002091EA012430F1F422E02093E9002FEF01
:101E50003091E800215035FD06C035ED3A95F1F797
:101E600000002111F5CF2091E80025FF0BC040E0D4
:101E700050E065E070E00E9488118091E8008E7764
:101E80008093E8000895CF93DF93EC018091EA01FD
:101E9000843009F047C080910C018823E1F08091E3
:101EA0000D018823C1F085E08093E9008FEF9091C8
:101EB000E800815095FD06C095E19A95F1F7000084
:101EC0008111F5CF8091E80085FF2CC040E050E003
:101ED00060E170E017C081E08093E9008FEF90919E
:101EE000E800815095FD06C095ED9A95F1F7000048
:101EF0008111F5CF8091E80085FF14C040E050E0EB
:101F000068E070E0CE010E9488118091E8008E7731
:101F10008093E80080E1FE01A7E5B1E001900D9219
:101F20008A95E1F7DF91CF9108958DEB93E00E94C0
:101F3000D6078091E901811109C00E941A130E94FD
:101F400077138091E20084608093E200089589EB2A
:101F500093E00E94D6071092E901089585EB93E083
:101F60000C94D60781EB93E00E94D6070C94DD2CED
:101F70008DEA93E00E94D6070E94AD220E94E32CD6
:101F80000E9413160C94500E809155018F5F809320
:101F9000550162E30E94512E911135C010925501F6
:101FA00080915601882379F18091EA01843049F5C6
:101FB0008091E9008F709091EC0090FF02C090E852
:101FC00001C090E0982B84E08093E9008091EB00C1
:101FD00080FF14C08091EE0087FF10C08091E80060
:101FE00085FF03C01092F100F9CF8091E80080FFD7
:101FF00005C08091E8008E778093E8009F709093F1
:10200000E90010925601089542E061EC81E00E94DF
:10201000941242E061EC82E00E94941242E061EC92
:1020200083E00E94941242E261EC84E00E949412E8
:1020300042E161EC85E00C9494128091EC018330D4
:1020400009F455C030F4813071F0823009F48EC04B
:1020500008958A3009F47AC08B3009F460C0893061
:1020600009F09CC020C08091EB01813A09F096C034
:102070008091E800877F8093E8008091EF01909144
:10208000F001892B21F060E080E090E003C060E186
:1020900087E591E070E00E94D1118091E8008B7794
:1020A0008093E80008958091EB01813209F076C0B9
:1020B0008091EF019091F001009719F0049709F0D9
:1020C0006DC08091E800877F8093E8008091E800F0
:1020D00082FD05C08091EA018111F8CF5FC0809137
:1020E000F100809367018091E8008B7753C0809165
:1020F000EB01813A09F052C08091EF019091F0011B
:10210000892B09F04BC08091E800877F8093E8001D
:102110008091E80080FFFCCF80910C0136C0809157
:10212000EB018132D9F58091EF019091F001892B7B
:10213000A9F58091E800877F8093E8000E94C9128A
:102140008091ED0180930C010C94231B8091EB0195
:10215000813221F58091E800877F8093E8000E941A
:10216000C9128091EE018093680108958091EB017E
:10217000813AA1F48091E800877F8093E800809104
:10218000E80080FFFCCF809168018093F10080918E
:10219000E8008E778093E8000C94C912089584B704
:1021A000877F84BF88E10FB6F89480936000109217
:1021B00060000FBE90E080E80FB6F8948093610055
:1021C000909361000FBE0E949C160E941A130E94F9
:1021D00077138091E20084608093E20085E59EE0C1
:1021E0000E94E92178940E94F1150E949E1682E0D7
:1021F00091E00E940E160E94CB2C8CE993E00E9485
:10220000D6078091EA01853089F488E993E00E943D
:10221000D6070E946D228091E801882391F30E94E5
:102220009822882371F30E947211EBCF0E94CC1682
:10223000E8CF292F332723303105A9F06CF4213062
:10224000310509F442C02230310509F043C08DE662
:1022500090E025EF33E042C021323105C9F022324F
:10226000310519F137C099278130910541F082304D
:10227000910541F0892B71F5E1EFF3E005C0E9ED3F
:10228000F3E002C0E1ECF3E0849190E09F0126C00E
:10229000643000F5E62FF0E0EE0FFF1FEE5DFE4F1D
:1022A0002081318189E090E019C0643098F4E62FF4
:1022B000F0E0DF01AA0FBB1FA65EBE4F2D913C913F
:1022C000EA5EFE4F808190E009C082E190E022E664
:1022D00034E004C080E090E020E030E0FA01318397
:1022E0002083089580E189BD82E189BD09B400FEA3
:1022F000FDCF8091D8008F7D8093D8008091E00041
:1023000082608093E0008091E00081FDFCCF089521
:10231000CF92DF92EF92FF920F931F93CF93DF93B1
:102320007C018B01EA010E94EA12811131C02097E1
:1023300031F088819981081B190BE80EF91EC12C18
:10234000D12C0115110519F18091E80085FD14C00B
:102350008091E8008E778093E800209741F0888193
:1023600099818C0D9D1D9983888385E011C00E9401
:10237000EA12882331F30CC0F70181917F01809329
:10238000F10001501109FFEFCF1ADF0ADACF80E028
:10239000DF91CF911F910F91FF90EF90DF90CF9041
:1023A00008952091F1013091F2012617370748F086
:1023B0006115710539F42091E8002E772093E8002B
:1023C00001C0B901FC0120E061157105B9F18091EE
:1023D000EA01882309F440C0853009F43FC08091A8
:1023E000E80083FD3DC08091E80082FF06C0809137
:1023F000E80082FF26C080E008958091E80080FF19
:10240000E3CF2091F3008091F20090E0922B6115D0
:10241000710551F08830910538F421912093F10035
:10242000615071090196F3CF21E0089709F020E08F
:102430008091E8008E778093E800C6CF2111C7CF46
:10244000D6CF8091EA01882339F0853039F0809128
:10245000E80083FFCCCF04C082E0089583E00895B4
:1024600081E008952091F1013091F201261737079C
:1024700048F06115710539F42091E8002E7720931A
:10248000E80001C0B901FC0120E061157105C1F14E
:102490008091EA01882309F441C0853009F440C0E5
:1024A0008091E80083FD3EC08091E80082FF06C075
:1024B0008091E80082FF27C080E008958091E800C5
:1024C00080FFE3CF2091F3008091F20090E0922B07
:1024D0006115710559F08830910540F424912093DD
:1024E000F1003196615071090196F2CF21E0089711
:1024F00009F020E08091E8008E778093E800C5CF56
:102500002111C6CFD5CF8091EA01882339F08530DB
:1025100039F08091E80083FFCBCF04C082E00895BA
:1025200083E0089581E00895982F973058F59093AF
:10253000E900981739F07091EC002091ED0050916E
:10254000F00003C0242F762F50E021FF19C03091F6
:10255000EB003E7F3093EB003091ED003D7F3093F8
:10256000ED003091EB0031603093EB007093EC00A4
:102570002093ED005093F0002091EE0027FF07C05C
:102580009F5FD3CF8F708093E90081E0089580E052
:1025900008958091EB0187FD05C08091E80080FFE0
:1025A0000EC012C08091E80082FD05C08091EA0152
:1025B0008111F8CF08958091E8008B7708C0809151
:1025C000EA018111EACF08958091E8008E77809327
:1025D000E80008958091E4009091E50045E620919F
:1025E000EC0020FF21C02091E80020FD21C02091B7
:1025F000EA01222389F0253089F02091EB0025FDA6
:102600000FC02091E4003091E5002817390739F315
:10261000415041F0C901E3CF82E0089583E008957D
:1026200081E0089584E008952091E80022FFDFCF43
:1026300080E008950E9488130E949013E0EEF0E07D
:10264000808181608083E8EDF0E080818F778083F6
:1026500019BCA7EDB0E08C918E7F8C9380818F7E2A
:1026600080831092E90108950F931F93CF93DF9316
:102670000E9488130E949013C8EDD0E088818F7764
:10268000888388818068888388818F7D888319BC4E
:102690001092EA011092E6011092E8011092E7010F
:1026A00000EE10E0F80180818B7F8083888181605B
:1026B000888342E060E080E00E949412E1EEF0E066
:1026C00080818E7F8083E2EEF0E080818160808374
:1026D000808188608083F80180818E7F80838881FB
:1026E00080618883DF91CF911F910F910895E8ED6C
:1026F000F0E080818F7E8083E7EDF0E08081816073
:10270000808384E082BF81E08093E9010C943413DC
:10271000E8EDF0E080818E7F80831092E2000895E2
:102720001092DA001092E10008951F920F920FB6F6
:102730000F9211242F933F934F935F936F937F9347
:102740008F939F93AF93BF93EF93FF938091E1009B
:1027500082FF0BC08091E20082FF07C08091E10000
:102760008B7F8093E1000E94C40F8091DA0080FF8C
:102770001FC08091D80080FF1BC08091DA008E7F3F
:102780008093DA008091D90080FF0DC080E189BD7F
:1027900082E189BD09B400FEFDCF81E08093EA01AA
:1027A0000E94950F05C019BC1092EA010E94A70F64
:1027B0008091E10080FF19C08091E20080FF15C088
:1027C0008091E2008E7F8093E2008091E200806140
:1027D0008093E2008091D80080628093D80019BC79
:1027E00085E08093EA010E94B20F8091E10084FFAE
:1027F00030C08091E20084FF2CC080E189BD82E17D
:1028000089BD09B400FEFDCF8091D8008F7D8093F3
:10281000D8008091E1008F7E8093E1008091E200FA
:102820008F7E8093E2008091E20081608093E200DD
:102830008091E601882311F084E007C08091E300D5
:1028400087FF02C083E001C081E08093EA010E941B
:10285000B80F8091E10083FF29C08091E20083FFDF
:1028600025C08091E100877F8093E10082E0809322
:10287000EA011092E6018091E1008E7F8093E100F1
:102880008091E2008E7F8093E2008091E20080617F
:102890008093E20042E060E080E00E949412809128
:1028A000F00088608093F0000E94AE0FFF91EF91DE
:1028B000BF91AF919F918F917F916F915F914F9158
:1028C0003F912F910F900FBE0F901F9018951F9260
:1028D0000F920FB60F9211242F933F934F935F9354
:1028E0006F937F938F939F93AF93BF93CF93EF9308
:1028F000FF93C091E900CF708091EC001092E90045
:102900008091F000877F8093F00078940E94A31458
:102910001092E9008091F00088608093F000C093ED
:10292000E900FF91EF91CF91BF91AF919F918F916E
:102930007F916F915F914F913F912F910F900FBEBB
:102940000F901F9018951F93CF93DF93CDB7DEB7ED
:10295000AA970FB6F894DEBF0FBECDBFEBEEF1E045
:102960008091F100819321E0E33FF207C9F70E94D3
:102970001D108091E80083FF1CC12091EB01309174
:10298000EC01832F90E08A30910508F012C1FC0120
:10299000EA5AFF4F0C94712E203881F0223809F04A
:1029A00008C18091EF018F708093E9008091EB0066
:1029B00085FB882780F91092E90006C08091E70125
:1029C0009091E801911182609091E800977F909337
:1029D000E8008093F1001092F100C5C0822F8D7F36
:1029E00009F0E7C0222319F0223061F0E2C08091A3
:1029F000ED01813009F0DDC0333009F080E08093D3
:102A0000E80128C08091ED01811124C02091EF01DF
:102A10002F7009F4CEC02093E9008091EB0080FF75
:102A200019C08091EB00333011F4806211C08061D5
:102A30008093EB0081E090E0022E01C0880F0A94A1
:102A4000EAF78093EA001092EA008091EB00886038
:102A50008093EB001092E9008091E800877F86C0A8
:102A60002111A7C01091ED011F778091E3008078BC
:102A7000812B8093E3008091E800877F8093E800BA
:102A80000E94C9128091E80080FFFCCF8091E30092
:102A900080688093E300112311F083E001C082E09D
:102AA0008093EA0186C02058223008F082C08091CD
:102AB000ED019091EE018C3D23E0920779F583E0E2
:102AC0008A838AE289834FB7F894DE01139620E067
:102AD0003EE051E2E32FF0E050935700E49120FFF5
:102AE00003C0E295EF703F5FEF708E2F90E0EA3009
:102AF00010F0C79601C0C0968D939D932F5F24312F
:102B000049F74FBF8091E800877F8093E8006AE231
:102B100070E0CE0101960E94D11114C0AE014F5F4A
:102B20005F4F6091EF010E941911009709F441C0B5
:102B30002091E800277F2093E800BC0189819A81D9
:102B40000E9432128091E8008B778093E80031C0B8
:102B5000203879F58091E800877F8093E8008091A4
:102B6000E6018093F1008091E8008E778093E80081
:102B70000E94C9121EC021111CC09091ED0192301B
:102B8000C0F48091E800877F8093E8009093E6018D
:102B90000E94C9128091E601811104C08091E30076
:102BA00087FF02C084E001C081E08093EA010E94B7
:102BB00004108091E80083FF0AC08091E800877FBD
:102BC0008093E8008091EB0080628093EB00AA96EE
:102BD0000FB6F894DEBF0FBECDBFDF91CF911F912E
:102BE0000895CF938091EA018823B1F08091E900A4
:102BF0008F709091EC0090FF02C090E801C090E0CF
:102C0000C92FC82B1092E9008091E80083FD0E9433
:102C1000A314CF70C093E900CF91089590936E01F3
:102C200080936D010895E0916D01F0916E013097F0
:102C300021F00190F081E02D099480E00895FF9249
:102C40000F931F93CF93DF938C01E0916D01F0916F
:102C50006E01309799F10280F381E02D0995809102
:102C6000D30182FF2BC080FF04C087E795E00E945C
:102C7000D607E80180E1F82E01E715E08091D30145
:102C800080FF0BC088811F928F931F930F930E9428
:102C90006F080F900F900F900F90FA942196F110FB
:102CA000EDCF8091D30180FF09C08FE695E0DF91E1
:102CB000CF911F910F91FF900C94D607DF91CF9188
:102CC0001F910F91FF900895E0916D01F0916E01B9
:102CD000309721F00480F581E02D0994089520912A
:102CE0006B0130916C018217930771F090936C0126
:102CF00080936B01E0916D01F0916E01309721F0AE
:102D00000680F781E02D09940895209169013091A2
:102D10006A018217930771F090936A0180936901A9
:102D2000E0916D01F0916E01309721F00084F18502
:102D3000E02D0994089508950C949B160E94B322E7
:102D40000E94D8090C947923CF93C82F8091D30186
:102D500082FF1EC080FF04C080E995E00E94D60774
:102D60008091D30180FF0CC01F92CF932BE835E0F8
:102D70003F932F930E946F080F900F900F900F902A
:102D80008091D30180FF04C089E895E00E94D607B6
:102D90008C2FCF910C94500ECF92DF92EF92FF9236
:102DA0000F931F93CF93DF93CDB7DEB72B970FB65B
:102DB000F894DEBF0FBECDBF0E94F00930E7E32ECE
:102DC00031E0F32E00E010E0C02E802F0E94170BA0
:102DD000F701D1907F01D826B1F40F5F1F4F0E305D
:102DE000110591F78FEF89838A831B820E94BC2291
:102DF0008160782F9D838C8349815A816B818D817D
:102E00000E946F1741C09091D30191FF04C08B873E
:102E10000E941D0B8B8520E030E04D2D50E0922F5D
:102E2000BA01022E02C0759567950A94E2F760FF19
:102E300025C02E83CF82EE24E394F12C02C0EE0C49
:102E4000FF1C9A95E2F790E08E219F2121E0892BCB
:102E500009F420E028870E94BC228160782F9A879D
:102E600089874E815F8168858A850E946F17F80186
:102E7000E059FE4F80818E25808306C02F5F3F4F33
:102E80002630310561F6A9CF0E94E72610916F0127
:102E90000E9413161817A1F00E94131680936F0159
:102EA0002B960FB6F894DEBF0FBECDBFDF91CF914A
:102EB0001F910F91FF90EF90DF90CF900C94A4168C
:102EC0002B960FB6F894DEBF0FBECDBFDF91CF912A
:102ED0001F910F91FF90EF90DF90CF900895CF93C7
:102EE000DF93CDB7DEB72B970FB6F894DEBF0FBEDA
:102EF000CDBF4F83588769877A878B87DE0111960C
:102F000086E0FD0111928A95E9F785E0FE0137968A
:102F100001900D928A95E1F749815A816B817C81FC
:102F20008D819E810E94F31D2B960FB6F894DEBF13
:102F30000FBECDBFDF91CF9108950895CF93C82FD5
:102F4000882309F4C1C0823859F40E94131681FD08
:102F5000BBC089E30E94CE200E94BA2189E30CC045
:102F6000833879F40E94131680FDAEC083E50E9479
:102F7000CE200E94BA2183E50E941F21CF910C949C
:102F8000BA21843859F40E94131682FD9DC087E44B
:102F90000E94CE200E94BA2187E4EECF8CEF8C0FE6
:102FA000813A48F48C2F0E94762B81118DC08C2F92
:102FB0000E94CE20E3CF80E28C0F883048F4C770A7
:102FC00081E001C0880FCA95EAF70E947121D6CF2F
:102FD0008BE58C0F833078F4C53A29F0C63A31F48A
:102FE00082E890E005C081E890E002C083E890E0CC
:102FF000CF910C946F1688E58C0F833108F064C074
:10300000C83A39F1C93A41F1CA3A49F1CB3A51F1DA
:10301000CC3A59F1CD3A61F1C03B69F1CE3A71F148
:10302000CF3A79F1C13B81F1C23B89F1C33B91F1C8
:10303000C43B99F1C53BA1F1C63BA9F1C73BB1F136
:10304000C83BB9F1C93BC1F1CA3BC9F58AE292E07C
:1030500038C082EE90E035C089EE90E032C08AEE52
:1030600090E02FC085EB90E02CC086EB90E029C06B
:1030700087EB90E026C08CEC90E023C08DEC90E0D4
:1030800020C083E891E01DC08AE891E01AC082E97F
:1030900091E017C084E991E014C081E292E011C090
:1030A00083E292E00EC084E292E00BC085E292E0FF
:1030B00008C086E292E005C087E292E002C080E0AC
:1030C00090E0CF910C948516CF910895882309F450
:1030D0004BC0823859F40E94131681FF45C089E322
:1030E0000E94CE200E94BA2189E30CC0833871F47B
:1030F0000E94131680FF38C083E50E94CE200E94F4
:10310000BA2183E50E941F210C94BA21843859F416
:103110000E94131682FF28C087E40E94CE200E94DE
:10312000BA2187E4EFCF9CEF980F913A58F390E2E1
:10313000980F983050F4877091E001C0990F8A95EC
:10314000EAF7892F0E947721DFCF9BE5980F933014
:1031500020F480E090E00C946F16885A833120F4BC
:1031600080E090E00C9485160895882321F00E9459
:1031700071210C94BA210895882321F00E947721AF
:103180000C94BA2108958F929F92AF92BF92CF92E2
:10319000DF92EF92FF920F931F93CF93DF9300D0B4
:1031A00000D000D0CDB7DEB77C0185E0F701DE01AD
:1031B000119601900D928A95E1F7F701D080118167
:1031C0000281B580B2949FE0B92223813481232B00
:1031D00039F01F3F39F481E0FFEFDF1203C003C075
:1031E00081E001C080E080FD07C2C7010E949D17F9
:1031F000D9821A8369817A81802F0E949920182FA1
:10320000C92E0E944D200E94201F01110E948E2174
:103210000E94C720882379F0002369F080E2810FA3
:10322000883048F082E00E94B0200E94C720DD2450
:10323000D394D82601C0D12CEC2DE295EF70F0E0AC
:10324000E05AFF4F0C94712E8C2D807F9C2D9F7027
:10325000B92E882319F0B29480EFB822002389F0A8
:10326000BB2009F48BC180E2810F883020F48B2DC4
:103270000E94712103C08B2D0E9481210E94BA21DE
:103280007DC1812F0E946618BB2009F490C1105E99
:103290008B2D183018F40E94772102C00E948721DC
:1032A0000E94BA2184C12C2D207F8C2D8F7020325A
:1032B00011F08295807F112319F01130B9F020C0F0
:1032C000002349F0BB2009F410C191E0B9120DC1EF
:1032D0000E94A1216CC1BB2021F0E1E0BE1609F4DF
:1032E00066C18E830E94A4218E8105C1002329F02E
:1032F000F1E0FB1508F45BC1F8C0B11058C1FBC088
:10330000002321F0BB2009F4F0C038C1BB2009F430
:10331000F2C03AC12C2D26952695237030E0211558
:10332000310521F02130310561F041C1002321F048
:10333000812F9C2D937002C080E090E00E946F1658
:1033400036C1002321F0812F9C2D937002C080E0B4
:1033500090E00E9485162BC1812F002319F00E9456
:103360006D2502C00E94D5250E945A2620C18C2DB1
:10337000837009F04FC001111AC1212F22952695A3
:103380002770220F220F812F8F70882E912CA12C55
:10339000B12C022E04C0880C991CAA1CBB1C0A94D8
:1033A000D2F714FF10C06FE070E080E090E004C03E
:1033B000660F771F881F991F2A95D2F76095709521
:1033C0008095909503C060E070E0CB012C2D269590
:1033D00026952370422F50E04230510569F043306A
:1033E000510589F0682979298A299B29413051059D
:1033F00071F00E94451FDBC0682979298A299B2921
:103400000E945F1FD4C00E94451FC501B4010E94E5
:103410002B1FCDC0002319F08C2D817001C0869523
:10342000882309F4C4C0212F229526952770220FE6
:10343000220F812F8F70882E912CA12CB12C022E5F
:1034400004C0880C991CAA1CBB1C0A94D2F714FF58
:1034500010C06FE070E080E090E004C0660F771F5E
:10346000881F991F2A95D2F7609570958095909541
:1034700003C060E070E0CB012C2D269526952370CB
:10348000422F50E04230510569F04330510589F038
:10349000682979298A299B294130510571F00E94B8
:1034A000192085C0682979298A299B290E943320FF
:1034B0007EC00E941920C501B4010E94FF1F77C081
:1034C000412F50E0FA01E05EF109E531F10508F025
:1034D00051C0E059FF4F0C94712E1F708C2D8F71CD
:1034E000002331F00E94981F812F0E94B5185FC001
:1034F0000E94B91F812F0E94BC1859C0002339F0C7
:10350000B11055C08C2D8F710E94DE1F50C081E01C
:103510008B1508F44CC0F6CF002339F08C2D8F7139
:103520000E94981F44C00023C9F38C2D8F710E9404
:10353000B91F3DC0002329F08C2D8F710E94831F7D
:1035400036C00E94791F33C0002351F01C2D1F711B
:10355000812F0E94981F63E0812F0E94A72027C01F
:1035600081E00E94B02091E09B1508F582E00E9466
:10357000B0201DC0002331F0BB2081F2812F0E94BA
:103580009E1715C0BB2089F2812F0E9466180FC0BC
:103590004C2D4F70612FC7010E9478080E94A01E19
:1035A00006C04C2D4F70612FC7010E94640BDD20B7
:1035B00019F10E94A32080FD1FC0F70112820E9412
:1035C0009D200E94981FC7010E94C3180E949D2041
:1035D00026960FB6F894DEBF0FBECDBFDF91CF9118
:1035E0001F910F91FF90EF90DF90CF90BF90AF9021
:1035F0009F908F900C94B91F26960FB6F894DEBF5B
:103600000FBECDBFDF91CF911F910F91FF90EF9033
:10361000DF90CF90BF90AF909F908F9008950E94C1
:103620008E210E949E210E9463210E94BA210E9445
:1036300088270E945A2680E090E00E946F1680E062
:1036400090E00C9485160E947E210C940F1B0E9422
:103650008E20292F22952F7030E02C3031054CF42C
:103660002A3031056CF42250310922303105B0F492
:1036700007C02C30310571F02F30310559F00EC0E4
:10368000803F31F018F4803E48F402C0843F31F4AA
:1036900081E0089593FB882780F9089580E00895DC
:1036A000CF93DF9300D000D01F92CDB7DEB70F903D
:1036B0000F900F900F900F90DF91CF910895CF93BF
:1036C000DF9300D000D000D0CDB7DEB726960FB67E
:1036D000F894DEBF0FBECDBFDF91CF9108951F9349
:1036E000CF93DF93C0917E0116E080917F01C817D0
:1036F00099F0D0E01C9FF0011D9FF00D1124E058BF
:10370000FE4F4081518162817381848195810E9445
:103710005F1B2196C770E9CFDF91CF911F9108956C
:103720004091B0015091B1016091B2017091B3012B
:103730008091B4019091B5010C945F1BCF9380915F
:10374000B50182958F7009F05FC08091B201882326
:1037500009F45AC020917E01A0917F016091B001CF
:103760007091B1018091B3019091B40131E06F3F4C
:1037700009F030E0B32FC6E02A1709F445C00097DE
:1037800021F07F3F21F44B2F03C041E001C040E016
:1037900030E040FD35C0C29FF001C39FF00D112401
:1037A000E058FE4F418174132BC04081641328C040
:1037B0004281411125C0438154814817590710F4B3
:1037C00041505109481B590B483C5105C8F48091A0
:1037D000B5018F7080618093B50186E0829FF00112
:1037E000839FF00D1124EB57FE4F80818F70806115
:1037F000808380EB91E00E94C318CF910C946F1BE3
:103800002F5F3F4F2770B8CFCF910895CF92DF92AF
:10381000EF92FF920F931F93CF93DF93CDB7DEB755
:1038200062970FB6F894DEBF0FBECDBF8C0185E066
:10383000F801DE011D9601900D928A95E1F7D801FD
:103840004C9111965C91119712966C911297139668
:10385000ED90FC9014977091B001E091B10120912E
:10386000B3013091B4012115310531F0EF3F31F44E
:1038700081E07F3F19F403C081E001C080E0B82FF0
:10388000B170CB2E80FD6CC1D090B201DD2009F467
:10389000F5C0F091B501E216F30638F0C701821BBE
:1038A000930B883C910548F09BC0209530952E0DD8
:1038B0003F1D283C310508F093C08F2F807F09F011
:1038C00052C0E51314C0741312C0D62E61110FC07C
:1038D000FF70F061F093B5010E94901B80EB91E0C6
:1038E0000E94C3188091B501F80185836CC1EF284F
:1038F00031F05F3F31F481E04F3F19F403C081E0C4
:1039000001C080E080FD03C081E0862701C080E027
:10391000F82FF170FF2E80FF1CC080917E01209156
:103920007F0136E0821709F428C190E0389FF0014A
:10393000399FF00D1124E058FE4F7181571306C0D6
:103940007081471303C07281671303C001968770AB
:10395000E9CFD62E662309F436C18091B501816086
:103960008093B50153C0E51308C0741306C06111FC
:1039700004C0D8011596FC93AEC04D875E878D8537
:103980009E856A8B0E94271B6A89882329F1D62E7F
:10399000662311F12091B501822F82958F7090E0FE
:1039A00002970CF460C08091B0019091B1019887AA
:1039B0008F831986FB86EA862C87CE01079651C035
:1039C000E51731F14D875E878D859E856A8B0E9454
:1039D000271B6A8981112EC0C8010E94C318A4C088
:1039E0008F2F807F69F77E2DF98AE88A89890E9466
:1039F000501B80EB91E00E94C318E0EBF1E086E001
:103A0000DF011D928A95E9F70E94901BD12CDBC043
:103A10007413D8CF6111D6CFD8011596FC93C80185
:103A20000E94C318E0EBF1E086E0DF011D928A9569
:103A3000E9F7C9C0D62E662379F22091B501822F0D
:103A400082958F7090E0029774F08091B001909110
:103A5000B1019A8389831B82FD82EC822E83CE0181
:103A600001960E94C31886E0F801A0EBB1E0019036
:103A70000D928A95E1F70E949E1B6FC0E216F30635
:103A800028F0C701821B930B9C0104C02095309540
:103A90002E0D3F1D283C310508F052C0D62E66235E
:103AA00009F49ACFE5132CC074132AC08091B50194
:103AB00080FD1DC0982F92959F70C9F0D801159672
:103AC0008C9315979F3039F09F5F9295907F8F7000
:103AD000892B15968C93C8010E94C31886E0F801C3
:103AE000A0EBB1E001900D928A95E1F736C086E037
:103AF000F801A0EBB1E001900D928A95E1F763C067
:103B00004D875E878D859E850E94271B882379F0CF
:103B100086E0F801A0EBB1E001900D928A95E1F703
:103B20000E949E1B0E94901BDD24D3944CC0809168
:103B3000B50181608093B501C8010E94C31843C0DC
:103B40007E2DF98AE88A89890E94501BE0EBF1E01A
:103B500086E0DF011D928A95E9F70E94901B33C031
:103B6000662309F439CF4D875E878D859E850E9437
:103B7000271B882309F430CFCBCF4D875E878D85F7
:103B80009E850E948E20292F22952F7030E02230B2
:103B900031052CF49F7041F0811106C00CC0243017
:103BA00031052CF49F7049F4805E883020F0C80104
:103BB0000E94C318CF2CDC2C06C0D80115969C910E
:103BC000907F91F7F8CF8D2D62960FB6F894DEBFF7
:103BD0000FBECDBFDF91CF911F910F91FF90EF905E
:103BE000DF90CF9008951F93CF93DF93CDB7DEB7CB
:103BF0002C970FB6F894DEBF0FBECDBF4F8358870A
:103C000069877A878B879C87CE0107960E94061C5E
:103C10008823C1F02F8138858A859B85892B31F0D7
:103C20003F3F11F080E003C02F3FE1F781E08111B9
:103C300047C04F81588569857A858B859C850E9410
:103C40005F1B3EC086E0FE013796DE0111960190B3
:103C50000D928A95E1F7FF81E8854A855B854115DC
:103C6000510531F0EF3F31F481E0FF3F19F403C01B
:103C700081E001C080E080FD23C020917F0130E021
:103C8000C90101968770992760917E0170E08617BF
:103C90009707F1F1F983EA835D834C8396E0929F65
:103CA000D001939FB00D1124A058BE4FFE01319654
:103CB00001900D929A95E1F780937F010E946F1B0E
:103CC00016E080917E0190917F01891779F1189F0C
:103CD000C001112480589E4F0E94061C882331F198
:103CE000E0917E011E9FF0011124E058FE4F4081BB
:103CF000518162817381848195810E945F1B8091D3
:103D00007E0190E001968770992780937E01D9CF3C
:103D10000E94231B10927F0110927E01E0EBF1E0E4
:103D200086E0DF011D928A95E9F7CACF2C960FB67F
:103D3000F894DEBF0FBECDBFDF91CF911F910895E4
:103D4000EF92FF920F931F93CF93DF93FC010097A5
:103D500009F46FC0F12CEE24E394EF0121968491D5
:103D6000843740F4843008F055C0813081F08230CF
:103D700021F15FC0853709F447C0C0F19CE7980F77
:103D8000903708F056C08F770E94661845C08F01A3
:103D90000E5F1F4FFE01849190E2980F983050F40F
:103DA0008770FE2D01C0FF0F8A95EAF78F2F0E94C2
:103DB000912115C00E949E1714C08F010E5F1F4FE6
:103DC000FE01849190E2980F983068F48770FE2D80
:103DD00001C0FF0F8A95EAF78F2F0E9497210E945A
:103DE000BA21E80119C00E946618FBCFCF010296E4
:103DF000FE01C491CC2361F0EFE9FFE03197F1F7C8
:103E000000C00000C150F6CFCF010296FE01F49031
:103E1000EC0102C00E949E178F2D882341F0EFE92C
:103E2000FFE03197F1F700C000008150F6CFFE01AE
:103E300094CFDF91CF911F910F91FF90EF90089554
:103E400008956093BA017093BB018093BC01909375
:103E5000BD010C940F1B0F931F930091BA01109199
:103E6000BB012091BC013091BD01062B172B282BE3
:103E7000392B0093BA011093BB012093BC013093FE
:103E8000BD011F910F910C940F1B0F931F93009175
:103E9000BA011091BB012091BC013091BD010623F4
:103EA0001723282339230093BA011093BB012093D1
:103EB000BC013093BD011F910F910C940F1B0F9308
:103EC0001F930091BA011091BB012091BC01309168
:103ED000BD0106271727282739270093BA01109319
:103EE000BB012093BC013093BD011F910F910C9435
:103EF0000F1B1092B6011092B7011092B8011092E8
:103F0000B9010C940F1B41E050E060E070E004C088
:103F1000440F551F661F771F8A95D2F74093B6014D
:103F20005093B7016093B8017093B9010C940F1BC3
:103F300041E050E060E070E004C0440F551F661F90
:103F4000771F8A95D2F78091B6019091B701A09121
:103F5000B801B091B901842B952BA62BB72B809378
:103F6000B6019093B701A093B801B093B9010C9436
:103F70000F1B41E050E060E070E004C0440F551FAB
:103F8000661F771F8A95D2F740955095609570957A
:103F90008091B6019091B701A091B801B091B9019B
:103FA00084239523A623B7238093B6019093B7016A
:103FB000A093B801B093B9010C940F1B41E050E0FD
:103FC00060E070E004C0440F551F661F771F8A959C
:103FD000D2F78091B6019091B701A091B801B0914C
:103FE000B90184279527A627B7278093B601909318
:103FF000B701A093B801B093B9010C940F1B0F93B4
:104000001F930091B6011091B7012091B801309132
:10401000B901062B172B282B392B0093B6011093CF
:10402000B7012093B8013093B9011F910F910C94FF
:104030000F1B0F931F930091B6011091B7012091B0
:10404000B8013091B901062317232823392300939F
:10405000B6011093B7012093B8013093B9011F91B5
:104060000F910C940F1B0F931F930091B6011091A9
:10407000B7012091B8013091B901062717272827E9
:1040800039270093B6011093B7012093B8013093FC
:10409000B9011F910F910C940F1B0895CF92DF92DD
:1040A000EF92FF920F931F93CF93DF93EC01C09099
:1040B000BA01D090BB01E090BC01F090BD018091AD
:1040C000B6019091B701A091B801B091B901C82A89
:1040D000D92AEA2AFB2A0FE110E0B701A601002E37
:1040E00004C076956795579547950A94D2F740FD99
:1040F00005C00150110988F780E007C0BE01802F7C
:104100000E94B50D0197A9F3802FDF91CF911F91E8
:104110000F91FF90EF90DF90CF900895CF93DF93B2
:10412000EC010E944E20BE010E94B50DDF91CF919F
:104130000895CB010E948E2008958091BE0185953F
:104140008595859508958091BE018770089598E0C2
:10415000899F90011124622B6093BE010C94981FDB
:104160004091BE01809584238093BE01982F977063
:1041700069F450E0282F332727FD30954217530765
:1041800029F08595859585950C94B91F0895909192
:10419000BE01977081E009F480E0089590910C01D0
:1041A000992361F190910D01992341F1982F9695F2
:1041B000969596959F3088F4E0910E01F0910F014D
:1041C000E90FF11D877021E030E001C0220F8A95D0
:1041D000EAF78181822B818308959091D30190FF2A
:1041E0002DC01F928F9381EC95E09F938F930E9437
:1041F0006F080F900F900F900F90089540910E014F
:1042000050910F0120E030E09FEFFA01E20FF31F21
:104210006281681799F09F3F19F4611101C0922FD4
:104220002F5F3F4F2E30310581F79F3F39F0FA0164
:10423000E90FF11D97FDFA958283089508959091F5
:104240000C01992369F190910D01992349F1982F5F
:104250009695969596959F3090F4E0910E01F09189
:104260000F01E90FF11D877021E030E001C0220F3E
:104270008A95EAF7209581812823218308959091DA
:10428000D30190FF1FC01F928F9383EA95E09F9305
:104290008F930E946F080F900F900F900F900895CA
:1042A00040910E0150910F0120E030E0FA01E20F41
:1042B000F31F9281981301C012822F5F3F4F2E305F
:1042C0003105A1F7089581E090E0E0910E01F091B1
:1042D0000F01E80FF91F1082019680319105A9F7AF
:1042E00008959091D201982B9093D20108958095D2
:1042F0009091D20198239093D20108951092D20107
:1043000008959091D101982B9093D10108958095B3
:104310009091D10198239093D10108951092D101E9
:1043200008959091D001982B9093D0010895809595
:104330009091D00198239093D00108951092D001CC
:1043400008958093BF0108951092BF010895409190
:104350000E0150910F0120E030E080E0FA01E20F01
:10436000F31F918191118F5F2F5F3F4F2F303105E8
:10437000A9F70895E0910E01F0910F018091D2010B
:104380008083E0910E01F0910F0180819091D10125
:10439000892B8083E0910E01F0910F018081909133
:1043A000D001892B80839091BF01992361F0E09126
:1043B0000E01F0910F018081892B80830E94A7213B
:1043C00081111092BF0180910E0190910F010C9408
:1043D0001F1690933501809334010895CF92DF9298
:1043E000EF92FF920F931F936C01EE24FF24C114F0
:1043F000D104E104F10421F46B017C0180E001C0EF
:1044000080E133272F2D1E2D0D2D011511052105BE
:10441000310519F0885F6801790197018601A4E0F0
:104420003695279517950795AA95D1F7011511058A
:104430002105310519F08C5F68017901970186012A
:10444000F2E03695279517950795FA95D1F701155E
:1044500011052105310519F08E5F68017901B70159
:10446000A6017695679557954795452B462B472B83
:1044700009F08F5F1F910F91FF90EF90DF90CF9029
:1044800008958295982F9C7C96959695837344E029
:10449000849F90011124922B892F8A7A8695957595
:1044A000990F892B08951F93CF93DF931F92CDB758
:1044B000DEB799830E944122182F9981892F0E948B
:1044C0004122212F30E0322F2227A901482BCA0197
:1044D0000F90DF91CF911F9108958091EA01843070
:1044E00021F11092D40120E488E190E00FB6F89415
:1044F000A895809360000FBE2093600080E00E942A
:10450000500E83B7817F846083BF83B7816083BF90
:104510007894889583B78E7F83BF88E10FB6F8942F
:1045200080936000109260000FBE08950895089572
:10453000CF930E9496220E94F0090E949722C0E029
:104540008C2F0E94170B811105C0CF5FCE30C1F7B1
:1045500080E001C081E0CF9108950E94231B0E945A
:1045600013160C94500E82E084BD93E095BD9AEF33
:1045700097BD80936E0008952FB7F8948091D50170
:104580009091D601A091D701B091D8012FBF089585
:10459000CF92DF92EF92FF920F931F932FB7F89471
:1045A0004091D5015091D6016091D7017091D80109
:1045B0002FBF6A017B01EE24FF248C0120E030E054
:1045C000C016D106E206F30610F441505109481B0B
:1045D000590BCA011F910F91FF90EF90DF90CF9080
:1045E00008951F920F920FB60F9211248F939F93ED
:1045F000AF93BF938091D5019091D601A091D7013F
:10460000B091D8010196A11DB11D8093D501909361
:10461000D601A093D701B093D801BF91AF919F91DC
:104620008F910F900FBE0F901F9018950E941A1334
:10463000F8942FEF87EA91E6215080409040E1F70F
:1046400000C0000087E090EBDC018093F4019093C0
:10465000F501A093F601B093F7012CE088E190E01A
:104660000FB6F894A895809360000FBE2093600069
:10467000FFCFEF92FF920F931F93CF93DF93E82E1C
:10468000F12C8F2D0E94170BC0E0D0E0082F10E016
:1046900098010C2E02C0359527950A94E2F720FD6B
:1046A00005C02196C630D10599F709C06C2F7F2D22
:1046B00080E00E94650BE812F4CF81E005C0F3941E
:1046C0008EE0F812DECF80E0DF91CF911F910F9145
:1046D000FF90EF900895CF93C82F8CE20E9439236A
:1046E000882321F08C2FCF910C94392380E0CF9137
:1046F0000895CF930E94C624811102C00E94AC2469
:1047000086EE95E00E94D607C5E6C15049F00E94AA
:10471000F0098FE39CE90197F1F700C00000F5CFA5
:104720008FED95E00E94D60789E20E946B238111EC
:1047300011C18AE20E946B2381110E94AC2485E0A2
:104740000E946B2381110E9416230E94D124809322
:10475000D30187E00E946B23882399F18BE10E94AB
:104760006B23882351F09091D30191FB882780F926
:1047700021E0822780FB91F922C08EE00E946B230A
:10478000882351F09091D30192FB882780F921E092
:10479000822780FB92F913C080E10E946B239091E5
:1047A000D301882341F093FB882780F921E08227F9
:1047B00080FB93F904C0892F809580FB90F990933A
:1047C000D3018091D3010E94D5240E94E3248093D9
:1047D000F30180EE0E946B23882341F08091F30166
:1047E000982F909590FB80F98093F30189E30E94C4
:1047F0006B23882359F09091F30191FB882780F96E
:1048000021E0822780FB91F99093F30182EE0E94D0
:104810006B23882359F09091F30192FB882780F94C
:1048200021E0822780FB92F99093F30186EE0E94AB
:104830006B23882359F09091F30193FB882780F92B
:1048400021E0822780FB93F99093F30183EE0E948D
:104850006B23882359F09091F30194FB882780F90A
:1048600021E0822780FB94F99093F30185E30E9475
:104870006B23882359F09091F30195FB882780F9E9
:1048800021E0822780FB95F99093F30181E30E9458
:104890006B23882359F09091F30196FB882780F9C8
:1048A00021E0822780FB96F99093F30181E10E9439
:1048B0006B23882359F09091F30197FB882780F9A7
:1048C00021E0822780FB97F99093F3018091F30117
:1048D0000E94E7248091F30187FB882780F9809369
:1048E0000D0187E20E946B23C82F8EE10E946B238B
:1048F0008111C2608FE10E946B238111C46080E24C
:104900000E946B238111C86081E20E946B23811198
:10491000C06182E20E946B238111C06283E20E9427
:104920006B238111C06484E20E946B23882311F001
:10493000C06802C0CC2329F08C2F0E94DE246C2F8B
:1049400003C00E94DA24682F70E080E090E0CF91ED
:104950000C94211FCF9108956DEE7EEF80E090E0E2
:104960000E94AB2E60E082E090E00E94992E60E011
:1049700083E090E00E94992E60E084E090E00E9445
:10498000992E60E085E090E00C94992E80E090E014
:104990000E94932E21E08D3E9E4F09F020E0822F51
:1049A000089582E090E00C948B2E682F82E090E0D6
:1049B0000C94992E83E090E00C948B2E682F83E06A
:1049C00090E00C94992E84E090E00C948B2E682F4C
:1049D00084E090E00C94992E8091DB0180FF0BC065
:1049E0006091130185E0689FB0011124759567956A
:1049F000759567952AC081FF09C06091130185E014
:104A0000689FB0011124759567951FC082FF07C08C
:104A10006091130185E0689FB001112416C0409198
:104A2000DC014423C9F060911201461788F72091F8
:104A3000130185E0289F90011124429FC001439FEC
:104A4000900D112470E00E945D2E6038710540F4D5
:104A50006115710539F002C065E070E0862F089598
:104A60008FE7089581E008958091DB0180FF08C001
:104A70006091110170E0759567957595679521C0F6
:104A800081FF06C06091110170E07595679519C0AE
:104A900082FF04C06091110170E010C08091DC01C0
:104AA0008823C1F0609110018617A0F79091110141
:104AB000989FC001112470E00E945D2E603871053E
:104AC00028F46115710521F0862F08958FE7089568
:104AD00081E0089561E070E0F4CF803F21F40E940E
:104AE000EC24819504C0813F29F40E94EC2480933A
:104AF000DF010895823F21F40E94EC24819504C0D7
:104B0000833F29F40E94EC248093DE010895893FBD
:104B100019F40E94342505C08A3F31F40E943425DF
:104B200081958093E00108958B3F21F40E94342504
:104B3000819504C08C3F29F40E9434258093E101C3
:104B40000895843F21F48091DD01816017C0853F85
:104B500021F48091DD01826011C0863F21F48091B3
:104B6000DD0184600BC0873F21F48091DD01886006
:104B700005C0883F31F48091DD0180618093DD01C3
:104B800008958D3F21F48091DB0181600BC08E3F41
:104B900021F48091DB01826005C08F3F29F4809170
:104BA000DB0184608093DB010895803F39F48091BC
:104BB000DF0187FF6CC01092DF0169C0813F29F4DB
:104BC0008091DF011816BCF362C09091DE01823F34
:104BD00029F497FF5CC01092DE0159C0833F19F49D
:104BE0001916CCF354C0893F41F48091E0011816A6
:104BF0000CF04DC01092E0014AC08A3F29F4809128
:104C0000E00187FF44C0F6CF8B3F39F48091E1018A
:104C100087FF3DC01092E1013AC08C3F29F480919A
:104C2000E1011816BCF333C0843F21F48091DD010B
:104C30008E7F17C0853F21F48091DD018D7F11C0EB
:104C4000863F21F48091DD018B7F0BC0873F21F4EB
:104C50008091DD01877F05C0883F31F48091DD01BF
:104C60008F7E8093DD0113C08D3F21F48091DB01A5
:104C70008E7F0BC08E3F21F48091DB018D7F05C0BC
:104C80008F3F29F48091DB018B7F8093DB01809142
:104C9000DE0181110EC08091DF0181110AC0809177
:104CA000E001811106C08091E101811102C01092E2
:104CB000DC0108958091D30183FF7EC082E296E0FB
:104CC0000E94D6078091DD011F928F938DE196E0BF
:104CD0009F938F930E946F088BE196E00E94D60706
:104CE0002091DE01822F992787FD90959F932F9326
:104CF00088E196E09F938F930E946F0886E196E08B
:104D00000E94D6072091DF01822F992787FD909579
:104D10009F932F9383E196E09F938F930E946F0858
:104D200081E196E00E94D6072091E001822F992729
:104D300087FD90959F932F938EE096E09F938F939E
:104D40000E946F088CE096E00E94D6072091E10156
:104D5000822F992787FD90959F932F9389E096E066
:104D60009F938F930E946F0886E096E00E94D6077B
:104D70008091DC011F928F9383E096E09F938F9345
:104D80000E946F0881E096E00E94D6078091DB01C7
:104D90001F928F938EEF95E09F938F930E946F08E1
:104DA0008BEF95E00E94D6078DB79EB74C960FB655
:104DB000F8949EBF0FBE8DBF8DED91E00E946416EA
:104DC0000E94BC229093DA018093D90108951F9329
:104DD000CF93DF938091D9019091DA010E94C8228C
:104DE0004091DC01442321F02091140130E006C001
:104DF000209115015AE0259F9001112482179307F5
:104E000008F482C08091DE011091DF01D091E001B1
:104E1000C091E101811107C0111105C0D11103C07A
:104E2000CC2309F471C04F3F19F04F5F4093DC0170
:104E3000181624F40E94EC248093DE018091DE0198
:104E400087FF05C00E94EC2481958093DE01111636
:104E500024F40E94EC248093DF018091DF0187FF1E
:104E600005C00E94EC2481958093DF016091DE01F2
:104E7000662339F11091DF01112319F1772767FDBE
:104E80007095872F972F0E94622D23E333E343E32E
:104E90005FE30E94C62D0E942F2D6093DE01612FDB
:104EA000772767FD7095872F972F0E94622D23E348
:104EB00033E343E35FE30E94C62D0E942F2D6093EE
:104EC000DF011D1624F40E9434258093E0018091B7
:104ED000E00187FF05C00E94342581958093E001A1
:104EE0001C1624F40E9434258093E1018091E10195
:104EF00087FF05C00E94342581958093E101DF91F1
:104F0000CF911F910C945A26DF91CF911F91089554
:104F1000EDEDF1E085E0DF011D928A95E9F7109251
:104F2000DC011092DB01089585E498E00E94D60729
:104F30001F9281E08F931F9285E08F9387EF97E018
:104F40009F938F930E946F080F900F900F900F9078
:104F50000F900F9008958330E9F128F4813061F0CB
:104F6000823009F10895853009F462C008F449C01F
:104F7000863009F474C0089520911501862F90E0C1
:104F8000820F911D8F3F910520F4620F60931501F0
:104F900003C08FEF80931501809115011F928F93AD
:104FA00080E397E072C020911401862F90E0820F79
:104FB000911D8F3F910520F4620F6093140103C08F
:104FC0008FEF80931401809114011F928F938EE1D3
:104FD00097E05BC020911301862F90E0820F911D16
:104FE0008F3F910520F4620F6093130103C08FEF90
:104FF00080931301809113011F928F938BE097E0B0
:1050000044C020911201862F90E0820F911D8F3FA6
:10501000910520F4620F6093120103C08FEF80931B
:105020001201809112011F928F9386EF96E02DC09E
:1050300020911101862F90E0820F911D8F3F9105E5
:1050400020F4620F6093110103C08FEF8093110170
:10505000809111011F928F938DED96E016C02091E3
:105060001001862F90E0820F911D8F3F910520F453
:10507000620F6093100103C08FEF80931001809145
:1050800010011F928F9382EC96E09F938F930E9462
:105090006F080F900F900F900F900895833081F15B
:1050A00028F4813059F08230D1F00895853009F428
:1050B00049C0B8F1863009F456C0089580911501B1
:1050C000681720F4861B8093150102C01092150109
:1050D000809115011F928F9383EB96E054C08091CD
:1050E0001401681720F4861B8093140102C01092EB
:1050F0001401809114011F928F9381EA96E043C0BE
:1051000080911301681720F4861B8093130102C05D
:1051100010921301809113011F928F938EE896E0F5
:1051200032C080911201681720F4861B809312010F
:1051300002C010921201809112011F928F9389E791
:1051400096E021C080911101681720F4861B80939E
:10515000110102C010921101809111011F928F93D1
:1051600080E696E010C080911001681720F4861B3D
:105170008093100102C010921001809110011F92C3
:105180008F9385E496E09F938F930E946F080F9012
:105190000F900F900F900895CF93C82F1F928F9369
:1051A0002AE439E03F932F930E946F0861E070E09A
:1051B00080E090E004C0660F771F881F991FCA9592
:1051C000D2F70E94211F0F900F900F900F90CF9158
:1051D0000C94231BCF938D3109F465C0B0F58E304C
:1051E00009F4D1C100F5873009F49BC1A8F48630D9
:1051F00009F070C28091D301817F8E7F8093D301AB
:1052000089ED9AE00E94D60788EA9EE00E94D607C0
:1052100081E08093E30180C1883009F44FC08B3076
:1052200009F47CC157C2863109F4F3C138F48031E6
:1052300009F4BCC1813109F433C24CC2893109F48B
:10524000D1C18B3109F48CC145C2853309F43EC20A
:1052500048F4873209F43AC208F436C2893209F4B4
:1052600035C238C2833438F48A3308F02BC288330D
:1052700009F454C12FC2833409F428C2883409F0D8
:1052800029C20E94231B8CE89EE00E94D6079FEF54
:1052900023ED80E3915020408040E1F700C0000002
:1052A0000E94162339C187EB9EE00E94D6070E9418
:1052B000E92C0E9413160E94500E2EC18CEA9EE02B
:1052C0000E94D60789EF9DE00E94D6070E94DA244B
:1052D0001F928F9386EF9DE09F938F930E946F089C
:1052E00084EF9DE00E94D6070E94D124C82F81EE52
:1052F0009DE00E94D6071F92CF932CED3DE03F9397
:105300002F930E946F088AED9DE00E94D60780EDE2
:105310009DE00E94D6078C2F81701F928F932DECF9
:105320003DE03F932F930E946F088BEC9DE00E941D
:10533000D60781EC9DE00E94D607C1FB882780F943
:105340001F928F932EEB3DE03F932F930E946F08A7
:105350008CEB9DE00E94D60780EB9DE00E94D60773
:10536000C2FB882780F91F928F932DEA3DE03F937F
:105370002F930E946F088BEA9DE00E94D60782EA75
:105380009DE00E94D607C3FBCC27C0F91F92CF93A4
:105390008FE99DE09F938F930E946F088DE99DE0B8
:1053A0000E94D6070E94E324C82F89E89DE00E944E
:1053B000D6071F92CF9324E83DE03F932F930E949E
:1053C0006F0882E89DE00E94D60789E69DE00E9472
:1053D000D6078C2F81701F928F9326E63DE03F9376
:1053E0002F930E946F088DB79EB780960FB6F894E2
:1053F0009EBF0FBE8DBF84E69DE00E94D6078DE460
:105400009DE00E94D607C1FB882780F91F928F93E9
:105410002AE43DE03F932F930E946F0888E49DE0CB
:105420000E94D60786E39DE00E94D607C2FB88272C
:1054300080F91F928F9323E33DE03F932F930E94C7
:105440006F0881E39DE00E94D6078FE19DE00E94F6
:10545000D607C3FB882780F91F928F932CE13DE08C
:105460003F932F930E946F088AE19DE00E94D60728
:1054700080E19DE00E94D607C4FB882780F91F9237
:105480008F932DE03DE03F932F930E946F088BE0B8
:105490009DE00E94D60789EF9CE00E94D607C5FBDD
:1054A000882780F91F928F9326EF3CE03F932F933C
:1054B0000E946F0884EF9CE00E94D60788ED9CE074
:1054C0000E94D607C6FB882780F91F928F9325ED8F
:1054D0003CE03F932F930E946F0883ED9CE00E9475
:1054E000D6078BEC9CE00E94D607C7FBCC27C0F9FF
:1054F0001F92CF9388EC9CE09F938F930E946F083C
:1055000086EC9CE00E94D6078DB79EB74C960FB6EE
:10551000F8949EBF0FBE8DBFC1E0E1C080E09BE06C
:105520005EC08091D301C82FC095C170C0FB80F9C7
:105530008093D301CC2349F080E89EE00E94D607F7
:105540008091D3018660886045C083E79EE00E9419
:10555000D6078091D301897F877F8093D301DCCFE9
:105560008091D30181FBCC27C0F991E0C927C0FB12
:1055700081F98093D301CC2319F086E69EE025C003
:1055800088E59EE02CC08091D30182FBCC27C0F936
:1055900091E0C927C0FB82F98093D301CC2319F095
:1055A00089E49EE012C089E39EE019C08091D30196
:1055B00083FBCC27C0F991E0C927C0FB83F9809316
:1055C000D301CC2351F08DE29EE00E94D60780915A
:1055D000D30181608093D30182C080E29EE00E946B
:1055E000D6079ACF8AEC9AE00E94D6078EE99AE015
:1055F0000E94D60781E69AE00E94D6078AE39AE0E5
:105600000E94D60786EF99E00E94D60788EC99E0C1
:10561000E6CF8AEB99E00E94D6070E9413161F92EC
:105620008F9380EA99E09F938F930E946F088091F7
:105630000C011F928F9389E899E09F938F930E94AA
:105640006F08809168011F928F9386E799E09F937E
:105650008F930E946F0880910D011F928F9383E6B4
:1056600099E09F938F930E946F088091D50190914C
:10567000D601A091D701B091D801BF93AF939F936A
:105680008F938FE499E09F938F930E946F088DB75B
:105690009EB746960FB6F8949EBF0FBE8DBF3CCF07
:1056A0000E94231BC0910D0181E0C827C0930D010A
:1056B000CC2329F086E19EE00E94D60710C08BE043
:1056C0009EE08DCF895303C08D5101C080E00E94C0
:1056D000CC2822CF89E09EE00E94D607C0E08C2F24
:1056E000CF91089580E0089580E00895CF93C82F6A
:1056F0008091E301813081F020F0823009F44CC0C8
:1057000042C1A0910E01B0910F018C91813169F0DD
:10571000823209F03AC109C0A0910E01B0910F0187
:105720008C91813111F0823249F48C2F0E94722BBE
:1057300081112FC08C2F0E94EA282CC08C2F0E9430
:10574000742B811126C0C431E1F070F4CB3081F0AC
:10575000C031D1F40E94942782E499E00E94D607D8
:1057600082E08093E30115C0C93259F0C83361F477
:1057700089ED9AE00E94D60786E499E00E94D60758
:1057800008C01092E30103C180E499E00E94D607AB
:10579000FEC081E08170FDC0C43220F5CE3108F03A
:1057A000C0C0CB3099F1C8F4C73009F0D2C08AE04C
:1057B0008093150194E19093140193E09093130169
:1057C0008093120188E08093110188E28093100198
:1057D00086EE97E00E94D607BFC0C33149F1C431BD
:1057E000C1F0B7C0CB3409F4A9C028F4C93289F09C
:1057F000C83361F0AEC0C13509F49EC0C23509F4AA
:1058000099C0CE3409F0A5C06AE09EC00E949427DA
:10581000A3C08091E201882319F01092E2019CC09C
:1058200083EF97E00E94D60781E08093E301B1C047
:105830008DEC97E00E94D6078BEB97E00E94D6078D
:10584000809115011F928F9388EB97E09F938F9320
:105850000E946F0886EB97E00E94D60784EA97E0E3
:105860000E94D607809114011F928F9381EA97E0DE
:105870009F938F930E946F088FE997E00E94D6074D
:1058800080E997E00E94D607809113011F928F93C1
:105890008DE897E09F938F930E946F088BE897E0C5
:1058A0000E94D6078AE797E00E94D60780911201EE
:1058B0001F928F9387E797E09F938F930E946F08C3
:1058C00085E797E00E94D60780E697E00E94D6071A
:1058D000809111011F928F938DE597E09F938F9395
:1058E0000E946F088BE597E00E94D60784E497E05A
:1058F0000E94D607809110011F928F9381E497E058
:105900009F938F930E946F088FE397E00E94D607C2
:105910008DB79EB748960FB6F8949EBF0FBE8DBF49
:105920001BC0CE51EC2FF0E0E65DFE4F80818093EE
:10593000E20112C061E003C061E006C06AE080914C
:10594000E2010E94AB2708C08091E2010E944E282C
:1059500003C084EE97E013C08091E201882369F0D0
:105960001F928F938EED97E09F938F930E946F0805
:105970000F900F900F900F9004C08BED97E00E9456
:10598000D60781E006C01092E30180E002C080E00B
:1059900001CFCF910895E1E8F0E0808188608083B5
:1059A0008081816080838FB7F89493E09093890021
:1059B00090ED909388008FBF0895EFE6F0E080812E
:1059C000826080830895EFE6F0E080818D7F8083A0
:1059D0000895EFE6F0E0808192E0892780830895C2
:1059E0001F920F920FB60F9211242F933F934F9354
:1059F0005F936F937F938F939F93AF93BF93EF9337
:105A0000FF938091E4019091E50101969093E50167
:105A10008093E401811103C082E00E94500EE09166
:105A2000E501E695E695F0E0E953F14FE4918091C8
:105A3000E4018E1303C080E00E94500EFF91EF91AD
:105A4000BF91AF919F918F917F916F915F914F9196
:105A50003F912F910F900FBE0F901F90189504D07B
:105A60006894B1118DC0089570D088F09F5790F060
:105A7000B92F9927B751A0F0D1F0660F771F881F73
:105A8000991F1AF0BA95C9F712C0B13081F077D0DA
:105A9000B1E0089574C0672F782F8827B85F39F078
:105AA000B93FCCF3869577956795B395D9F73EF4D2
:105AB00090958095709561957F4F8F4F9F4F08957A
:105AC000E89409C097FB3EF4909580957095619598
:105AD0007F4F8F4F9F4F9923A9F0F92F96E9BB274E
