:100000000C9483070C94C7070C94C7070C94C7077C
:100010000C94C7070C94C7070C94C7070C94C70728
:100020000C94C7070C94C7070C9449140C941B1527
:100030000C94C7070C94C7070C94C7070C94C70708
:100040000C94C7070C948F2D0C94C7070C94C7070A
:100050000C94C7070C9492230C94C7070C94C70701
:100060000C94C7070C94C7070C94C7070C94C707D8
:100070000C94C7070C94C7070C94C7070C94C707C8
:100080000C94C7070C94C7070C94C7070C94C707B8
:100090000C94C7070C94C7070C94C7070C94C707A8
:1000A0000C94C7070C94C7070C94C7078015A215BA
:1000B0008D16A2158D16E41507168D165C166F1693
:1000C000A019A019CF19CF19071A291A511B511BB2
:1000D000341A511BDB1ADB1A441B511B511B4C1BDE
:1000E000E81AE81AE81AE81AE81AE81AE81AE81A00
:1000F000E81AE81AE81AE81AE81AE81AE81AE81AF0
:10010000FA1A081B0F1B161B201B0000F0A1290068
:100110002B00E000E100354100001E001400040047
:100120001D0034744D001F001A0016001B00E30070
:100130002A00200008000700060052002C002100C1
:1001400015000900190051004A00220017000A009A
:10015000050000006574500001540000910000008B
:10016000E3004F000154000090000000E200230073
:100170001C000B00110000002971240018000D0064
:10018000100050004B0025000C000E0036004F0000
:100190002800260012000F0037002F002B00270038
:1001A00013003342387130004E002D00310028001A
:1001B000E500C10000000100010001000100010094
:1001C00000003A001E0220022202010001003B0052
:1001D0001F0221022302010001003C002F0226021F
:1001E0002F00010001003D00300227023000010015
:1001F00001003E003102350035020000010001001F
:1002000001000000010000000100010001000000E9
:100210000100000001003F005200510024020000D4
:1002200001004000240021001E00010001004100E7
:10023000250022001F003700010042002600230095
:10024000200027000100430025022E0231002E006D
:1002500001004400450001000100010000000050C1
:100260000100010001000100000001000100F20096
:100270000100010001000100F000F1000100010097
:10028000010001000100F3000100F4000100010081
:10029000010001000100F500010001000100010062
:1002A0000100000001000100010000000100000049
:1002B0000100010001000000010000000100010038
:1002C0000100010001000000010001000100010027
:1002D0000100A9000100010001000100AC00AA001A
:1002E000B600010001000100AB00A8000100010000
:1002F0000100010001000100010001000100AE0049
:100300000100010000000A002530313662003A2069
:100310000025303258000A722F63203031323334D6
:1003200035363738394142434445460A000A0025EC
:1003300030325800626F756E6365213A20006C653B
:1003400066742073696465206174746163686564B0
:100350000A006C6566742073696465206E6F742092
:10036000726573706F6E64696E670A007472796982
:100370006E6720746F207265736574206D637032D0
:10038000333031380A000A44454255473A20656EF9
:1003900061626C65642E0A005B735D004B65796277
:1003A0006F6172642073746172742E0A005B575D12
:1003B000005B535D005B525D005B445D005B435D31
:1003C0000016034500720067006F0044006F00785C
:1003D00000200045005A0000001603450072006727
:1003E000006F0044006F007800200045005A0000B4
:1003F000000403090409026D00040100A0FA0904C5
:1004000000000103010100092111010001223F0048
:100410000705810308000A09040100010301020025
:10042000092111010001224D000705820308000A7D
:10043000090402000103000000092111010001224A
:1004400036000705830308000A09040300010300BE
:100450000000092111010001223900070584031061
:1004600000011201100100000008EDFE0713010059
:100470000102000105010906A101050719E029E7AC
:100480001500250195087501810205081901290546
:1004900095057501910295017503910105071900F4
:1004A000297715002501957875018102C00501099C
:1004B00080A101850216010026B7001A01002AB7A3
:1004C00000751095018100C0050C0901A10185038B
:1004D000160100269C021A01002A9C027510950143
:1004E0008100C005010902A1010901A10005091946
:1004F00001290515002501950575018102950175F4
:100500000381010501093009311581257F950275A7
:1005100008810609381581257F9501750881060532
:100520000C0A38021581257F950175088106C0C027
:1005300005010906A101050719E029E715002501B4
:100540009508750181029501750881010508190159
:10055000290595057501910295017503910105071E
:100560001900296815002568950675088100C00ADC
:10057000002530325820006B6579626F6172645FCC
:100580007265706F72743A20004B6579626F6172A8
:1005900064204C4544732073746174653A20257857
:1005A0000A0064656C5F6B65795F6269743A206309
:1005B000616E27742064656C3A20253032580A0039
:1005C0006164645F6B65795F6269743A2063616E30
:1005D0002774206164643A20253032580A00646F21
:1005E0006E652E0A00626F6F676D616769632073C5
:1005F00063616E3A202E2E2E2000290A00257500F8
:100600002F002575005D280025640020002564006A
:10061000200025640020002564007C00253032582D
:10062000006D6F7573656B6579205B62746E7C78A5
:100630002079207620685D287265702F61636C29AF
:100640003A205B006D6B5F776865656C5F74696D00
:10065000655F746F5F6D6178203D2025640A006DD1
:100660006B5F776865656C5F6D61785F73706565FA
:1006700064203D2025640A006D6B5F74696D655FC1
:10068000746F5F6D6178203D2025640A006D6B5F9B
:100690006D61785F7370656564203D2025640A0094
:1006A0006D6B5F696E74657276616C203D202564A8
:1006B0000A006D6B5F64656C6179203D2025640ADA
:1006C000006D6B5F776865656C5F74696D655F74FD
:1006D0006F5F6D6178203D2025640A006D6B5F7748
:1006E0006865656C5F6D61785F7370656564203DFA
:1006F0002025640A006D6B5F74696D655F746F5FC0
:100700006D6178203D2025640A006D6B5F6D617816
:100710005F7370656564203D2025640A006D6B5F22
:10072000696E74657276616C203D2025640A006DE7
:100730006B5F64656C6179203D2025640A000A00C6
:10074000257500363A20776865656C5F74696D655C
:100750005F746F5F6D61783A20000A00257500357F
:100760003A20776865656C5F6D61785F7370656569
:10077000643A20000A00257500343A2074696D65DA
:100780005F746F5F6D61783A20000A002575003351
:100790003A206D61785F73706565643A20000A00E5
:1007A000257500323A20696E74657276616C286D29
:1007B00073293A20000A00257500313A2064656CDF
:1007C0006179282A31306D73293A20000A092D20D9
:1007D00056616C756573202D0A004D3E004D2564F1
:1007E0003E20003F007365742064656661756C741B
:1007F0000A00433E200077686572652064656C746A
:10080000613A20637572736F723D25642C2077689E
:1008100065656C3D25640A53656520687474703A9B
:100820002F2F656E2E77696B6970656469612E6F15
:1008300072672F77696B692F4D6F7573655F6B6595
:1008400079730A000A092D204D6F7573656B657900
:10085000202D0A4553432F713A09717569740A3185
:100860003A0964656C6179282A31306D73290A323E
:100870003A09696E74657276616C286D73290A3362
:100880003A096D61785F73706565640A343A09747A
:10089000696D655F746F5F6D61780A353A097768D5
:1008A00065656C5F6D61785F73706565640A363A83
:1008B00009776865656C5F74696D655F746F5F6DFE
:1008C00061780A0A703A097072696E742076616CF8
:1008D0007565730A643A09736574206465666175A9
:1008E0006C74730A75703A092B310A646F776E3A2B
:1008F000092D310A706775703A092B31300A70671B
:10090000646F776E3A092D31300A0A737065656439
:10091000203D2064656C7461202A206D61785F73CE
:1009200070656564202A2028726570656174202FC7
:100930002074696D655F746F5F6D6178290A003F8F
:10094000004D3E2000433E20004C25640A0074699F
:100950006D65725F636F756E743A202530346C5824
:100960000A006B6579626F6172645F6E6B726F3AD9
:100970002025580A006B6579626F6172645F696453
:100980006C653A2025580A006B6579626F61726464
:100990005F70726F746F636F6C3A2025580A00683D
:1009A0006F73745F6B6579626F6172645F6C6564AD
:1009B0007328293A2025580A000A092D205374610A
:1009C000747573202D0A004743433A20342E382E85
:1009D00031204156522D4C4942433A20312E382E77
:1009E0003073766E204156525F415243483A20613F
:1009F0007672350A004F5054494F4E533A204C55A9
:100A0000464120424F4F544D41474943204D4F5599
:100A100053454B45592045585452414B4559204365
:100A20004F4E534F4C4520434F4D4D414E44204E69
:100A30004B524F203531320A004255494C443A203E
:100A4000756E6B6E6F776E202831323A32323A32E1
:100A500036204A756E2020372032303136290A0080
:100A60005649443A20307846454544284572676FD8
:100A7000446F7820455A29205049443A2030783133
:100A8000333037284572676F446F7820455A2920E4
:100A90005645523A203078303030310A00444553C0
:100AA000433A20742E6D2E6B2E206B6579626F6138
:100AB0007264206669726D7761726520666F72205C
:100AC0004572676F646F780A000A092D20566572B7
:100AD00073696F6E202D0A000A092D20436F6E7313
:100AE0006F6C65202D0A4553432F713A0971756962
:100AF000740A6D3A096D6F7573656B65790A000A42
:100B0000092D204D61676963202D0A443A09446527
:100B1000627567204D65737361676520546F676701
:100B20006C650A583A094D617472697820446562AF
:100B30007567204D6F646520546F67676C65202D65
:100B40002053686F77206B65797072657373657376
:100B500020696E206D617472697820677269640A19
:100B60004B3A094B6579626F617264204465627526
:100B70006720546F67676C65202D2053686F77205E
:100B80006B65797072657373207265706F72740A29
:100B90004D3A094465627567204D6F757365205441
:100BA0006F67676C650A563A0956657273696F6EAE
:100BB0000A533A095374617475730A433A094163DD
:100BC00074697661746520436F6E736F6C65204D38
:100BD0006F64650A46312D4631303A09537769749E
:100BE000636820746F204C6179657220302D392044
:100BF00028463130203D204C30290A302D393A0921
:100C000053776974636820746F204C617965722032
:100C1000302D390A4553433A095377697463682084
:100C2000746F204C6179657220302028616C746586
:100C3000726E617465206B65792031290A475241D3
:100C400056453A0953776974636820746F204C6184
:100C500079657220302028616C7465726E617465EC
:100C6000206B65792032290A50415553453A094A8B
:100C7000756D7020746F20426F6F746C6F61646566
:100C80007220285265736574290A453A09507269C1
:100C90006E7420454550524F4D2053657474696EF3
:100CA00067730A4E3A094E4B524F20546F67676C78
:100CB000650A5A3A09536C656570204C45442054C6
:100CC0006573740A000A002575002E6E6B726F3A08
:100CD00020000A002575002E737761705F626163E2
:100CE0006B736C6173685F6261636B737061636582
:100CF0003A20000A002575002E737761705F6772D5
:100D00006176655F6573633A20000A002575002EE1
:100D10006E6F5F6775693A20000A002575002E73B3
:100D20007761705F72616C745F726775693A2000F9
:100D30000A002575002E737761705F6C616C745FBB
:100D40006C6775693A20000A002575002E63617092
:100D5000736C6F636B5F746F5F636F6E74726F6CD5
:100D60003A20000A002575002E737761705F636F6B
:100D70006E74726F6C5F636170736C6F636B3A203B
:100D8000000A0025303258006B65796D61705F6331
:100D90006F6E6669672E7261773A20000A002575CA
:100DA000002E6D6F7573653A20000A002575002EC0
:100DB0006B6579626F6172643A20000A00257500E4
:100DC0002E6D61747269783A20000A002575002E34
:100DD000656E61626C653A20000A00253032580069
:100DE00064656275675F636F6E6669672E726177AF
:100DF0003A20000A0025750064656661756C745FB1
:100E00006C617965723A20003F004E4B524F3A2098
:100E10006F66660A004E4B524F3A206F6E0A000A08
:100E20006D6F7573653A206F66660A000A6D6F759F
:100E300073653A206F6E0A000A6B6579626F6172A2
:100E4000643A206F66660A000A6B6579626F6172A8
:100E5000643A206F6E0A000A6D61747269783A20F4
:100E60006F66660A000A6D61747269783A206F6E67
:100E70000A000A64656275673A206F66660A000AAE
:100E800064656275673A206F6E0A000A0A4A756DDA
:100E900070696E6720746F20626F6F746C6F61642D
:100EA00065722E2E2E2000433E20006565636F6E16
:100EB0006669673A0A00536C656570204C454420AA
:100EC000546573740A000000000000000000000078
:100ED00000010204060A0F17202C3A4A5D71879D13
:100EE000B3C7DAE9F5FCFFFCF5E9DAC7B39D877112
:100EF0005D4A3A2C20170F0A060402010000000088
:100F000000000000000011241FBECFEFDAE0DEBFBA
:100F1000CDBF04B603FE24C080910002909101026F
:100F2000A0910202B09103028730904BA740B04BD2
:100F3000B9F4109200021092010210920202109273
:100F4000030214BE84B7877F84BF88E10FB6F8948C
:100F500080936000109260000FBEE0E0FFE309950F
:100F600011E0A0E0B1E0E4ECFEE502C005900D92D6
:100F7000A433B107D9F722E0A4E3B1E001C01D9288
:100F8000A030B207E1F70E9483110C94602F0C94FB
:100F90000000FF93EF93E0913401F0913501309719
:100FA00009F00995EF91FF910895FC01859180303A
:100FB00011F0EFDFFBCF0895FF27E0E230E247FFBB
:100FC0000CC0419597FF09C0EDE260957095809542
:100FD0009095611D711D811D911D27FF02C02195F6
:100FE00030E350E2AA27660F771F881F991FAA1FB8
:100FF000A41710F0A41B63955A95A9F7AA3008F01E
:10100000A95FA05DAF93F395611571058105910509
:1010100041F7ED3211F4EF93F395F21718F43F9383
:10102000F395FBCF8F91B5DFFA95E1F70895E9913C
:10103000F9918591803021F0853219F0AADFF9CF3E
:10104000089520E0E89455915532C1F3503311F4DE
:10105000689455915A3348F4505390F3220F022E5E
:10106000220F220F200D250FF4CF0EF42195899128
:101070009991533619F3533729F1533559F1BC017E
:1010800088279927E8945C3621F48991999168948E
:101090005591543639F446EF7EF077FF0DC08FEF4F
:1010A0009FEF0AC055374AE039F0583540E121F04A
:1010B000523642E009F00895FF93EF937DDFEF9100
:1010C000FF91B7CFFF93EF93FC0181918030B9F38B
:1010D00060DFFBCFFF93EF9368DFF1CFDF93CF9318
:1010E000CDB7DEB72596A3DFCF91DF9108956111CB
:1010F0000BC0FC018281882321F085EE0E943E18FE
:1011000003C085EE0E94061980E090E008950895DE
:101110006091C2017091C3018091C4019091C50199
:101120000E94962256985E9825982D9826982E987B
:1011300027982F98813019F0823021F00895259A50
:101140002D9A0895269A2E9A08950C9488085698F8
:101150005E9825982D9826982E9827982F988FEF8F
:1011600090E0909389008093880090938B00809307
:101170008A0090938D0080938C00259A2D9A2FEFF2
:1011800080E792E0215080409040E1F700C00000ED
:10119000269A2E9A2FEF80E792E0215080409040CF
:1011A000E1F700C00000279A2F9A2FEF80E792E026
:1011B000215080409040E1F700C0000025982D9814
:1011C0002FEF80E792E0215080409040E1F700C08F
:1011D000000026982E982FEF80E792E02150804063
:1011E0009040E1F700C0000027982F9856985E982D
:1011F00025982D9826982E9827982F98089589EA53
:101200008093800089E08093810024982C983F98F7
:101210008AB18F748AB96E98479A8BB1806B8BB9FB
:10122000769A0E94A7080C94870880E280930001B8
:101230008091360181110EC00E94640981E0809383
:1012400036012FEF83ED90E3215080409040E1F78D
:1012500000C0000080E40E946A09809300018111AF
:101260002EC00E94940980930001811128C00E9421
:10127000940980930001811122C08FE30E94940998
:101280008093000181111BC00E948C0980E40E94A0
:101290006A0980930001811112C08CE00E949409B8
:1012A0008093000181110BC00E949409809300017A
:1012B000811105C08FE30E949409809300010E9470
:1012C0008C098091000108951092B9008AE0809302
:1012D000B800089594EA9093BC009091BC0097FFE9
:1012E000FCCF9091B900987F983021F0903111F0A7
:1012F00081E008958093BB0084E88093BC008091D6
:10130000BC0087FFFCCF8091B900887F883111F045
:10131000803471F780E0089584E98093BC00809167
:10132000BC0084FDFCCF08958093BB0084E88093CB
:10133000BC008091BC0087FFFCCF9091B900987FE2
:1013400081E0983209F480E0089584E88093BC003D
:101350008091BC0087FFFCCF8091BB0008958091F5
:101360000001811115C080E40E946A098093000188
:1013700081110CC082E10E949409809300018111C7
:1013800005C08FEF0E949409809300010E948C0990
:1013900084B1807F84B985B1807F85B98AB1837F2C
:1013A0008AB98BB1837F8BB93E98469808950E9485
:1013B0001509809300010E94AF0980B38C7080BB37
:1013C00081B3836F81BBE6E4F1E0A8E3B1E0119261
:1013D0001D9281E0E435F807D1F70C94FF089F9245
:1013E000AF92BF92CF92DF92EF92FF920F931F9333
:1013F000CF93DF93809100018823E1F08091370142
:101400008F5F80933701811115C08CE693E00E94B5
:10141000D5070E94150980930001882329F082E5F1
:1014200093E00E94D50706C08EE393E00E94D507A3
:101430000E94A70808E311E0C0E0D0E0BB24B39409
:1014400082E0A82ECC24C394D12C2FE2E22E23E0FC
:10145000F22EC73000F580910001811162C080E456
:101460000E946A0980930001811112C082E10E94EA
:1014700094098093000181110BC0C6010C2E01C09C
:10148000880F0A94EAF780950E94940980930001DE
:101490000E948C0946C0CA30A1F028F4C83059F027
:1014A000C93061F005C0CC3089F070F0CD3089F0E2
:1014B000209A289810C0219A29980DC0229A2A981B
:1014C0000AC0239A2B9807C0529A01C0539A5B987E
:1014D00002C03E9A4698E0EAEA95F1F78FB1799911
:1014E0007FC092E081708B25892B7C9B02C090E0AD
:1014F00001C094E0892B7D9B02C090E001C098E080
:10150000892B7E9B02C090E001C090E1892B9FB1A6
:101510009095991F9927991F9295990F907E892BE5
:1015200010C080910001811170C080E40E946A099E
:1015300080930001882309F455C0912C0E948C09E6
:10154000892DF8019081981739F1808380910101EC
:10155000882301F18091DF0180FF04C084E393E0E0
:101560000E94D5078091DF0180FF0CC080910101AE
:101570001F928F93FF92EF920E946E080F900F9030
:101580000F900F908091DF0180FF04C08DE293E007
:101590000E94D507A09201010E94AF0921960F5F1A
:1015A0001F4FCE30D10509F054CF8091010188231F
:1015B00071F1815080930101882339F08FE99FE018
:1015C0000197F1F700C0000022C0A6E4B1E0E8E313
:1015D000F1E081918D9391E0E634F907D1F717C0DE
:1015E00090E080CF83E10E949409809300018111F3
:1015F000A4CF81E40E946A098093000181119DCFEC
:101600000E94A509982E909499CF80E09ACF0E94CD
:10161000A50881E0DF91CF911F910F91FF90EF908E
:10162000DF90CF90BF90AF909F900895E82FF0E0AB
:10163000EA5BFE4F80810895CF92DF92EF92FF9296
:101640000F931F93CF93DF9386E193E00E94D5071A
:1016500036E4E32E31E0F32EC0E0D0E041E1C42EC9
:1016600043E0D42E08E013E0DF93CF93DF92CF92D4
:101670000E946E088EE093E00E94D507F7018191E9
:101680007F0190E00E94FB229F938F931F930F9303
:101690000E946E0886E093E00E94D50721968DB7E0
:1016A0009EB708960FB6F8949EBF0FBE8DBFCE3082
:1016B000D105D1F6DF91CF911F910F91FF90EF905F
:1016C000DF90CF9008951F93CF93DF93C6E4D1E0CE
:1016D00010E0899190E00E948A22180F81E0C435C1
:1016E000D807B9F7812FDF91CF911F91089581E03D
:1016F000089581E008950C94790B08950F931F933A
:10170000CF93DF93EC0108811981C8010E94EA2080
:10171000B8010E94130C8C01BE010E947B0B882330
:1017200009F47AC08A818823C9F180915F0181110F
:101730001EC0043180E5180789F50E947D0B81E009
:1017400080935F010E945D2390935E0180935D0111
:1017500010925601109258011092570110925A019E
:101760001092590110925C0110925B0155C080915A
:101770005D0190915E010E946923883C910570F49F
:1017800080915601E82FF0E0EE0FFF1FE95AFE4F5F
:10179000118300838F5F809356013EC0043880E53B
:1017A000180721F005381045A1F02AC08A81882346
:1017B00021F01092540182E012C0809154018111F5
:1017C00006C086E20E943E1886E20E94061982E068
:1017D00014C08A81882331F01092550180E20E9462
:1017E00055191AC080915501811106C087E20E94E7
:1017F0003E1887E20E94061980E20E945C190CC024
:1018000081E08093540180935501CE01DF91CF9107
:101810001F910F910C94770B80E0DF91CF911F9176
:101820000F910895089596E0799FF001112494E5B1
:10183000899FE00DF11D1124E60FF11DEE0FFF1F32
:10184000E25FFE4F859194910895880F991F865706
:101850009040FC01859194910895880F991F865FAF
:101860009E4FFC018591949108950F931F93CF9300
:10187000DF93EC01811520E3920740F5811530E2FA
:10188000930708F0C4C08B3B910588F4883A910512
:1018900008F06BC0853A910508F05CC08430910572
:1018A00008F056C08130910509F4CCC1C8C18F3F02
:1018B000910511F008F04CC0803F910508F0A4C0DC
:1018C000805E9109089708F443C0B9C1C13080E532
:1018D000D80709F4A4C020F5C0312FE4D20770F472
:1018E000C11530E4D30708F096C0C11581E3D807CD
:1018F00008F0A5C18E011127106CE5C1C115D045B6
:1019000009F09DC10E94BF1B3FEF84E39CE0315072
:1019100080409040E1F700C000000E94B723D3C18F
:10192000C11527E5D20758F4C03131E5D30708F0D7
:1019300022C1C43180E5D80708F47BC080C1CE0144
:1019400090578115904108F07AC18E011F7075C1C2
:101950008E01B9C1853A910509F477C1863A91059E
:1019600009F476C103E810E4AEC1883A910509F4A0
:1019700072C1893A910509F471C18A3A910509F455
:1019800070C18B3A910509F46FC18C3A910509F445
:101990006EC18D3A910509F46DC1803B910509F442
:1019A0006CC18E3A910509F46BC18F3A910509F427
:1019B0006AC1813B910509F469C1823B910509F433
:1019C00068C1833B910509F467C1843B910509F423
:1019D00066C1853B910509F465C1863B910509F413
:1019E00064C1873B910509F463C1883B910509F403
:1019F00062C1893B910509F461C18A3B910509F0F7
:101A000060C10AE216E45FC18C0110655CC19F7081
:101A10000E942D0C59C18E011F70106A54C186E8B6
:101A200093E00E94D5078091DF0181608093DF0100
:101A30004AC10E946525811102C00E944B250E9467
:101A4000822590E0909300028093FF01C23020E550
:101A5000D20721F48091FF01816086C0C43030E557
:101A6000D30721F48091FF0182607EC0C63080E5FB
:101A7000D80721F48091FF01846076C0C83090E5DA
:101A8000D90719F48091FF0127C0CA3020E5D20799
:101A900021F48091FF01806167C0CC3030E5D3072D
:101AA00021F48091FF0180625FC0CE3080E5D807CD
:101AB00021F48091FF01806457C0C03190E5D907BF
:101AC00021F48091FF0180684FC0C23120E5D20728
:101AD00029F48091FF018460886046C0C33030E5FE
:101AE000D30721F48091FF018E7F3EC0C53080E591
:101AF000D80721F48091FF018D7F36C0C73090E573
:101B0000D90721F48091FF018B7F2EC0C93020E5D9
:101B1000D20719F48091FF0126C0CB3030E5D307FE
:101B200021F48091FF018F7E1FC0CD3080E5D80762
:101B300021F48091FF018F7D17C0CF3090E5D90748
:101B400021F48091FF018F7B0FC0C13120E5D207C6
:101B500021F48091FF018F7707C0C331D04531F464
:101B60008091FF018B7F877F8093FF018091FF0130
:101B70000E948625A8C08D2F99278F7099278130C4
:101B80009105E9F48E01037011279C0102C0220F18
:101B9000331F0A95E2F789011C68CE01E4E0880F43
:101BA000991FEA95E1F788279370082B192BF3E02A
:101BB000CC0FDD1FFA95E1F7C076DD272CC082300F
:101BC000910529F41C2F0027016F106A7CC0833017
:101BD000910561F4CE018370992701E010E002C005
:101BE000000F111F8A95E2F71C680EC08430910522
:101BF000A9F4CE018370992701E010E002C0000F24
:101C0000111F8A95E2F71A6863E0CC0FDD1F6A9511
:101C1000E1F7C07ED7700C2B1D2B55C08530910588
:101C200029F41C2F0027046F106A4DC0069709F095
:101C30004AC0CF71DD271C2F0027106244C000E08E
:101C400010E041C001E010E03EC001E810E43BC0FC
:101C500002E810E438C002EE14E435C009EE14E4E2
:101C600032C00AEE14E42FC005EB14E42CC006EBDE
:101C700014E429C007EB14E426C00CEC14E423C0E0
:101C80000DEC14E420C003E815E41DC00AE815E4D7
:101C90001AC002E915E417C004E915E414C001E212
:101CA00016E411C003E216E40EC004E216E40BC011
:101CB00005E216E408C006E216E405C007E216E4F1
:101CC00002C000E014E4C801DF91CF911F910F9191
:101CD000089596E0799FF001112494E5899FE00D25
:101CE000F11D1124E60FF11DEE0FFF1FE25FFE4F05
:101CF00085919491803E9105E0F4803C910558F5E2
:101D00008133910509F46FC048F48932910509F4D3
:101D100063C08A32910509F46DC072C089339105A0
:101D2000E9F082389105D1F08533910509F44DC071
:101D300067C0833E910581F138F4803E9105B9F08A
:101D4000823E9105D9F05CC0863E910561F1873EE7
:101D50009105A1F155C00E94250C08952091FF0125
:101D600020FD02C021FF4CC080EE90E049C0809170
:101D7000FF0180FFF9CF89E390E042C08091FF012D
:101D800082FF0EC08091FF0184FF03C080E090E0DD
:101D900037C083EE90E034C08091FF0182FFF2CF24
:101DA00082EE90E02DC08091FF0183FF0BC08091F7
:101DB000FF0184FDEBCF87EE90E022C08091FF0110
:101DC00083FFF5CF86EE90E01BC08091FF0185FF79
:101DD00007C089E290E014C08091FF0185FFF9CF30
:101DE00085E390E00DC08091FF0186FF07C08AE285
:101DF00090E006C08091FF0186FFF9CF81E390E07B
:101E00000E94350C089508950C94030F809173017E
:101E100008959FB7F894109262019FBF9091F601C8
:101E2000943009F058C09091E9009F702091EC0027
:101E300020FF02C020E801C020E0292B94E090930D
:101E4000E9009091EB0090FF43C09091EE0097FF66
:101E50003FC090916001992321F09091E80095FF97
:101E600037C01092600196E03091E80035FD15C052
:101E70003091F601343061F53091EB0035FD28C02A
:101E8000915021F481E08093600122C0EFE9FFE0EE
:101E90003197F1F700C00000E7CF8093F100809107
:101EA000E80085FD0AC08091E80080FFFCCF8091AA
:101EB000E8008E778093E80006C08FB7F89491E031
:101EC000909362018FBF2F702093E90080E0089506
:101ED0002F702093E9008FEF0895CF93DF9300D008
:101EE0001F92CDB7DEB72091F601243019F523E01B
:101EF00029839B838A832093E9008FEF9091E800E8
:101F0000815095FD06C095ED9A95F1F7000081117D
:101F1000F5CF8091E80085FF0DC040E050E063E020
:101F200070E0CE0101960E943C128091E8008E770D
:101F30008093E8000F900F900F90DF91CF9108955C
:101F4000CF93DF9300D01F92CDB7DEB72091F6017B
:101F5000243021F522E029839B838A8383E08093C8
:101F6000E9008FEF9091E800815095FD06C095ED56
:101F70009A95F1F700008111F5CF8091E80085FF77
:101F80000DC040E050E063E070E0CE0101960E9499
:101F90003C128091E8008E778093E8000F900F90BC
:101FA0000F90DF91CF9108952091F6012430F1F444
:101FB00022E02093E9002FEF3091E800215035FD19
:101FC00006C035ED3A95F1F700002111F5CF2091CB
:101FD000E80025FF0BC040E050E065E070E00E94A3
:101FE0003C128091E8008E778093E8000895CF93AB
:101FF000DF93EC018091F601843009F047C08091B5
:102000000C018823E1F080910D018823C1F085E067
:102010008093E9008FEF9091E800815095FD06C014
:1020200095E19A95F1F700008111F5CF8091E800D4
:1020300085FF2CC040E050E060E170E017C081E017
:102040008093E9008FEF9091E800815095FD06C0E4
:1020500095ED9A95F1F700008111F5CF8091E80098
:1020600085FF14C040E050E068E070E0CE010E94BF
:102070003C128091E8008E778093E80080E1FE01B9
:10208000A3E6B1E001900D928A95E1F7DF91CF913F
:1020900008958DEB93E00E94D5078091F5018111A1
:1020A00009C00E94CE130E942B148091E20084602C
:1020B0008093E200089589EB93E00E94D507109287
:1020C000F501089585EB93E00C94D50781EB93E03F
:1020D0000E94D5070C947C2D8DEA93E00E94D507D1
:1020E0000E944E230E94822D0E94C7160C94040F5A
:1020F000809161018F5F8093610162E30E94F02E05
:10210000911135C01092610180916201882379F1AB
:102110008091F601843049F58091E9008F709091AB
:10212000EC0090FF02C090E801C090E0982B84E0A2
:102130008093E9008091EB0080FF14C08091EE0055
:1021400087FF10C08091E80085FF03C01092F10066
:10215000F9CF8091E80080FF05C08091E8008E777C
:102160008093E8009F709093E900109262010895B7
:1021700042E061EC81E00E94481342E061EC82E0C1
:102180000E94481342E061EC83E00E94481342E25F
:1021900061EC84E00E94481342E161EC85E00C941C
:1021A00048138091F801833009F455C030F4813030
:1021B00071F0823009F48EC008958A3009F47AC033
:1021C0008B3009F460C0893009F09CC020C0809138
:1021D000F701813A09F096C08091E800877F8093EB
:1021E000E8008091FB019091FC01892B21F060E0D7
:1021F00080E090E003C060E183E691E070E00E943F
:1022000085128091E8008B778093E8000895809193
:10221000F701813209F076C08091FB019091FC01B9
:10222000009719F0049709F06DC08091E800877F4E
:102230008093E8008091E80082FD05C08091F6015E
:102240008111F8CF5FC08091F1008093730180917C
:10225000E8008B7753C08091F701813A09F052C0B2
:102260008091FB019091FC01892B09F04BC080917A
:10227000E800877F8093E8008091E80080FFFCCF32
:1022800080910C0136C08091F7018132D9F580919F
:10229000FB019091FC01892BA9F58091E800877FD3
:1022A0008093E8000E947D138091F90180930C01D6
:1022B0000C94BF1B8091F701813221F58091E800D9
:1022C000877F8093E8000E947D138091FA018093BC
:1022D000740108958091F701813AA1F48091E8009A
:1022E000877F8093E8008091E80080FFFCCF809199
:1022F00074018093F1008091E8008E778093E8006C
:102300000C947D13089584B7877F84BF88E10FB64E
:10231000F89480936000109260000FBE90E080E817
:102320000FB6F89480936100909361000FBE0E94F5
:1023300050170E94CE130E942B148091E2008460FB
:102340008093E20089E09FE00E94852278940E94B9
:10235000A5160E94521782E091E00E94C2160E94C8
:102360006A2D8CE993E00E94D5078091F6018530B3
:1023700089F488E993E00E94D5070E941523809193
:10238000F401882391F30E944023882371F30E9473
:102390002612EBCF0E947617E8CF292F3327233060
:1023A0003105A9F06CF42130310509F442C0223026
:1023B000310509F043C08DE690E025EF33E042C0DF
:1023C00021323105C9F02232310519F137C0992780
:1023D0008130910541F08230910541F0892B71F5F2
:1023E000E1EFF3E005C0E9EDF3E002C0E1ECF3E07A
:1023F000849190E09F0126C0643000F5E62FF0E064
:10240000EE0FFF1FEE5DFE4F2081318189E090E0ED
:1024100019C0643098F4E62FF0E0DF01AA0FBB1F6B
:10242000A65EBE4F2D913C91EA5EFE4F808190E00A
:1024300009C082E190E022E634E004C080E090E050
:1024400020E030E0FA0131832083089580E189BDE6
:1024500082E189BD09B400FEFDCF8091D8008F7D57
:102460008093D8008091E00082608093E0008091AA
:10247000E00081FDFCCF0895CF92DF92EF92FF92B2
:102480000F931F93CF93DF937C018B01EA010E948E
:102490009E13811131C0209731F088819981081BEA
:1024A000190BE80EF91EC12CD12C0115110519F1DB
:1024B0008091E80085FD14C08091E8008E778093BC
:1024C000E800209741F0888199818C0D9D1D9983AA
:1024D000888385E011C00E949E13882331F30CC0CD
:1024E000F70181917F018093F10001501109FFEF05
:1024F000CF1ADF0ADACF80E0DF91CF911F910F91E1
:10250000FF90EF90DF90CF9008952091FD013091E2
:10251000FE012617370748F06115710539F420913F
:10252000E8002E772093E80001C0B901FC0120E00B
:1025300061157105B9F18091F601882309F440C055
:10254000853009F43FC08091E80083FD3DC0809153
:10255000E80082FF06C08091E80082FF26C080E08C
:1025600008958091E80080FFE3CF2091F3008091EF
:10257000F20090E0922B6115710551F088309105C1
:1025800038F421912093F100615071090196F3CF45
:1025900021E0089709F020E08091E8008E77809391
:1025A000E800C6CF2111C7CFD6CF8091F60188238E
:1025B00039F0853039F08091E80083FFCCCF04C03A
:1025C00082E0089583E0089581E008952091FD015F
:1025D0003091FE012617370748F06115710539F46F
:1025E0002091E8002E772093E80001C0B901FC019A
:1025F00020E061157105C1F18091F601882309F48D
:1026000041C0853009F440C08091E80083FD3EC0A0
:102610008091E80082FF06C08091E80082FF27C019
:1026200080E008958091E80080FFE3CF2091F300DF
:102630008091F20090E0922B6115710559F088307D
:10264000910540F424912093F10031966150710975
:102650000196F2CF21E0089709F020E08091E80090
:102660008E778093E800C5CF2111C6CFD5CF80915A
:10267000F601882339F0853039F08091E80083FF36
:10268000CBCF04C082E0089583E0089581E00895EF
:10269000982F973058F59093E900981739F070917A
:1026A000EC002091ED005091F00003C0242F762F14
:1026B00050E021FF19C03091EB003E7F3093EB00DA
:1026C0003091ED003D7F3093ED003091EB003160B3
:1026D0003093EB007093EC002093ED005093F000EA
:1026E0002091EE0027FF07C09F5FD3CF8F708093AC
:1026F000E90081E0089580E008958091F70187FD69
:1027000005C08091E80080FF0EC012C08091E800F3
:1027100082FD05C08091F6018111F8CF0895809166
:10272000E8008B7708C08091F6018111EACF089507
:102730008091E8008E778093E80008958091E4000E
:102740009091E50045E62091EC0020FF21C020910A
:10275000E80020FD21C02091F601222389F02530D8
:1027600089F02091EB0025FD0FC02091E40030910D
:10277000E5002817390739F3415041F0C901E3CF8B
:1027800082E0089583E0089581E0089584E008954B
:102790002091E80022FFDFCF80E008950E943C14E2
:1027A0000E944414E0EEF0E0808181608083E8EDD7
:1027B000F0E080818F77808319BCA7EDB0E08C9129
:1027C0008E7F8C9380818F7E80831092F501089597
:1027D0000F931F93CF93DF930E943C140E944414E5
:1027E000C8EDD0E088818F7788838881806888836E
:1027F00088818F7D888319BC1092F6011092F201B6
:102800001092F4011092F30100EE10E0F8018081C3
:102810008B7F808388818160888342E060E080E0F4
:102820000E944813E1EEF0E080818E7F8083E2EE2B
:10283000F0E0808181608083808188608083F801FE
:1028400080818E7F8083888180618883DF91CF91B2
:102850001F910F910895E8EDF0E080818F7E8083D5
:10286000E7EDF0E080818160808384E082BF81E0D9
:102870008093F5010C94E813E8EDF0E080818E7F01
:1028800080831092E20008951092DA001092E10025
:1028900008951F920F920FB60F9211242F933F931A
:1028A0004F935F936F937F938F939F93AF93BF9358
:1028B000EF93FF938091E10082FF0BC08091E200D3
:1028C00082FF07C08091E1008B7F8093E1000E942E
:1028D00078108091DA0080FF1FC08091D80080FFBF
:1028E0001BC08091DA008E7F8093DA008091D9003E
:1028F00080FF0DC080E189BD82E189BD09B400FE81
:10290000FDCF81E08093F6010E94491005C019BCFB
:102910001092F6010E945B108091E10080FF19C0C7
:102920008091E20080FF15C08091E2008E7F80934D
:10293000E2008091E20080618093E2008091D80003
:1029400080628093D80019BC85E08093F6010E94D4
:1029500066108091E10084FF30C08091E20084FF26
:102960002CC080E189BD82E189BD09B400FEFDCFA4
:102970008091D8008F7D8093D8008091E1008F7E78
:102980008093E1008091E2008F7E8093E20080914D
:10299000E20081608093E2008091F201882311F0CF
:1029A00084E007C08091E30087FF02C083E001C09C
:1029B00081E08093F6010E946C108091E10083FF1A
:1029C00029C08091E20083FF25C08091E100877FCC
:1029D0008093E10082E08093F6011092F2018091F1
:1029E000E1008E7F8093E1008091E2008E7F8093F2
:1029F000E2008091E20080618093E20042E060E0CA
:102A000080E00E9448138091F00088608093F0007D
:102A10000E946210FF91EF91BF91AF919F918F91B2
:102A20007F916F915F914F913F912F910F900FBECA
:102A30000F901F9018951F920F920FB60F921124AE
:102A40002F933F934F935F936F937F938F939F93B6
:102A5000AF93BF93CF93EF93FF93C091E900CF70F3
:102A60008091EC001092E9008091F000877F8093C4
:102A7000F00078940E9457151092E9008091F000C0
:102A800088608093F000C093E900FF91EF91CF91AF
:102A9000BF91AF919F918F917F916F915F914F9176
:102AA0003F912F910F900FBE0F901F9018951F937D
:102AB000CF93DF93CDB7DEB7AA970FB6F894DEBFFA
:102AC0000FBECDBFE7EFF1E08091F100819321E0EF
:102AD000EF3FF207C9F70E94D1108091E80083FF11
:102AE0001CC12091F7013091F801832F90E08A30CA
:102AF000910508F012C1FC01EA5AFF4F0C94102F07
:102B0000203881F0223809F008C18091FB018F70D4
:102B10008093E9008091EB0085FB882780F9109273
:102B2000E90006C08091F3019091F4019111826057
:102B30009091E800977F9093E8008093F1001092C5
:102B4000F100C5C0822F8D7F09F0E7C0222319F064
:102B5000223061F0E2C08091F901813009F0DDC0DE
:102B6000333009F080E08093F40128C08091F901AE
:102B7000811124C02091FB012F7009F4CEC0209355
:102B8000E9008091EB0080FF19C08091EB003330A9
:102B900011F4806211C080618093EB0081E090E0CD
:102BA000022E01C0880F0A94EAF78093EA0010927F
:102BB000EA008091EB0088608093EB001092E900BE
:102BC0008091E800877F86C02111A7C01091F9018C
:102BD0001F778091E3008078812B8093E3008091C0
:102BE000E800877F8093E8000E947D138091E800D1
:102BF00080FFFCCF8091E30080688093E300112385
:102C000011F083E001C082E08093F60186C0205875
:102C1000223008F082C08091F9019091FA018C3D38
:102C200023E0920779F583E08A838AE289834FB7AC
:102C3000F894DE01139620E03EE051E2E32FF0E04D
:102C400050935700E49120FF03C0E295EF703F5F7F
:102C5000EF708E2F90E0EA3010F0C79601C0C0965A
:102C60008D939D932F5F243149F74FBF8091E800EA
:102C7000877F8093E8006AE270E0CE0101960E94AF
:102C8000851214C0AE014F5F5F4F6091FB010E943F
:102C9000CD11009709F441C02091E800277F2093CF
:102CA000E800BC0189819A810E94E6128091E800C7
:102CB0008B778093E80031C0203879F58091E80067
:102CC000877F8093E8008091F2018093F1008091EA
:102CD000E8008E778093E8000E947D131EC02111CA
:102CE0001CC09091F9019230C0F48091E800877F78
:102CF0008093E8009093F2010E947D138091F2018D
:102D0000811104C08091E30087FF02C084E001C00C
:102D100081E08093F6010E94B8108091E80083FF63
:102D20000AC08091E800877F8093E8008091EB00E3
:102D300080628093EB00AA960FB6F894DEBF0FBEB8
:102D4000CDBFDF91CF911F910895CF938091F60170
:102D50008823B1F08091E9008F709091EC0090FF92
:102D600002C090E801C090E0C92FC82B1092E90082
:102D70008091E80083FD0E945715CF70C093E90051
:102D8000CF91089590937A01809379010895E0910D
:102D90007901F0917A01309721F00190F081E02DD6
:102DA000099480E00895FF920F931F93CF93DF93D0
:102DB0008C01E0917901F0917A01309799F10280CC
:102DC000F381E02D09958091DF0182FF2BC080FF08
:102DD00004C087E795E00E94D507E80180E1F82E5E
:102DE00001E715E08091DF0180FF0BC088811F9211
:102DF0008F931F930F930E946E080F900F900F9068
:102E00000F90FA942196F110EDCF8091DF0180FFB1
:102E100009C08FE695E0DF91CF911F910F91FF9050
:102E20000C94D507DF91CF911F910F91FF900895DA
:102E3000E0917901F0917A01309721F00480F581D9
:102E4000E02D09940895209177013091780182173F
:102E5000930771F09093780180937701E091790165
:102E6000F0917A01309721F00680F781E02D0994E6
:102E7000089520917501309176018217930771F0C2
:102E80009093760180937501E0917901F0917A0138
:102E9000309721F00084F185E02D0994089508957C
:102EA0000C944F170E9454230E94D7090C941824A5
:102EB000CF93DF931F92CDB7DEB79091DF0192FFE2
:102EC00010C090FF0EC01F928F9329E835E03F930A
:102ED0002F9389830E946E080F900F900F900F9090
:102EE00089810F90DF91CF910C94040F9F92AF9244
:102EF000BF92CF92DF92EF92FF920F931F93CF93E7
:102F0000DF9300D000D000D0CDB7DEB70E94EF092C
:102F10008AE8E82E81E0F82E0DE010E0CC24C3947E
:102F2000D12C902E802F0E94160BF701B2907F01BA
:102F3000B826A1F401501109A0F78FEF89838A8385
:102F40001B820E945D238160782F9D838C83498141
:102F50005A816B818D810E94101831C09091DF01E0
:102F600091FF04C08E830E941C0B8E8125E030E00F
:102F7000A601022E01C0440F0A94EAF7A42E4B21A9
:102F8000D1F029839A828A2191E009F490E09B8311
:102F90000E945D238160782F9D838C8349815A81B3
:102FA0006B818D810E941018F801E458FE4F8081DA
:102FB0008A25808304C021503109D0F6BBCF0E94FE
:102FC000862710917B010E94C7161817B9F00E943E
:102FD000C71680937B0126960FB6F894DEBF0FBE0E
:102FE000CDBFDF91CF911F910F91FF90EF90DF90B8
:102FF000CF90BF90AF909F900C94581726960FB625
:10300000F894DEBF0FBECDBFDF91CF911F910F911E
:10301000FF90EF90DF90CF90BF90AF909F9008957A
:10302000CF93DF93CDB7DEB72B970FB6F894DEBF03
:103030000FBECDBF4F83588769877A878B87DE01A4
:10304000119686E0FD0111928A95E9F785E0FE016F
:10305000379601900D928A95E1F749815A816B81EB
:103060007C818D819E810E948F1E2B960FB6F894D5
:10307000DEBF0FBECDBFDF91CF910895CF93C82F94
:10308000882309F4C1C0823859F40E94C71681FD13
:10309000BBC089E30E946A210E94562289E30CC0CA
:1030A000833879F40E94C71680FDAEC083E50E9484
:1030B0006A210E94562283E50E94BB21CF910C9485
:1030C0005622843859F40E94C71682FD9DC087E4B9
:1030D0000E946A210E94562287E4EECF8CEF8C0F6B
:1030E000813A48F48C2F0E94152C81118DC08C2FB1
:1030F0000E946A21E3CF80E28C0F883048F4C770C9
:1031000081E001C0880FCA95EAF70E940D22D6CF50
:103110008BE58C0F833078F4C53A29F0C63A31F448
:1031200082E890E005C081E890E002C083E890E08A
:10313000CF910C94231788E58C0F833108F064C07D
:10314000C83A39F1C93A41F1CA3A49F1CB3A51F199
:10315000CC3A59F1CD3A61F1C03B69F1CE3A71F107
:10316000CF3A79F1C13B81F1C23B89F1C33B91F187
:10317000C43B99F1C53BA1F1C63BA9F1C73BB1F1F5
:10318000C83BB9F1C93BC1F1CA3BC9F58AE292E03B
:1031900038C082EE90E035C089EE90E032C08AEE11
:1031A00090E02FC085EB90E02CC086EB90E029C02A
:1031B00087EB90E026C08CEC90E023C08DEC90E093
:1031C00020C083E891E01DC08AE891E01AC082E93E
:1031D00091E017C084E991E014C081E292E011C04F
:1031E00083E292E00EC084E292E00BC085E292E0BE
:1031F00008C086E292E005C087E292E002C080E06B
:1032000090E0CF910C943917CF910895882309F459
:103210004BC0823859F40E94C71681FF45C089E32C
:103220000E946A210E94562289E30CC0833871F4FF
:103230000E94C71680FF38C083E50E946A210E9461
:10324000562283E50E94BB210C945622843859F4FF
:103250000E94C71682FF28C087E40E946A210E944C
:10326000562287E4EFCF9CEF980F913A58F390E203
:10327000980F983050F4877091E001C0990F8A95AB
:10328000EAF7892F0E941322DFCF9BE5980F933036
:1032900020F480E090E00C942317885A833120F4C6
:1032A00080E090E00C9439170895882321F00E9463
:1032B0000D220C9456220895882321F00E94132297
:1032C0000C94562208958F929F92AF92BF92CF9204
:1032D000DF92EF92FF920F931F93CF93DF931F9292
:1032E000CDB7DEB74C01A62E472FFC01E580E29456
:1032F0008FE0E822F280FF2021F079830E942A22C9
:10330000498149830E9463214981882381F0FF20FC
:1033100071F080E28A0D883050F082E00E944C21EA
:103320000E946321BB24B394B826498101C0B12C0B
:10333000E42FE295EF70F0E0E05AFF4F0C94102F6D
:10334000842F807F142F1F70882311F01295107F17
:10335000FF2089F0112309F48DC180E28A0D8830A5
:1033600020F4812F0E940D2203C0812F0E941D2274
:103370000E9456227FC18A2D0E940619112309F44A
:1033800090C180E28A0D883020F4812F0E941322A0
:1033900003C0812F0E9423220E94562282C1242F23
:1033A000207F842F8F70203211F08295807FAA2099
:1033B00021F0F1E0AF16B9F020C0FF2049F0EE2077
:1033C00009F40FC191E0E9120CC10E943D2269C1CC
:1033D000EE2021F0E1E0EE1609F463C189830E943A
:1033E0004022898104C1FF2029F0F1E0FE1508F494
:1033F00058C1F7C0E11055C1FAC0FF2021F0EE20FE
:1034000009F4EFC037C1EE2009F4F1C039C1242F0F
:1034100026952695237030E02115310521F02130C5
:10342000310561F03EC1FF2021F08A2D942F937069
:1034300002C080E090E00E94231733C1FF2021F0FA
:103440008A2D942F937002C080E090E00E9439177B
:1034500028C18A2DFF2019F00E940C2602C00E946C
:1034600074260E94F9261DC1842F837009F04EC076
:10347000F11017C12A2D229526952770220F220FB1
:103480008A2D8F70C82ED12CE12CF12C022E04C075
:10349000CC0CDD1CEE1CFF1C0A94D2F7A4FE10C05D
:1034A0006FE070E080E090E004C0660F771F881F37
:1034B000991F2A95D2F7609570958095909503C0D5
:1034C00060E070E0CB01242F26952695237030E034
:1034D0002230310569F02330310589F06C297D29CE
:1034E0008E299F292130310571F00E94E11FD9C03A
:1034F0006C297D298E299F290E94FB1FD2C00E9422
:10350000E11FC701B6010E94C71FCBC0FF2019F001
:10351000842F817001C08695882309F4C2C02A2DAA
:10352000229526952770220F220F8A2D8F70C82E84
:10353000D12CE12CF12C022E04C0CC0CDD1CEE1C95
:10354000FF1C0A94D2F7A4FE10C06FE070E080E088
:1035500090E004C0660F771F881F991F2A95D2F745
:10356000609570958095909503C060E070E0CB0108
:10357000242F26952695237030E02230310569F0FE
:103580002330310589F06C297D298E299F2921302E
:10359000310571F00E94B52084C06C297D298E29E7
:1035A0009F290E94CF207DC00E94B520C701B6018F
:1035B0000E949B2076C00A2D10E0F801E05EF10920
:1035C000E531F10508F052C0E059FF4F0C94102F7F
:1035D0001A2D1F70842F8F71FF2031F00E9434202C
:1035E000812F0E9455195DC00E945520812F0E9495
:1035F0005C1957C0FF2039F0E11053C0842F8F7140
:103600000E947A204EC081E08E1508F44AC0F6CFA1
:10361000FF2039F0842F8F710E94342042C0FF2098
:10362000C9F3842F8F710E9455203BC0FF2029F0E1
:10363000842F8F710E941F2034C00E94152031C03A
:10364000FF2051F0142F1F71812F0E94342063E05E
:10365000812F0E94432125C081E00E944C2191E0EE
:103660009E15F8F482E00E944C211BC0FF2031F02F
:10367000EE2081F28A2D0E943E1813C0EE2089F2BE
:103680008A2D0E9406190DC04F706A2DC4010E9438
:1036900077080E943C1F05C04F706A2DC4010E942C
:1036A000120CBB20F1F00E943F2180FD1AC0F401F2
:1036B00012820E9439210E943420C4010E947F1B83
:1036C0000E9439210F90DF91CF911F910F91FF90B0
:1036D000EF90DF90CF90BF90AF909F908F900C9421
:1036E00055200F90DF91CF911F910F91FF90EF9098
:1036F000DF90CF90BF90AF909F908F9008950F93E1
:103700001F93CF93DF93EC01288139818B819C81BA
:10371000892B31F03F3F11F080E003C02F3FE1F7EC
:1037200081E0811113C0CE010E947E0B882371F0CD
:10373000688179818A810E9435218C010E94E9206B
:103740000E94BC1FB801CE010E946319DF91CF9186
:103750001F910F9108950E942A220E943A220E94EE
:10376000FF210E9456220E9427280E94F92680E00D
:1037700090E00E94231780E090E00C9439170E949B
:103780001A220C94AB1B0E942A21292F22952F70FC
:1037900030E02C3031054CF42A3031056CF42250E5
:1037A000310922303105B0F407C02C30310571F0F9
:1037B0002F30310559F00EC0803F31F018F4803EB3
:1037C00048F402C0843F31F481E0089593FB8827D8
:1037D00080F9089580E00895CF93DF9300D000D062
:1037E0001F92CDB7DEB70F900F900F900F900F90F4
:1037F000DF91CF910895CF93DF9300D000D000D018
:10380000CDB7DEB726960FB6F894DEBF0FBECDBF9C
:10381000DF91CF9108951F93CF93DF93C0918A01D9
:1038200016E080918B01C81799F0D0E01C9FF00141
:103830001D9FF00D1124E457FE4F4081518162819C
:103840007381848195810E94FB1B2196C770E9CF0B
:10385000DF91CF911F9108954091BC015091BD011E
:103860006091BE017091BF018091C0019091C10132
:103870000C94FB1BCF938091C10182958F7009F04E
:103880005FC08091BE01882309F45AC020918A014B
:10389000A0918B016091BC017091BD018091BF012D
:1038A0009091C00131E06F3F09F030E0B32FC6E0E6
:1038B0002A1709F445C0009721F07F3F21F44B2FD0
:1038C00003C041E001C040E030E040FD35C0C29F90
:1038D000F001C39FF00D1124E457FE4F4181741392
:1038E0002BC04081641328C04281411125C043810F
:1038F00054814817590710F441505109481B590B7E
:10390000483C5105C8F48091C1018F70806180935B
:10391000C10186E0829FF001839FF00D1124EF56D4
:10392000FE4F80818F70806180838CEB91E00E94DC
:103930007F1BCF910C940B1C2F5F3F4F2770B8CF8C
:10394000CF910895CF92DF92EF92FF920F931F9342
:10395000CF93DF93CDB7DEB762970FB6F894DEBF93
:103960000FBECDBF8C0185E0F801DE011D960190F0
:103970000D928A95E1F7D8014C9111965C911197BF
:1039800012966C9112971396ED90FC90149770918B
:10399000BC01E091BD012091BF013091C001211512
:1039A000310531F0EF3F31F481E07F3F19F403C07E
:1039B00081E001C080E0B82FB170CB2E80FD6CC1DA
:1039C000D090BE01DD2009F4F5C0F091C101E216EE
:1039D000F30638F0C701821B930B883C910548F031
:1039E0009BC0209530952E0D3F1D283C310508F0D9
:1039F00093C08F2F807F09F052C0E51314C0741359
:103A000012C0D62E61110FC0FF70F061F093C1019A
:103A10000E942C1C8CEB91E00E947F1B8091C101C5
:103A2000F80185836CC1EF2831F05F3F31F481E00C
:103A30004F3F19F403C081E001C080E080FD03C066
:103A400081E0862701C080E0F82FF170FF2E80FF13
:103A50001CC080918A0120918B0136E0821709F405
:103A600028C190E0389FF001399FF00D1124E457F0
:103A7000FE4F7181571306C07081471303C07281D6
:103A8000671303C001968770E9CFD62E662309F429
:103A900036C18091C10181608093C10153C0E5139B
:103AA00008C0741306C0611104C0D8011596FC93B8
:103AB000AEC04D875E878D859E856A8B0E94C31B35
:103AC0006A89882329F1D62E662311F12091C1013C
:103AD000822F82958F7090E002970CF460C08091E5
:103AE000BC019091BD0198878F831986FB86EA8679
:103AF0002C87CE01079651C0E51731F14D875E87BF
:103B00008D859E856A8B0E94C31B6A8981112EC098
:103B1000C8010E947F1BA4C08F2F807F69F77E2D74
:103B2000F98AE88A89890E94EC1B8CEB91E00E945B
:103B30007F1BECEBF1E086E0DF011D928A95E9F74F
:103B40000E942C1CD12CDBC07413D8CF6111D6CFAE
:103B5000D8011596FC93C8010E947F1BECEBF1E0A5
:103B600086E0DF011D928A95E9F7C9C0D62E66234B
:103B700079F22091C101822F82958F7090E0029797
:103B800074F08091BC019091BD019A8389831B825E
:103B9000FD82EC822E83CE0101960E947F1B86E07F
:103BA000F801ACEBB1E001900D928A95E1F70E942B
:103BB0003A1C6FC0E216F30628F0C701821B930B74
:103BC0009C0104C0209530952E0D3F1D283C3105E9
:103BD00008F052C0D62E662309F49ACFE5132CC004
:103BE00074132AC08091C10180FD1DC0982F929549
:103BF0009F70C9F0D80115968C9315979F3039F0B6
:103C00009F5F9295907F8F70892B15968C93C8013A
:103C10000E947F1B86E0F801ACEBB1E001900D92B1
:103C20008A95E1F736C086E0F801ACEBB1E001908F
:103C30000D928A95E1F763C04D875E878D859E85DD
:103C40000E94C31B882379F086E0F801ACEBB1E059
:103C500001900D928A95E1F70E943A1C0E942C1C5B
:103C6000DD24D3944CC08091C10181608093C10157
:103C7000C8010E947F1B43C07E2DF98AE88A89898A
:103C80000E94EC1BECEBF1E086E0DF011D928A95CF
:103C9000E9F70E942C1C33C0662309F439CF4D8705
:103CA0005E878D859E850E94C31B882309F430CFD3
:103CB000CBCF4D875E878D859E850E942A21292F37
:103CC00022952F7030E0223031052CF49F7041F0A6
:103CD000811106C00CC0243031052CF49F7049F4CA
:103CE000805E883020F0C8010E947F1BCF2CDC2C26
:103CF00006C0D80115969C91907F91F7F8CF8D2D35
:103D000062960FB6F894DEBF0FBECDBFDF91CF91A4
:103D10001F910F91FF90EF90DF90CF9008951F9328
:103D2000CF93DF93CDB7DEB72C970FB6F894DEBFF5
:103D30000FBECDBF4F83588769877A878B879C8753
:103D4000CE0107960E94A21C8823C1F02F813885DE
:103D50008A859B85892B31F03F3F11F080E003C0BD
:103D60002F3FE1F781E0811147C04F815885698578
:103D70007A858B859C850E94FB1B3EC086E0FE01F8
:103D80003796DE01119601900D928A95E1F7FF8139
:103D9000E8854A855B854115510531F0EF3F31F4E7
:103DA00081E0FF3F19F403C081E001C080E080FDA5
:103DB00023C020918B0130E0C901019687709927BB
:103DC00060918A0170E086179707F1F1F983EA8321
:103DD0005D834C8396E0929FD001939FB00D112498
:103DE000A457BE4FFE01319601900D929A95E1F7CE
:103DF00080938B010E940B1C16E080918A019091A8
:103E00008B01891779F1189FC001112484579E4FA7
:103E10000E94A21C882331F1E0918A011E9FF001CB
:103E20001124E457FE4F4081518162817381848166
:103E300095810E94FB1B80918A0190E0019687701A
:103E4000992780938A01D9CF0E94BF1B10928B01C2
:103E500010928A01ECEBF1E086E0DF011D928A9579
:103E6000E9F7CACF2C960FB6F894DEBF0FBECDBFD0
:103E7000DF91CF911F910895EF92FF920F931F93BF
:103E8000CF93DF93FC01009709F46FC0F12CEE246F
:103E9000E394EF0121968491843740F4843008F054
:103EA00055C0813081F0823021F15FC0853709F43F
:103EB00047C0C0F19CE7980F903708F056C08F7745
:103EC0000E94061945C08F010E5F1F4FFE018491AD
:103ED00090E2980F983050F48770FE2D01C0FF0FCC
:103EE0008A95EAF78F2F0E942D2215C00E943E1856
:103EF00014C08F010E5F1F4FFE01849190E2980F56
:103F0000983068F48770FE2D01C0FF0F8A95EAF79C
:103F10008F2F0E9433220E945622E80119C00E946E
:103F20000619FBCFCF010296FE01C491CC2361F0AC
:103F3000EFE9FFE03197F1F700C00000C150F6CF84
:103F4000CF010296FE01F490EC0102C00E943E18DF
:103F50008F2D882341F0EFE9FFE03197F1F700C0A2
:103F600000008150F6CFFE0194CFDF91CF911F91D9
:103F70000F91FF90EF90089508956093C60170939C
:103F8000C7018093C8019093C9010C94AB1B0F9398
:103F90001F930091C6011091C7012091C801309173
:103FA000C901062B172B282B392B0093C601109320
:103FB000C7012093C8013093C9011F910F910C9440
:103FC000AB1B0F931F930091C6011091C701209165
:103FD000C8013091C90106231723282339230093F0
:103FE000C6011093C7012093C8013093C9011F91E6
:103FF0000F910C94AB1B0F931F930091C60110916E
:10400000C7012091C8013091C90106271727282729
:1040100039270093C6011093C7012093C80130933C
:10402000C9011F910F910C94AB1B1092C201109209
:10403000C3011092C4011092C5010C94AB1B41E066
:1040400050E060E070E004C0440F551F661F771F0A
:104050008A95D2F74093C2015093C3016093C40183
:104060007093C5010C94AB1B41E050E060E070E040
:1040700004C0440F551F661F771F8A95D2F78091A1
:10408000C2019091C301A091C401B091C501842BDC
:10409000952BA62BB72B8093C2019093C301A093BD
:1040A000C401B093C5010C94AB1B41E050E060E04B
:1040B00070E004C0440F551F661F771F8A95D2F722
:1040C00040955095609570958091C2019091C30183
:1040D000A091C401B091C50184239523A623B723E1
:1040E0008093C2019093C301A093C401B093C50112
:1040F0000C94AB1B41E050E060E070E004C0440F62
:10410000551F661F771F8A95D2F78091C201909143
:10411000C301A091C401B091C50184279527A627AA
:10412000B7278093C2019093C301A093C401B093B9
:10413000C5010C94AB1B0F931F930091C20110910A
:10414000C3012091C4013091C501062B172B282BE8
:10415000392B0093C2011093C3012093C401309303
:10416000C5011F910F910C94AB1B0F931F930091EE
:10417000C2011091C3012091C4013091C5010623F1
:104180001723282339230093C2011093C3012093DE
:10419000C4013093C5011F910F910C94AB1B0F9379
:1041A0001F930091C2011091C3012091C40130916D
:1041B000C50106271727282739270093C201109326
:1041C000C3012093C4013093C5011F910F910C943A
:1041D000AB1B0895CF92DF92EF92FF920F931F9344
:1041E000CF93DF93EC01C090C601D090C701E0905F
:1041F000C801F090C9018091C2019091C301A091C2
:10420000C401B091C501C82AD92AEA2AFB2A0FE1C4
:1042100010E0B701A601002E04C07695679557956A
:1042200047950A94D2F740FD05C00150110988F75F
:1042300080E007C0BE01802F0E94690E0197A9F39C
:10424000802FDF91CF911F910F91FF90EF90DF9022
:10425000CF900895CF93DF93EC010E94EA20BE0136
:104260000E94690EDF91CF910895CB010E942A210F
:1042700008958091CA0185958595859508958091C9
:10428000CA018770089598E0899F90011124622BDC
:104290006093CA010C9434204091CA018095842314
:1042A0008093CA01982F977069F450E0282F332724
:1042B00027FD30954217530729F0859585958595FB
:1042C0000C94552008959091CA01977081E009F4EB
:1042D00080E0089590910C01992361F190910D0176
:1042E000992341F1982F9695969596959F3088F44D
:1042F000E0910E01F0910F01E90FF11D877021E0AF
:1043000030E001C0220F8A95EAF78181822B8183F8
:1043100008959091DF0190FF2DC01F928F9380EC44
:1043200095E09F938F930E946E080F900F900F90CF
:104330000F90089540910E0150910F0120E030E060
:104340009FEFFA01E20FF31F6281681799F09F3F18
:1043500019F4611101C0922F2F5F3F4F2E303105AC
:1043600081F79F3F39F0FA01E90FF11D97FDFA95AA
:1043700082830895089590910C01992369F1909199
:104380000D01992349F1982F9695969596959F3012
:1043900090F4E0910E01F0910F01E90FF11D87708B
:1043A00021E030E001C0220F8A95EAF72095818153
:1043B0002823218308959091DF0190FF1FC01F9251
:1043C0008F9382EA95E09F938F930E946E080F90DF
:1043D0000F900F900F90089540910E0150910F0192
:1043E00020E030E0FA01E20FF31F9281981301C040
:1043F00012822F5F3F4F2E303105A1F7089581E0E3
:1044000090E0E0910E01F0910F01E80FF91F10828A
:10441000019680319105A9F708959091DE01982BBE
:104420009093DE01089580959091DE0198239093FA
:10443000DE0108951092DE0108959091DD01982B20
:104440009093DD01089580959091DD0198239093DC
:10445000DD0108951092DD0108959091DC01982B03
:104460009093DC01089580959091DC0198239093BE
:10447000DC0108951092DC0108958093CB0108952A
:104480001092CB01089540910E0150910F0120E050
:1044900030E080E0FA01E20FF31F918191118F5F0C
:1044A0002F5F3F4F2F303105A9F70895E0910E019E
:1044B000F0910F018091DE018083E0910E01F09177
:1044C0000F0180819091DD01892B8083E0910E01A5
:1044D000F0910F0180819091DC01892B8083909174
:1044E000CB01992361F0E0910E01F0910F018081E1
:1044F000892B80830E94432281111092CB018091ED
:104500000E0190910F010C94D31690933501809376
:104510003401089540E0009739F09C0121503109A1
:10452000822393234F5FF7CF842F0895CF92DF929A
:10453000EF92FF920F931F936C01EE24FF24C1149E
:10454000D104E104F10421F46B017C0180E001C09D
:1045500080E133272F2D1E2D0D2D0115110521056D
:10456000310519F0885F6801790197018601A4E09F
:104570003695279517950795AA95D1F70115110539
:104580002105310519F08C5F6801790197018601D9
:10459000F2E03695279517950795FA95D1F701150D
:1045A00011052105310519F08E5F68017901B70108
:1045B000A6017695679557954795452B462B472B32
:1045C00009F08F5F1F910F91FF90EF90DF90CF90D8
:1045D00008958295982F9C7C96959695837344E0D8
:1045E000849F90011124922B892F8A7A8695957544
:1045F000990F892B08951F93CF93DF931F92CDB707
:10460000DEB799830E94E922182F9981892F0E9491
:10461000E922212F30E0322F2227A901482BCA019D
:104620000F90DF91CF911F9108958091F601843012
:1046300021F11092E00120E488E190E00FB6F894B7
:10464000A895809360000FBE2093600080E00E94D8
:10465000040F83B7817F846083BF83B7816083BF8A
:104660007894889583B78E7F83BF88E10FB6F894DE
:1046700080936000109260000FBE08950895089521
:104680000E943E230E94EF090E943F230E94630B79
:1046900091E0811101C090E0892F08950E94BF1B15
:1046A0000E94C7160C94040F82E084BD93E095BD70
:1046B0009AEF97BD80936E0008952FB7F89480917C
:1046C000E1019091E201A091E301B091E4012FBFDB
:1046D0000895CF92DF92EF92FF920F931F932FB71F
:1046E000F8944091E1015091E2016091E3017091F1
:1046F000E4012FBF6A017B01EE24FF248C0120E03E
:1047000030E0C016D106E206F30610F4415051091C
:10471000481B590BCA011F910F91FF90EF90DF903A
:10472000CF9008951F920F920FB60F9211248F937E
:104730009F93AF93BF938091E1019091E201A0918B
:10474000E301B091E4010196A11DB11D8093E10147
:104750009093E201A093E301B093E401BF91AF9184
:104760009F918F910F900FBE0F901F9018950E94F0
:10477000CE13F8942FEF87EA91E6215080409040C5
:10478000E1F700C0000087E090EBDC0180930002BD
:1047900090930102A0930202B09303022CE088E1FF
:1047A00090E00FB6F894A895809360000FBE209318
:1047B0006000FFCFEF92FF920F931F93CF93DF9391
:1047C000E82E8DE0F82E8F2D0E94160BC5E0D0E06C
:1047D000082F10E098010C2E02C0359527950A94F9
:1047E000E2F720FF09C06C2F7F2D80E00E94130CA0
:1047F000E81202C081E007C0219760F7FA948FEFBA
:10480000F812E1CF80E0DF91CF911F910F91FF90DF
:10481000EF900895CF93C82F8CE20E94DA2388236B
:1048200021F08C2FCF910C94DA2380E0CF91089562
:10483000CF930E946525811102C00E944B2585EE11
:1048400095E00E94D507C5E6C15049F00E94EF09E6
:104850008FE39CE90197F1F700C00000F5CF8EEDE2
:1048600095E00E94D50789E20E940A24811111C1B6
:104870008AE20E940A2481110E944B2585E00E9451
:104880000A2481110E94B7230E9470258093DF01C2
:1048900087E00E940A24882399F18BE10E940A2470
:1048A000882351F09091DF0191FB882780F921E066
:1048B000822780FB91F922C08EE00E940A2488237F
:1048C00051F09091DF0192FB882780F921E0822747
:1048D00080FB92F913C080E10E940A249091DF01CD
:1048E000882341F093FB882780F921E0822780FB11
:1048F00093F904C0892F809580FB90F99093DF0194
:104900008091DF010E9474250E9482258093FF011F
:1049100080EE0E940A24882341F08091FF01982FA5
:10492000909590FB80F98093FF0189E30E940A240F
:10493000882359F09091FF0191FB882780F921E0AD
:10494000822780FB91F99093FF0182EE0E940A2456
:10495000882359F09091FF0192FB882780F921E08C
:10496000822780FB92F99093FF0186EE0E940A2431
:10497000882359F09091FF0193FB882780F921E06B
:10498000822780FB93F99093FF0183EE0E940A2413
:10499000882359F09091FF0194FB882780F921E04A
:1049A000822780FB94F99093FF0185E30E940A24FB
:1049B000882359F09091FF0195FB882780F921E029
:1049C000822780FB95F99093FF0181E30E940A24DE
:1049D000882359F09091FF0196FB882780F921E008
:1049E000822780FB96F99093FF0181E10E940A24BF
:1049F000882359F09091FF0197FB882780F921E0E7
:104A0000822780FB97F99093FF018091FF010E941C
:104A100086258091FF0187FB882780F980930D010F
:104A200087E20E940A24C82F8EE10E940A24811185
:104A3000C2608FE10E940A248111C46080E20E945A
:104A40000A248111C86081E20E940A248111C06198
:104A500082E20E940A248111C06283E20E940A2439
:104A60008111C06484E20E940A24882311F0C06886
:104A700002C0CC2329F08C2F0E947D256C2F03C00F
:104A80000E947925682F70E080E090E0CF910C942F
:104A9000BD1FCF9108956DEE7EEF80E090E00E9403
:104AA0004A2F60E082E090E00E94382F60E083E0CF
:104AB00090E00E94382F60E084E090E00E94382F60
:104AC00060E085E090E00C94382F80E090E00E9458
:104AD000322F21E08D3E9E4F09F020E0822F089575
:104AE00082E090E00C942A2F682F82E090E00C94F2
:104AF000382F83E090E00C942A2F682F83E090E019
:104B00000C94382F84E090E00C942A2F682F84E0D6
:104B100090E00C94382F8091E70180FF0BC06091EA
:104B2000130185E0689FB00111247595679575950F
:104B300067952AC081FF09C06091130185E0689FD5
:104B4000B0011124759567951FC082FF07C0609161
:104B5000130185E0689FB001112416C04091E8015F
:104B60004423C9F060911201461788F72091130180
:104B700085E0289F90011124429FC001439F900D22
:104B8000112470E00E94FC2E6038710540F461151C
:104B9000710539F002C065E070E0862F08958FE757
:104BA000089581E008958091E70180FF08C0609139
:104BB000110170E0759567957595679521C081FF26
:104BC00006C06091110170E07595679519C082FF6C
:104BD00004C06091110170E010C08091E801882349
:104BE000C1F0609110018617A0F790911101989F74
:104BF000C001112470E00E94FC2E6038710528F479
:104C00006115710521F0862F08958FE7089581E0E1
:104C1000089561E070E0F4CF803F21F40E948B257D
:104C2000819504C0813F29F40E948B258093EB017C
:104C30000895823F21F40E948B25819504C0833F13
:104C400029F40E948B258093EA010895893F19F485
:104C50000E94D32505C08A3F31F40E94D325819557
:104C60008093EC0108958B3F21F40E94D325819518
:104C700004C08C3F29F40E94D3258093ED01089550
:104C8000843F21F48091E901816017C0853F21F4C0
:104C90008091E901826011C0863F21F48091E90191
:104CA00084600BC0873F21F48091E901886005C0D2
:104CB000883F31F48091E90180618093E901089592
:104CC0008D3F21F48091E70181600BC08E3F21F47C
:104CD0008091E701826005C08F3F29F48091E70150
:104CE00084608093E7010895803F39F48091EB015F
:104CF00087FF6CC01092EB0169C0813F29F480915D
:104D0000EB011816BCF362C09091EA01823F29F4CE
:104D100097FF5CC01092EA0159C0833F19F419163D
:104D2000CCF354C0893F41F48091EC0118160CF08B
:104D30004DC01092EC014AC08A3F29F48091EC01E9
:104D400087FF44C0F6CF8B3F39F48091ED0187FF98
:104D50003DC01092ED013AC08C3F29F48091ED01E5
:104D60001816BCF333C0843F21F48091E9018E7F93
:104D700017C0853F21F48091E9018D7F11C0863FE6
:104D800021F48091E9018B7F0BC0873F21F4809152
:104D9000E901877F05C0883F31F48091E9018F7E6A
:104DA0008093E90113C08D3F21F48091E7018E7F4C
:104DB0000BC08E3F21F48091E7018D7F05C08F3FAE
:104DC00029F48091E7018B7F8093E7018091EA01CC
:104DD00081110EC08091EB0181110AC08091EC011C
:104DE000811106C08091ED01811102C01092E8018D
:104DF00008958091DF0183FF7EC081E296E00E94EA
:104E0000D5078091E9011F928F938CE196E09F93E3
:104E10008F930E946E088AE196E00E94D507209148
:104E2000EA01822F992787FD90959F932F9387E121
:104E300096E09F938F930E946E0885E196E00E9412
:104E4000D5072091EB01822F992787FD90959F939D
:104E50002F9382E196E09F938F930E946E0880E1EA
:104E600096E00E94D5072091EC01822F992787FDBB
:104E700090959F932F938DE096E09F938F930E9440
:104E80006E088BE096E00E94D5072091ED01822FFD
:104E9000992787FD90959F932F9388E096E09F93A5
:104EA0008F930E946E0885E096E00E94D50780915E
:104EB000E8011F928F9382E096E09F938F930E9468
:104EC0006E0880E096E00E94D5078091E7011F926E
:104ED0008F938DEF95E09F938F930E946E088AEFDA
:104EE00095E00E94D5078DB79EB74C960FB6F89403
:104EF0009EBF0FBE8DBF89EE91E00E9418170E94E1
:104F00005D239093E6018093E50108951F93CF936D
:104F1000DF938091E5019091E6010E946923409121
:104F2000E801442321F02091140130E006C02091D3
:104F300015015AE0259F900111248217930708F468
:104F400082C08091EA011091EB01D091EC01C091F7
:104F5000ED01811107C0111105C0D11103C0CC238F
:104F600009F471C04F3F19F04F5F4093E8011816E4
:104F700024F40E948B258093EA018091EA0187FF47
:104F800005C00E948B2581958093EA01111624F4B7
:104F90000E948B258093EB018091EB0187FF05C078
:104FA0000E948B2581958093EB016091EA01662335
:104FB00039F11091EB01112319F1772767FD7095F5
:104FC000872F972F0E94012E23E333E343E35FE310
:104FD0000E94652E0E94CE2D6093EA01612F7727F3
:104FE00067FD7095872F972F0E94012E23E333E3EF
:104FF00043E35FE30E94652E0E94CE2D6093EB0198
:105000001D1624F40E94D3258093EC018091EC01BD
:1050100087FF05C00E94D32581958093EC011C1663
:1050200024F40E94D3258093ED018091ED0187FF48
:1050300005C00E94D32581958093ED01DF91CF912A
:105040001F910C94F926DF91CF911F910895E9EEFD
:10505000F1E085E0DF011D928A95E9F71092E80101
:105060001092E701089584E498E00E94D5071F920A
:1050700081E08F931F9285E08F9386EF97E09F9357
:105080008F930E946E080F900F900F900F900F90CB
:105090000F9008958330E9F128F4813061F0823077
:1050A00009F10895853009F462C008F449C08630DA
:1050B00009F474C0089520911501862F90E0820FA5
:1050C000911D8F3F910520F4620F6093150103C07D
:1050D0008FEF80931501809115011F928F938FE2BE
:1050E00097E072C020911401862F90E0820F911DED
:1050F0008F3F910520F4620F6093140103C08FEF7E
:1051000080931401809114011F928F938DE197E099
:105110005BC020911301862F90E0820F911D8F3F7D
:10512000910520F4620F6093130103C08FEF809309
:105130001301809113011F928F938AE097E044C07E
:1051400020911201862F90E0820F911D8F3F9105D3
:1051500020F4620F6093120103C08FEF809312015D
:10516000809112011F928F9385EF96E02DC02091C0
:105170001101862F90E0820F911D8F3F910520F441
:10518000620F6093110103C08FEF80931101809132
:1051900011011F928F938CED96E016C020911001A3
:1051A000862F90E0820F911D8F3F910520F4620FB2
:1051B0006093100103C08FEF809310018091100164
:1051C0001F928F9381EC96E09F938F930E946E08BD
:1051D0000F900F900F900F900895833081F128F475
:1051E000813059F08230D1F00895853009F449C0FA
:1051F000B8F1863009F456C00895809115016817FA
:1052000020F4861B8093150102C010921501809135
:1052100015011F928F9382EB96E054C08091140188
:10522000681720F4861B8093140102C010921401A9
:10523000809114011F928F9380EA96E043C0809181
:105240001301681720F4861B8093130102C010928B
:105250001301809113011F928F938DE896E032C065
:1052600080911201681720F4861B8093120102C0FE
:1052700010921201809112011F928F9388E796E09D
:1052800021C080911101681720F4861B80931101C1
:1052900002C010921101809111011F928F938FE52E
:1052A00096E010C080911001681720F4861B80934F
:1052B000100102C010921001809110011F928F9373
:1052C00084E496E09F938F930E946E080F900F9056
:1052D0000F900F900895CF93C82F1F928F9329E4BA
:1052E00039E03F932F930E946E0861E070E080E008
:1052F00090E004C0660F771F881F991FCA95D2F7E8
:105300000E94BD1F0F900F900F900F90CF910C94A3
:10531000BF1BCF938D3109F465C0B0F58E3009F411
:10532000D1C100F5873009F49BC1A8F4863009F09B
:1053300070C28091DF01817F8E7F8093DF0188EDD5
:105340009AE00E94D50787EA9EE00E94D50781E097
:105350008093EF0180C1883009F44FC08B3009F48D
:105360007CC157C2863109F4F3C138F4803109F4A5
:10537000BCC1813109F433C24CC2893109F4D1C1B5
:105380008B3109F48CC145C2853309F43EC248F41F
:10539000873209F43AC208F436C2893209F435C2B8
:1053A00038C2833438F48A3308F02BC2883309F4C6
:1053B00054C12FC2833409F428C2883409F029C2A9
:1053C0000E94BF1B8BE89EE00E94D5079FEF23ED54
:1053D00080E3915020408040E1F700C000000E942F
:1053E000B72339C186EB9EE00E94D5070E94882D25
:1053F0000E94C7160E94040F2EC18BEA9EE00E94F5
:10540000D50788EF9DE00E94D5070E9479251F925D
:105410008F9385EF9DE09F938F930E946E0883EF9B
:105420009DE00E94D5070E947025C82F80EE9DE068
:105430000E94D5071F92CF932BED3DE03F932F9312
:105440000E946E0889ED9DE00E94D5078FEC9DE0DB
:105450000E94D5078C2F81701F928F932CEC3DE01A
:105460003F932F930E946E088AEC9DE00E94D5071F
:1054700080EC9DE00E94D507C1FB882780F91F9230
:105480008F932DEB3DE03F932F930E946E088BEBA3
:105490009DE00E94D5078FEA9DE00E94D507C2FBE0
:1054A000882780F91F928F932CEA3DE03F932F933A
:1054B0000E946E088AEA9DE00E94D50781EA9DE07D
:1054C0000E94D507C3FBCC27C0F91F92CF938EE96A
:1054D0009DE09F938F930E946E088CE99DE00E944F
:1054E000D5070E948225C82F88E89DE00E94D50735
:1054F0001F92CF9323E83DE03F932F930E946E08C5
:1055000081E89DE00E94D50788E69DE00E94D507CE
:105510008C2F81701F928F9325E63DE03F932F9350
:105520000E946E088DB79EB780960FB6F8949EBF06
:105530000FBE8DBF83E69DE00E94D5078CE49DE001
:105540000E94D507C1FB882780F91F928F9329E419
:105550003DE03F932F930E946E0887E49DE00E94F8
:10556000D50785E39DE00E94D507C2FB882780F917
:105570001F928F9322E33DE03F932F930E946E088A
:1055800080E39DE00E94D5078EE19DE00E94D50753
:10559000C3FB882780F91F928F932BE13DE03F9357
:1055A0002F930E946E0889E19DE00E94D5078FE04D
:1055B0009DE00E94D507C4FB882780F91F928F9336
:1055C0002CE03DE03F932F930E946E088AE09DE01F
:1055D0000E94D50788EF9CE00E94D507C5FB88276D
:1055E00080F91F928F9325EF3CE03F932F930E9409
:1055F0006E0883EF9CE00E94D50787ED9CE00E9437
:10560000D507C6FB882780F91F928F9324ED3CE0D5
:105610003F932F930E946E0882ED9CE00E94D50775
:105620008AEC9CE00E94D507C7FBCC27C0F91F92EB
:10563000CF9387EC9CE09F938F930E946E0885EC3C
:105640009CE00E94D5078DB79EB74C960FB6F89494
:105650009EBF0FBE8DBFC1E0E1C08FEF9AE05EC07C
:105660008091DF01C82FC095C170C0FB80F9809385
:10567000DF01CC2349F08FE79EE00E94D50780919F
:10568000DF018660886045C082E79EE00E94D50702
:105690008091DF01897F877F8093DF01DCCF80915C
:1056A000DF0181FBCC27C0F991E0C927C0FB81F95C
:1056B0008093DF01CC2319F085E69EE025C087E5C5
:1056C0009EE02CC08091DF0182FBCC27C0F991E0E5
:1056D000C927C0FB82F98093DF01CC2319F088E44D
:1056E0009EE012C088E39EE019C08091DF0183FB39
:1056F000CC27C0F991E0C927C0FB83F98093DF0173
:10570000CC2351F08CE29EE00E94D5078091DF010E
:1057100081608093DF0182C08FE19EE00E94D50707
:105720009ACF89EC9AE00E94D5078DE99AE00E9411
:10573000D50780E69AE00E94D50789E39AE00E94A7
:10574000D50785EF99E00E94D50787EC99E0E6CF71
:1057500089EB99E00E94D5070E94C7161F928F938C
:105760008FE999E09F938F930E946E0880910C01BE
:105770001F928F9388E899E09F938F930E946E0801
:10578000809174011F928F9385E799E09F938F9387
:105790000E946E0880910D011F928F9382E699E01E
:1057A0009F938F930E946E088091E1019091E20196
:1057B000A091E301B091E401BF93AF939F938F93C6
:1057C0008EE499E09F938F930E946E088DB79EB7E9
:1057D00046960FB6F8949EBF0FBE8DBF3CCF0E9479
:1057E000BF1BC0910D0181E0C827C0930D01CC23E0
:1057F00029F085E19EE00E94D50710C08AE09EE076
:105800008DCF895303C08D5101C080E00E946B2968
:1058100022CF88E09EE00E94D507C0E08C2FCF9178
:10582000089580E0089580E00895CF93C82F809177
:10583000EF01813081F020F0823009F44CC042C188
:10584000A0910E01B0910F018C91813169F08232EB
:1058500009F03AC109C0A0910E01B0910F018C91DD
:10586000813111F0823249F48C2F0E94112C811168
:105870002FC08C2F0E9489292CC08C2F0E94132CA2
:10588000811126C0C431E1F070F4CB3081F0C03119
:10589000D1F40E94332881E499E00E94D50782E088
:1058A0008093EF0115C0C93259F0C83361F488ED17
:1058B0009AE00E94D50785E499E00E94D50708C0C8
:1058C0001092EF0103C18FE399E00E94D507FEC05B
:1058D00081E08170FDC0C43220F5CE3108F0C0C037
:1058E000CB3099F1C8F4C73009F0D2C08AE0809378
:1058F000150194E19093140193E090931301809328
:10590000120188E08093110188E28093100185EEF6
:1059100097E00E94D507BFC0C33149F1C431C1F03F
:10592000B7C0CB3409F4A9C028F4C93289F0C83310
:1059300061F0AEC0C13509F49EC0C23509F499C00A
:10594000CE3409F0A5C06AE09EC00E943328A3C0EF
:105950008091EE01882319F01092EE019CC082EF35
:1059600097E00E94D50781E08093EF01B1C08CECF5
:1059700097E00E94D5078AEB97E00E94D5078091B7
:1059800015011F928F9387EB97E09F938F930E944F
:105990006E0885EB97E00E94D50783EA97E00E94A6
:1059A000D507809114011F928F9380EA97E09F930F
:1059B0008F930E946E088EE997E00E94D5078FE8CA
:1059C00097E00E94D507809113011F928F938CE876
:1059D00097E09F938F930E946E088AE897E00E9459
:1059E000D50789E797E00E94D507809112011F92A1
:1059F0008F9386E797E09F938F930E946E0884E7CA
:105A000097E00E94D5078FE597E00E94D507809127
:105A100011011F928F938CE597E09F938F930E94C3
:105A20006E088AE597E00E94D50783E497E00E941C
:105A3000D507809110011F928F9380E497E09F9388
:105A40008F930E946E088EE397E00E94D5078DB772
:105A50009EB748960FB6F8949EBF0FBE8DBF1BC071
:105A6000CE51EC2FF0E0E65DFE4F80818093EE0199
:105A700012C061E003C061E006C06AE08091EE01FF
:105A80000E944A2808C08091EE010E94ED2803C0C0
:105A900083EE97E013C08091EE01882369F01F9296
:105AA0008F938DED97E09F938F930E946E080F90D8
:105AB0000F900F900F9004C08AED97E00E94D507D9
:105AC00081E006C01092EF0180E002C080E001CFCB
:105AD000CF910895E1E8F0E0808188608083808143
