:100000000C944C020C9493020C9493020C94930263
:100010000C9493020C9493020C9493020C9493020C
:100020000C9493020C9493020C940F0D0C94E20D1B
:100030000C9493020C9493020C9493020C949302EC
:100040000C9493020C94F4210C9493020C9493025C
:100050000C9493020C949E1B0C9493020C949302A8
:100060000C9493020C9493020C9493020C949302BC
:100070000C9493020C9493020C9493020C949302AC
:100080000C9493020C9493020C9493020C9493029C
:100090000C9493020C9493020C9493020C9493028C
:1000A0000C9493020C9493020C9493020000F0A120
:1000B0002E002B00E000E100354100001E0014007E
:1000C00004001D00340091001F001A0016001B00E0
:1000D000E3002A0020000800070006005000280066
:1000E00021001500090019004F00E200220017004E
:1000F0000A00050000002900500001540000E30040
:1001000000004B004F0001540000E30000004E00CF
:1001100023001C000B00110000002900240018001F
:100120000D0010005200E20025000C000E00360009
:1001300051002800260012000F0037002F002C006D
:100140002700130033423871300090002D00310039
:100150003478E500015200000100010001000100B7
:10016000010000003A001E022002220201000100EC
:100170003B001F0221022302010001003C002F026C
:1001800026022F00010001003D003002270230004E
:10019000010001003E00310235003502000001007F
:1001A0000100010000000100000001000100010049
:1001B00000000100000001003F0052005100240235
:1001C000000001004000240021001E000100010089
:1001D0004100250022001F003700010042002600D8
:1001E0002300200027000100430025022E023100D9
:1001F0002E00010044004500010001000100000044
:100200000050010001000100010000000100010098
:10021000F2000100010001000100F000F100010006
:100220000100010001000100F3000100F4000100E1
:100230000100010001000100F500010001000100C2
:1002400001000100000001000100010000000100A8
:100250000000010001000100000001000000010099
:100260000100010001000100000001000100010087
:1002700001000100A9000100010001000100AC0023
:10028000AA00B600010001000100AB00A8000100B7
:100290000100010001000100010001000100010056
:1002A000AE00010001000000160345007200670067
:1002B0006F0044006F007800200045005A000000E5
:1002C00016034500720067006F0044006F0078005D
:1002D000200045005A0000000403090409026D00D3
:1002E000040100A0FA090400000103010100092132
:1002F000110100012240000705810308000A0904DA
:1003000001000103010200092111010001224D0039
:100310000705820308000A09040200010300000027
:100320000921110100012236000705830308000A94
:10033000090403000103000000092111010001224A
:1003400039000705840310000112011001000000AC
:1003500008EDFE071301000102000105010906A1D5
:1003600001050719E029E7150025019508750181A8
:100370000205081901290595057501910295017578
:100380000391010507190029771500250195787556
:10039000018102C005010980A10185021601002624
:1003A000B7001A01002AB700751095018100C00539
:1003B0000C0901A1018503160100269C021A010007
:1003C0002A9C02751095018100C005010902A10156
:1003D0000901A10005091901290515002501950547
:1003E000750181029501750381010501093009310B
:1003F0001581257F95027508810609381581257FAD
:10040000950175088106050C0A38021581257F952E
:100410000175088106C0C005010906A1010507197B
:10042000E029E71500250195087501810295017500
:1004300008810105081901290595057501910295A5
:1004400001750391010507190029FF150026FF001A
:10045000950675088100C000000000000000000043
:100460000000010204060A0F17202C3A4A5D71872A
:100470009DB3C7DAE9F5FCFFFCF5E9DAC7B39D8760
:10048000715D4A3A2C20170F0A0604020100000091
:10049000000000000000000011241FBECFEFDAE0D2
:1004A000DEBFCDBF04B603FE27C08091FA01909154
:1004B000FB01A091FC01B091FD018730904BA7405A
:1004C000B04BD1F41092FA011092FB011092FC0192
:1004D0001092FD0114BE84B7877F84BF0FB6F894D5
:1004E000A895809160008861809360001092600000
:1004F0000FBEE0E0FFE3099511E0A0E0B1E0E4E920
:10050000F7E402C005900D92A433B107D9F721E0BA
:10051000A4E3B1E001C01D92AA3FB207E1F70E9437
:100520005B0A0C94C8230C940000611107C0FC0105
:100530008281882331F085EE0E94BA1080E090E03D
:10054000089585EE0E948211F9CF08956091BD0152
:100550007091BE018091BF019091C0010E94CF1A9D
:1005600056985E9825982D9826982E9827982F981B
:10057000813019F0823021F00895259A2D9A08953E
:10058000269A2E9A08950C94A60256985E9825985D
:100590002D9826982E9827982F988FEF90E090937B
:1005A00089008093880090938B0080938A009093B9
:1005B0008D0080938C00259A2D9A2FEF80E792E092
:1005C000215080409040E1F700C00000269A2E9A0A
:1005D0002FEF80E792E0215080409040E1F700C08B
:1005E0000000279A2F9A2FEF80E792E02150804059
:1005F0009040E1F700C0000025982D982FEF80E78C
:1006000092E0215080409040E1F700C00000269821
:100610002E982FEF80E792E0215080409040E1F744
:1006200000C0000027982F9856985E9825982D981E
:1006300026982E9827982F98089589EA809380000D
:1006400089E08093810024982C983F988AB18F7418
:100650008AB96E98479A8BB1806B8BB9769A0E9453
:10066000C5020C94A50280E28093000180913401C0
:1006700081110EC00E94820381E0809334012FEF2C
:1006800083ED90E3215080409040E1F700C00000EE
:1006900080E40E9488038093000181112EC00E9493
:1006A000B20380930001811128C00E94B20380939D
:1006B0000001811122C08FE30E94B20380930001E8
:1006C00081111BC00E94AA0380E40E9488038093CA
:1006D0000001811112C08CE00E94B20380930001DE
:1006E00081110BC00E94B20380930001811105C0EB
:1006F0008FE30E94B203809300010E94AA038091BD
:10070000000108951092B9008AE08093B80008951E
:1007100094EA9093BC009091BC0097FFFCCF90911D
:10072000B900987F983021F0903111F081E0089560
:100730008093BB0084E88093BC008091BC0087FF5D
:10074000FCCF8091B900887F883111F0803471F737
:1007500080E0089584E98093BC008091BC0084FD12
:10076000FCCF08958093BB0084E88093BC00809107
:10077000BC0087FFFCCF9091B900987F81E0983250
:1007800009F480E0089584E88093BC008091BC0067
:1007900087FFFCCF8091BB000895809100018111FB
:1007A00015C080E40E9488038093000181110CC071
:1007B00082E10E94B20380930001811105C08FEF96
:1007C0000E94B203809300010E94AA0384B1807F3B
:1007D00084B985B1807F85B98AB1837F8AB98BB1AD
:1007E000837F8BB93E98469808950E943303809387
:1007F00000010E94CD0380B38C7080BB81B3836FF6
:1008000081BBE4E4F1E0A6E3B1E011921D9281E046
:10081000E235F807D1F70C941D03AF92BF92CF9247
:10082000DF92EF92FF920F931F93CF93DF9380910C
:100830000001882379F0809135018F5F8093350125
:10084000811108C00E94330380930001811102C00E
:100850000E94C50286E3C82E81E0D82E760100E012
:1008600010E0D2E0AA24A394B12C073008F06EC0A7
:100870008091000181111BC080E40E948803809355
:100880000001811112C082E10E94B2038093000135
:1008900081110BC0C501002E01C0880F0A94EAF730
:1008A00080950E94B203809300010E94AA03C09128
:1008B0000001C11193C080E40E948803809300016D
:1008C000811112C083E10E94B20380930001811163
:1008D0000BC081E40E94880380930001811104C051
:1008E0000E94C303C82FC0950E94AA03D7018C9110
:1008F0008C1719F0CC93D09301010E94CD030F5FA8
:100900001F4FBFEFEB1AFB0A0E30110509F0ADCFF8
:1009100080910101882361F0815080930101882337
:1009200009F45EC0EFE9FFE03197F1F700C0000085
:100930000E94C30281E0DF91CF911F910F91FF9040
:10094000EF90DF90CF90BF90AF9008950A30F1F014
:1009500078F40830A9F00930B1F0209A2898E0EA3C
:10096000EA95F1F78FB18095799B18C090E017C098
:100970000C3091F070F00D3081F73E9A4698EFCF31
:10098000219A2998ECCF229A2A98E9CF239A2B987A
:10099000E6CF529A5B98E3CF539AFCCF92E0C82FF0
:1009A000C170C92B7C9B14C080E0C82B7D9B12C0FA
:1009B00080E0C82B7E9B10C080E0C82B8FB1809553
:1009C000881F8827881F8295880F807EC82B8ECF2E
:1009D00084E0EBCF88E0EDCF80E1EFCFC0E086CFC1
:1009E000E4E4F1E0D6018D916D018193B4E4CB167E
:1009F000B1E0DB06B9F79CCFE82FF0E0EC5BFE4FEF
:100A00008081089508950F931F93CF9304E411E01C
:100A1000C0E0F80181918F0190E00E94C31AC80FD5
:100A2000F1E002351F07A9F78C2FCF911F910F918D
:100A3000089581E0089581E008950C941B050895C0
:100A40000F931F93CF93DF938C01FC01C081D18161
:100A5000CE010E944E19BE010E94C605EC01B801EC
:100A60000E941D05882339F1F8018281882309F449
:100A70006AC080915D01811124C0C431F0E5DF07B7
:100A800009F074C00E941F0581E080935D010E94FF
:100A9000681B90935C0180935B011092540110924B
:100AA0005601109255011092580110925701109260
:100AB0005A011092590180E0DF91CF911F910F915F
:100AC000089580915B0190915C010E94741B883CA9
:100AD000910570F480915401E82FF0E0EE0FFF1FB4
:100AE000EB5AFE4FD183C0838F5F80935401E3CFD5
:100AF000C43880E5D80779F0C538D045F1F181E0F8
:100B00008093520180935301C801DF91CF911F91CF
:100B10000F910C941905F8018281882331F010920D
:100B2000520182E00E94D111C6CF80915201811101
:100B300006C086E20E94BA1086E20E94821182E01C
:100B40000E94D811B8CFC438F0E5DF0721F3C538CB
:100B5000D045A9F680915301811106C087E20E9419
:100B6000BA1087E20E94821180E2EACFC438E0E541
:100B7000DE07A9F2C538D04511F6F8018281882335
:100B800049F31092530180E2CDCF0895972F70E082
:100B900026E0929F600D711D1124FB0194E5899F51
:100BA000E00DF11D1124EE0FFF1FE055FF4F859161
:100BB00094910895FC01EE0FFF1FE45DF0408591D4
:100BC00094910895FC01EE0FFF1FE455FF4F8591AE
:100BD00094910895CF93DF93EC018115904340F5F4
:100BE000C11580E2D80708F0D9C0CB3BD10588F405
:100BF000C83AD10508F081C0C53AD10508F072C0E5
:100C0000C430D10598F4C130D10581F0C0E0D0E006
:100C10000DC0CF3FD10509F048F4C03FD10508F021
:100C2000BBC0CE01805E9109089780F7CE01BAC0A3
:100C3000C13090E5D90709F4BBC010F5C0318FE48D
:100C4000D80760F4C11590E4D90708F0AEC0C1150B
:100C500021E3D207D8F6DD27D06CE8CFC11580E5B7
:100C6000D807A1F60E9439148FEF94E32CE081504D
:100C700090402040E1F700C000000E94C31BD6CF87
:100C8000C11597E5D90730F5C03121E5D20708F045
:100C90001EC1C43180E5D80708F0B8CF0E94691D95
:100CA000811102C00E944F1D0E94861D90E090930A
:100CB000FA018093F901C23080E5D80709F07EC0BF
:100CC0008091F90181608093F9018091F9010E947E
:100CD0008A1DACCFCE0190578115904108F096CF78
:100CE000DF7055C1C53AD10509F453C1C63AD105E3
:100CF00009F052C1C2E8D0E499CFC83AD10509F44D
:100D00004EC1C93AD10509F44DC1CA3AD10509F419
:100D10004CC1CB3AD10509F44BC1CC3AD10509F409
:100D20004AC1CD3AD10509F449C1C03BD10509F406
:100D300048C1CE3AD10509F447C1CF3AD10509F4EB
:100D400046C1C13BD10509F445C1C23BD10509F4F7
:100D500044C1C33BD10509F443C1C43BD10509F4E7
:100D600042C1C53BD10509F441C1C63BD10509F4D7
:100D700040C1C73BD10509F43FC1C83BD10509F4C7
:100D80003EC1C93BD10509F43DC1CA3BD10509F4B7
:100D90003CC1C0E0D4E44ACFD06548CFCE019F70BB
:100DA0000E94E205DF91CF910895DF70D06A3ECFB7
:100DB0008091DA0181608093DA0138CFC43090E508
:100DC000D90721F48091F90182607DCFC63020E5FA
:100DD000D20721F48091F901846075CFC83080E595
:100DE000D80721F48091F90188606DCFCA3090E571
:100DF000D90721F48091F901806165CFCC3020E5DD
:100E0000D20721F48091F90180625DCFCE3080E578
:100E1000D80721F48091F901806455CFC03190E565
:100E2000D90721F48091F90180684DCFC23120E5C6
:100E3000D20721F48091F9018460D6CFC33080E5D8
:100E4000D80721F48091F9018E7F3DCFC53090E520
:100E5000D90721F48091F9018D7F35CFC73020E586
:100E6000D20721F48091F9018B7F2DCFC93080E525
:100E7000D80721F48091F901877F25CFCB3090E509
:100E8000D90721F48091F9018F7E1DCFCD3020E567
:100E9000D20721F48091F9018F7D15CFCF3080E505
:100EA000D80721F48091F9018F7B0DCFC13190E5F6
:100EB000D90721F48091F9018F7705CFC33120E55F
:100EC000D20709F002CF8091F9018B7FD5CF8D2F0A
:100ED00099278F70992781309105E9F49E0123703D
:100EE000332702C0880F991F2A95E2F79C689E015C
:100EF00044E0220F331F4A95E1F722273370822BFB
:100F0000932B53E0CC0FDD1F5A95E1F7C076DD2718
:100F1000C82BD92B8BCE8230910529F4DC2FCC271E
:100F2000C16FD06A83CE8330910599F49E012370FE
:100F3000332781E090E002C0880F991F2A95E2F7DD
:100F40009C6823E0CC0FDD1F2A95E1F7C07ED770A7
:100F5000DFCF8430910561F49E012370332781E057
:100F600090E002C0880F991F2A95E2F79A68E9CFAE
:100F70008530910529F4DC2FCC27C46FD06A56CE7A
:100F8000069709F053CEDC2FCC27CC27DF71D06237
:100F90004DCEC1E8D0E44ACEC3E8D0E447CEC2EE9D
:100FA000D4E444CEC9EED4E441CECAEED4E43ECE7D
:100FB000C5EBD4E43BCEC6EBD4E438CEC7EBD4E4E7
:100FC00035CECCECD4E432CECDECD4E42FCEC3E895
:100FD000D5E42CCECAE8D5E429CEC2E9D5E426CEA4
:100FE000C4E9D5E423CEC1E2D6E420CEC3E2D6E400
:100FF0001DCEC4E2D6E41ACEC5E2D6E417CEC6E2D0
:10100000D6E414CEC7E2D6E411CECAE2D6E40ECEC0
:10101000972F70E026E0929F600D711D1124FB0157
:1010200094E5899FE00DF11D1124EE0FFF1FE0559F
:10103000FF4F85919491803E910520F5803C91056C
:1010400008F040C08133910509F467C058F4893233
:10105000910509F45BC08A32910509F465C00E94CC
:10106000EA0508958933910581F18238910569F186
:1010700085339105A1F78091F90185FF4BC089E285
:1010800090E0EDCF833E910589F178F4803E9105A3
:1010900019F1823E910519F78091F90182FF2AC06A
:1010A00084FF21C080E090E0DACF863E910529F1EF
:1010B000873E9105A1F68091F90183FF22C086EE5B
:1010C00090E0CDCF0E94DA0508952091F9012370B8
:1010D00031F280EE90E0C3CF8091F90180FFF9CF2B
:1010E00089E390E0BCCF83EE90E0B9CF8091F90125
:1010F00082FFD6CF82EE90E0B2CF8091F90183FFDC
:10110000DECF84FDCFCF87EE90E0A9CF8091F901AB
:1011100085FFB5CF85E390E0A2CF8091F90186FFEE
:1011200007C08AE290E09BCF8091F90186FFF9CF5A
:1011300081E390E094CF08950C949B0880916E0118
:101140000895CF93DF9300D01F92CDB7DEB79C01F7
:101150008091F001843019F593E099833B832A83D1
:101160009093E9008FEF9091E800815095FD06C0C3
:1011700095ED9A95F1F700008111F5CF8091E80087
:1011800085FF0DC040E050E063E070E0CE010196C5
:101190000E94070B8091E8008E778093E8000F9003
:1011A0000F900F90DF91CF910895CF93DF9300D0F0
:1011B0001F92CDB7DEB72091F001243021F522E057
:1011C00029839B838A8383E08093E9008FEF90914A
:1011D000E800815095FD06C095ED9A95F1F7000065
:1011E0008111F5CF8091E80085FF0DC040E050E00F
:1011F00063E070E0CE0101960E94070B8091E80049
:101200008E778093E8000F900F900F90DF91CF9131
:1012100008959C018091F0018430F9F482E080937C
:10122000E9009FEF8091E800915085FD06C085EDB3
:101230008A95F1F700009111F5CF8091E80085FFC4
:101240000CC040E050E065E070E0C9010E94070B6F
:101250008091E8008E778093E8000895CF93DF9324
:10126000EC018091F001843071F590910C0199238B
:1012700069F190910D01992349F18093E9008FEF75
:101280009091E800815095FD06C095E19A95F1F79F
:1012900000008111F5CF8091E80085FF14C040E087
:1012A00050E060E170E0CE010E94070B8091E80001
:1012B0008E778093E80080E1FE01AEE5B1E0019019
:1012C0000D928A95E1F7DF91CF91089581E08093A7
:1012D000E9008FEF9091E800815095FD06C095EDF3
:1012E0009A95F1F700008111F5CF8091E80085FF14
:1012F000EACF40E050E068E070E0D5CF8091EF01A8
:10130000811109C00E94940C0E94F10C8091E200AE
:1013100084608093E20008951092EF01089508958B
:101320000C94E1210E94591B0E94E7210E94970F13
:101330000C949C0842E061EC81E00E94110C42E0B8
:1013400061EC82E00E94110C42E061EC83E00E94BB
:10135000110C42E161EC84E00C94110C8091F201DB
:10136000833009F455C030F4813071F1823009F4D2
:1013700091C008958A3009F47DC08B3009F463C0B0
:10138000893009F044C08091F101813209F03FC0F9
:101390008091F5019091F601009711F00397B9F54E
:1013A0008091E800877F8093E8008091E80082FFC9
:1013B0002AC08091F10080936E018091E8008B77C4
:1013C0008093E8000C94460C8091F101813AF9F485
:1013D0008091E800877F8093E8008091F5019091EB
:1013E000F601892B61F460E18EE591E070E00E94E6
:1013F000560B8091E8008B778093E800089560E0B9
:1014000080E090E0F3CF8091F0018111CECF08957C
:101410008091F101813AD9F78091F5019091F6011F
:10142000892BA9F78091E800877F8093E80080915D
:10143000E80080FFFCCF80910C018093F100809147
:10144000E8008E77BDCF8091F101813201F7809164
:10145000F5019091F601892BD1F68091E800877F04
:101460008093E8000E94460C8091F30180930C0168
:101470000C9439148091F101813249F68091E80091
:10148000877F8093E8000E94460C8091F40180934E
:101490006F0108958091F101813A09F0B8CF8091F0
:1014A000E800877F8093E8008091E80080FFFCCF10
:1014B00080916F01C2CF84B7877F84BF0FB6F89445
:1014C000A895809160008861809360001092600010
:1014D0000FBE90E080E80FB6F8948093610090937F
:1014E00061000FBE0E94E60F0E94940C0E94F10C56
:1014F0008091E20084608093E20078940E94760FED
:101500000E94E80F82E091E00E94920F0E94CF219A
:101510008091F001853019F00E94EE0FF9CF0E9402
:101520001E1B8091EE01882399F30E944B1B882398
:1015300079F30E94F10AECCF292F332723303105AC
:1015400079F158F421303105F1F02230310519F1EB
:1015500080E090E020E030E01AC02132310599F1BE
:1015600022323105A9F7643098F770E0FB01EE0FE5
:10157000FF1FE65EFE4F208131816A5E7E4FFB01D8
:10158000808190E004C082E190E029E433E0FA0138
:101590003183208308958DE690E02CED32E0F7CF83
:1015A00099278130910561F028F0029789F6E8EAE1
:1015B000F2E002C0E8EDF2E0849190E09F01E7CF15
:1015C000E0ECF2E0F9CF643008F0C2CFE62FF0E0B3
:1015D000EE0FFF1FEE5DFE4F2081318189E090E02C
:1015E000D6CF80E189BD82E189BD09B400FEFDCF7F
:1015F0008091D8008F7D8093D8008091E000826038
:101600008093E0008091E00081FDFCCF0895AF92CF
:10161000BF92DF92EF92FF920F931F93CF93DF93CE
:10162000EC018B017A010E94650CD82E811124C037
:10163000E114F10439F0F70180819181081B190B45
:10164000C80FD91FA12CB12C01151105A9F080914B
:10165000E80085FD22C08091E8008E778093E80045
:10166000E114F104A1F0F70180819181A80EB91E67
:10167000B182A08285E0D82E8D2DDF91CF911F9170
:101680000F91FF90EF90DF90BF90AF9008950E9470
:10169000650C8823C9F2D82EEFCF89918093F10091
:1016A00001501109FFEFAF1ABF0ACECF2091F70109
:1016B0003091F80126173707A8F06115710529F454
:1016C0002091E8002E772093E800FC0120E06115CE
:1016D000710551F4211108C08091E80082FF33C0E8
:1016E00080E00895B901F1CF8091F0018823B9F12C
:1016F0008530B9F18091E80083FD2FC08091E8002A
:1017000082FDEACF8091E80080FFE1CF2091F300D5
:101710008091F20090E0922B6115710519F08830EC
:10172000910550F021E0089709F020E08091E80051
:101730008E778093E800CBCF21912093F100615008
:1017400071090196E9CF8091F001882341F085303D
:1017500041F08091E80083FFBFCF81E0089582E0EF
:10176000089583E008952091F7013091F80126173C
:101770003707A8F06115710529F42091E8002E774C
:101780002093E800FC0120E06115710551F421115E
:1017900008C08091E80082FF34C080E00895B9015C
:1017A000F1CF8091F0018823C1F18530C1F18091A2
:1017B000E80083FD30C08091E80082FDEACF80918F
:1017C000E80080FFE1CF2091F3008091F20090E0EB
:1017D000922B6115710519F08830910550F021E0C8
:1017E000089709F020E08091E8008E778093E80068
:1017F000CBCF24912093F10031966150710901966D
:10180000E8CF8091F001882341F0853041F080914C
:10181000E80083FFBECF81E0089582E0089583E071
:101820000895982F973028F08F708093E90081E019
:1018300008959093E900981751F07091EC00209171
:10184000ED005091F00021FD06C09F5FEBCF242FEB
:10185000762F50E0F8CF3091EB003E7F3093EB00D5
:101860003091ED003D7F3093ED003091EB00316021
:101870003093EB007093EC002093ED005093F00058
:101880002091EE0027FDE1CF80E008958091F101E5
:1018900087FF13C08091E80082FF06C08091E800B6
:1018A0008B778093E80004C08091F0018111F2CF22
:1018B00008958091F0018823D9F38091E80080FF9A
:1018C000F8CF8091E8008E77ECCF2091E400309142
:1018D000E50085E69091EC0090FD20C09091E80035
:1018E00092FD20C09091F001992391F0953091F0F4
:1018F0009091EB0095FD10C04091E4005091E500FF
:101900004217530739F381509A0121F784E0089573
:1019100082E0089583E0089581E008959091E800C1
:1019200090FFE0CF80E008950E94020D0E940A0D12
:10193000E0EEF0E0808181608083E8EDF0E080817E
:101940008F77808319BCA7EDB0E08C918E7F8C934C
:1019500080818F7E80831092EF0108950F931F93F3
:10196000CF93DF930E94020D0E940A0DC8EDD0E0D4
:1019700088818F77888388818068888388818F7D3C
:10198000888319BC1092F0011092EC011092EE01C4
:101990001092ED0100EE10E0F80180818B7F8083D2
:1019A00088818160888342E060E080E00E94110CC1
:1019B000E1EEF0E080818E7F8083E2EEF0E08081D6
:1019C00081608083808188608083F80180818E7F40
:1019D0008083888180618883DF91CF911F910F91EF
:1019E0000895E8EDF0E080818F7E8083E7EDF0E000
:1019F00080818160808384E082BF81E08093EF01F9
:101A00000C94AE0CE8EDF0E080818E7F8083109224
:101A1000E20008951092DA001092E10008951F92FA
:101A20000F920FB60F9211242F933F934F935F9312
:101A30006F937F938F939F93AF93BF93EF93FF9396
:101A40008091E10082FF0BC08091E20082FF07C01D
:101A50008091E1008B7F8093E1000E94750F80915F
:101A6000DA0080FF19C08091D80080FF15C08091F6
:101A7000DA008E7F8093DA008091D90080FF94C0D5
:101A800080E189BD82E189BD09B400FEFDCF81E01E
:101A90008093F0010E947E098091E10080FF19C0CF
:101AA0008091E20080FF15C08091E2008E7F8093DC
:101AB000E2008091E20080618093E2008091D80092
:101AC00080628093D80019BC85E08093F0010E9469
:101AD00090098091E10084FF29C08091E20084FF99
:101AE00025C080E189BD82E189BD09B400FEFDCF3A
:101AF0008091D8008F7D8093D8008091E1008F7E07
:101B00008093E1008091E2008F7E8093E2008091DB
:101B1000E20081608093E2008091EC01882309F467
:101B200049C084E08093F0010E9492098091E10015
:101B300083FF29C08091E20083FF25C08091E100EE
:101B4000877F8093E10082E08093F0011092EC01A6
:101B50008091E1008E7F8093E1008091E2008E7F92
:101B60008093E2008091E20080618093E20042E095
:101B700060E080E00E94110C8091F000886080930A
:101B8000F0000E948F09FF91EF91BF91AF919F915B
:101B90008F917F916F915F914F913F912F910F9016
:101BA0000FBE0F901F90189519BC1092F0010E9463
:101BB0008C0972CF8091E30087FD02C081E0B2CF33
:101BC00083E0B0CF1F920F920FB60F9211242F9384
:101BD0003F934F935F936F937F938F939F93AF93B5
:101BE000BF93CF93EF93FF93C091E900CF708091A3
:101BF000EC001092E9008091F000877F8093F00064
:101C000078940E941E0E1092E9008091F000886086
:101C10008093F000C093E900FF91EF91CF91BF91C5
:101C2000AF919F918F917F916F915F914F913F9174
:101C30002F910F900FBE0F901F9018951F93CF9369
:101C4000DF93CDB7DEB7AA970FB6F894DEBF0FBE0D
:101C5000CDBFE1EFF1E08091F100819321E0E93F18
:101C6000F207C9F70E94AE098091E80083FF44C0E3
:101C70008091F1019091F201492F50E04A305105D5
:101C800008F03AC0FA01E95BF14F0C947823510E49
:101C9000750E7C0E750E7C0ED00EF30E7C0E480F6A
:101CA000550F803879F0823839F58091F5018F70C1
:101CB0008093E9008091EB0085FB882780F91092E2
:101CC000E90006C08091ED019091EE0191118260D2
:101CD0009091E800977F9093E8008093F100109234
:101CE000F1008091E8008E772DC0282F2D7F21F400
:101CF0008823D1F0823059F18091E80083FF0AC037
:101D00008091E800877F8093E8008091EB008062FB
:101D10008093EB00AA960FB6F894DEBF0FBECDBF3E
:101D2000DF91CF911F9108958091F301813021F7C8
:101D3000933009F080E08093EE011092E9008091E9
:101D4000E800877F8093E8000E94460CD5CF809101
:101D5000F3018111F2CF8091F5018F7069F28093C8
:101D6000E9002091EB0020FFE8CF933031F480911F
:101D7000EB0080628093EB00E0CF9091EB009061EC
:101D80009093EB0021E030E001C0220F8A95EAF742
:101D90002093EA001092EA008091EB008860EACF7D
:101DA0008111AACF1091F3011F778091E300807811
:101DB000812B8093E3008091E800877F8093E80087
:101DC0000E94460C8091E80080FFFCCF8091E300E8
:101DD00080688093E300111104C082E08093F001D9
:101DE0008BCF83E0FBCF8058823008F085CF809185
:101DF000F3019091F4018C3D23E09207A1F583E07B
:101E00008A838AE289834FB7F894DE01139620E033
:101E10003EE051E2E32FF0E050935700E49120FFC1
:101E200003C0E295EF703F5FEF708E2F90E0EA30D5
:101E3000C0F0C7968D939D932F5F243159F74FBF04
:101E40008091E800877F8093E8006AE270E0CE012D
:101E500001960E94560B8091E8008B778093E800F2
:101E60004BCFC096E7CFAE014F5F5F4F6091F5015A
:101E70000E949C0ABC01892B09F43ECF9091E80096
:101E8000977F9093E80089819A810E94B30BE3CFFA
:101E9000803809F031CF8091E800877F8093E80097
:101EA0008091EC018093F1001CCF811125CF90919E
:101EB000F301923008F020CF8091E800877F809373
:101EC000E8009093EC010E94460C8091EC0188237D
:101ED00011F084E005C08091E30087FDFACF81E036
:101EE0008093F0010E949A0907CF0895CF938091C3
:101EF000F001882399F0C091E900CF708091EC0047
:101F000080FD0EC080E0C82B1092E9008091E800AF
:101F100083FD0E941E0ECF70C093E900CF910895FB
:101F200080E8F1CF90937501809374010895E0915A
:101F30007401F0917501309721F00190F081E02D4E
:101F4000099480E00895E0917401F0917501309753
:101F500021F00280F381E02D09940895E09174014D
:101F6000F0917501309721F00480F581E02D0994FE
:101F7000089520917201309173012817390771F08B
:101F80009093730180937201E0917401F091750157
:101F9000309721F00680F781E02D09940895209173
:101FA0007001309171012817390771F09093710118
:101FB00080937001E0917401F0917501309721F0E8
:101FC0000084F185E02D0994089508950C94E50F9F
:101FD0000E945F1B0E94F5030C94211C8F929F921C
:101FE000AF92BF92CF92DF92EF92FF920F931F9327
:101FF000CF93DF9300D000D01F92CDB7DEB70E9401
:102000000D0487E7C82E81E0D82E0DE010E0AA2449
:10201000A394B12C802E802F0E94FC04F82EF60190
:10202000E5848E111AC001501109F1E0CF1AD108D0
:102030000F3F2FEF120771F78FEF89838A831B827F
:102040000E94681B8160782F9D838C8349815A810F
:102050006B818D810E948C102AC08091DA0181FDF4
:102060000E94020585E090E0EF249501082E01C052
:10207000220F0A94EAF7922E2E21C1F189838A82D7
:10208000F92081E009F480E08B830E94681B816065
:10209000782F9D838C8349815A816B818D810E9429
:1020A0008C10F801E958FE4F8081892580830E94B9
:1020B000051F0E94970F909176018917D9F00E9411
:1020C000970F809376010F900F900F900F900F90C5
:1020D000DF91CF911F910F91FF90EF90DF90CF9004
:1020E000BF90AF909F908F900C949C08019708F040
:1020F000BCCF99CF0F900F900F900F900F90DF9162
:10210000CF911F910F91FF90EF90DF90CF90BF90F4
:10211000AF909F908F900895CF93DF93CDB7DEB7A8
:102120002B970FB6F894DEBF0FBECDBF4F835887F5
:1021300069877A878B87DE01119686E0FD0111920F
:102140008A95E9F785E0FE01379601900D928A9510
:10215000E1F749815A816B817C818D819E810E944A
:10216000F0162B960FB6F894DEBF0FBECDBFDF91F1
:10217000CF910895CF93C82F882309F4C1C0823826
:1021800079F40E94970F81FDBBC089E30E94D019AA
:102190000E94941A89E30E940C1ACF910C94941A0D
:1021A000833859F40E94970F80FDAAC083E50E94EE
:1021B000D0190E94941A83E5EECF843859F40E9416
:1021C000970F82FD9DC087E40E94D0190E94941A47
:1021D00087E4E1CF8CEF8C0F813A48F48C2F0E947A
:1021E0003B2181118DC08C2F0E94D019D6CF80E267
:1021F0008C0F883048F4C77081E001C0880FCA9501
:10220000EAF70E944B1AC9CF8BE58C0F833078F424
:10221000C53A39F0C63A41F083E890E0CF910C948A
:10222000B90F81E890E0FACF82E890E0F7CF88E537
:102230008C0F833108F064C0C83A49F1C93A51F1B2
:10224000CA3A59F1CB3A61F1CC3A69F1CD3A71F120
:10225000C03B79F1CE3A81F1CF3A89F1C13B91F19E
:10226000C23B99F1C33BA1F1C43BA9F1C53BB1F11C
:10227000C63BB9F1C73BC1F1C83BC9F1C93BD1F17C
:10228000CA3BD9F180E090E0CF910C94CF0F82EE61
:1022900090E0FACF89EE90E0F7CF8AEE90E0F4CFAD
:1022A00085EB90E0F1CF86EB90E0EECF87EB90E00E
:1022B000EBCF8CEC90E0E8CF8DEC90E0E5CF83E8BD
:1022C00091E0E2CF8AE891E0DFCF82E991E0DCCFD4
:1022D00084E991E0D9CF81E292E0D6CF83E292E027
:1022E000D3CF84E292E0D0CF85E292E0CDCF86E2F8
:1022F00092E0CACF87E292E0C7CF8AE292E0C4CFF1
:10230000CF910895882309F44BC0823871F40E945C
:10231000970F81FF45C089E30E94D0190E94941A4B
:1023200089E30E940C1A0C94941A833859F40E9481
:10233000970F80FF35C083E50E94D0190E94941A40
:1023400083E5EFCF843859F40E94970F82FF28C0AD
:1023500087E40E94D0190E94941A87E4E2CF9CEF90
:10236000980F913AF0F290E2980F983050F48770FD
:1023700091E001C0990F8A95EAF7892F0E94511ABE
:10238000D2CF9BE5980F933020F480E090E00C943E
:10239000B90F885A833120F480E090E00C94CF0F7D
:1023A0000895882321F00E944B1A0C94941A0895E2
:1023B000882321F00E94511A0C94941A08958F9248
:1023C0009F92AF92BF92DF92EF92FF920F931F9373
:1023D000CF93DF937C01D62FC72FFC010581029597
:1023E0000F70128111110E946A1A0E94C919D82E09
:1023F000882371F0112331F180E28D0F883010F1C4
:1024000082E00E94B2190E94C91991E0D82ED92603
:10241000EC2FE295EF708E2F90E0FC01EE5EFD4E0A
:102420000C947823241224126F126F12A712C51273
:102430004D124D12D0124D126B136B13DC134D1253
:102440004D12E513D12CE4CF8C2F807FCF708823E1
:1024500011F0C295C07F112399F0CC2349F080E29E
:102460008D0F883048F48C2F0E944B1A0E94941ACA
:102470008D2F0E94BA1011C08C2F0E945C1AF6CFCB
:102480008D2F0E948211CC2341F0D05E8C2FD8304A
:1024900018F50E94511A0E94941ADD2009F49CC17B
:1024A0000E94A51980FD98C1F70112820E949F1910
:1024B0000E949218C7010E94F8130E949F19DF9191
:1024C000CF911F910F91FF90EF90DF90BF90AF9051
:1024D0009F908F900C94B3180E94621ADCCF8C2FBF
:1024E000807FCF70803211F0C295C07FDD2339F03C
:1024F000D130F1F0112329F1002329F0B9CF1123B4
:1025000061F0011104C08C2F0E94D111C6CF8C2F15
:102510000130D1F70E947E1AC0CF011106C00E947F
:10252000811A8C2F0E94D811B8CF0130C1F7B5CFD6
:10253000112321F0023008F0B0CFE5CF0111ADCF6B
:10254000F0CF002371F38D2F0E948211A6CF8C2F24
:1025500086958695837059F0813009F09ECF1123BE
:1025600089F08D2F9C2F93700E94CF0F96CF11234F
:1025700031F08D2F9C2F93700E94B90F8ECF80E089
:1025800090E0FACF80E090E0EFCF8D2F112329F07B
:102590000E940E1E0E94FA1E80CF0E94761EFACF65
:1025A0008C2F837009F048C0111177CF2D2F229501
:1025B00026952770220F220F6D2F6F70862E912C7B
:1025C000A12CB12C022E04C0880C991CAA1CBB1C87
:1025D0000A94D2F7D4FF1EC06FE070E080E090E074
:1025E00004C0660F771F881F991F2A95D2F7609540
:1025F000709580959095C695C695C370C23071F060
:10260000A0F4682979298A299B29C13091F00E9478
:102610003B1843CF60E070E0CB01EDCF682979290A
:102620008A299B290E94571838CF0E943B18C50160
:10263000B4010E941F1831CF1123C9F18C2F817072
:10264000882309F42ACF2D2F229526952770220F53
:10265000220F6D2F6F70862E912CA12CB12C022E83
:1026600004C0880C991CAA1CBB1C0A94D2F7D4FF86
:1026700020C06FE070E080E090E004C0660F771F3C
:10268000881F991F2A95D2F760957095809590952F
:10269000C695C695C370C23081F0B0F46829792917
:1026A0008A299B29C130A1F00E941519F6CE869582
:1026B000C7CF60E070E0CB01EBCF682979298A2988
:1026C0009B290E943119E9CE0E941519C501B40158
:1026D0000E94F918E2CE8D2F90E0FC01E05EF10936
:1026E000E531F10508F060C0E858FC4E0C94782301
:1026F0008D138D138D138D138D138D138D138D13DA
:102700008D138D138D138D138D138D138D138D13C9
:102710009A13A713AE13B513BF13DF708C2F8F71ED
:10272000112321F00E9492188D2FEECE0E94B31833
:102730008D2FF8CE112339F00111AFCE8C2F8F7170
:102740000E94D818AACE023008F0A7CEF7CF1123E6
:1027500039F08C2F8F710E9492189FCE1123C9F3EC
:102760008C2F8F710E94B31898CE112329F08C2FD3
:102770008F710E947D1891CE0E9473188ECE112306
:1027800049F0CF718C2F0E94921863E08C2F0E9429
:10279000A91983CE81E00E94B219023008F47DCEDF
:1027A00082E00E94B21979CE112319F0002389F238
:1027B0005FCE0023A9F2C7CE4C2F4F706D2FC701FB
:1027C0000E9495020E94991768CE4C2F4F706D2F72
:1027D000C7010E94C50561CEDF91CF911F910F9176
:1027E000FF90EF90DF90BF90AF909F908F900895F3
:1027F0000F931F93CF93DF93EC01988189812B81F5
:102800003C81232B39F08F3F19F481E09F3F19F071
:1028100080E001C081E080FD13C0CE010E94200550
:10282000882371F0688179818A810E949B198C01CB
:102830000E944D190E941418B801CE010E94DF11A8
:10284000DF91CF911F910F9108950E946A1A0E9403
:102850007B1A0E943D1A0E94941A0E94A81F0E948F
:10286000FA1E80E090E00E94B90F80E090E00C94A6
:10287000CF0F0E94591A0C9425140E949019292FE9
:1028800022952F702C3060F42A3018F42250223018
:1028900058F4803F19F050F4803E30F481E0089500
:1028A0002C3039F02F3029F080E00895843FE1F793
:1028B000F5CF93FB882780F90895CF93DF9300D05D
:1028C00000D01F92CDB7DEB70F900F900F900F90F2
:1028D0000F90DF91CF910895CF93DF9300D000D078
:1028E00000D0CDB7DEB726960FB6F894DEBF0FBE88
:1028F000CDBFDF91CF9108951F93CF93DF93C09108
:10290000850116E080918601C81304C0DF91CF9144
:102910001F910895D0E01C9FF0011D9FF00D112420
:10292000E957FE4F40815181628173818481958195
:102930000E946C142196C770E5CF4091B701509169
:10294000B8016091B9017091BA018091BB01909179
:10295000BC010C946C141F93CF93DF938091BC0146
:1029600082958F70D1F48091B9018823B1F0809164
:102970008501D0918601B091B701C091B801409115
:10298000BA015091BB01A1E0BF3F09F0A0E0BA013C
:102990006095709516E08D1304C0DF91CF911F9163
:1029A000089541155105D9F1CF3FD9F120E090E0CC
:1029B00020FD3CC0189FF001199FF00D1124E9572C
:1029C000FE4F21812C1332C020812B132FC0228176
:1029D00021112CC0238134812417350720F1241BB9
:1029E000350B283C310510F52091BC012F7020617A
:1029F0002093BC0126E0289FF001299FF00D1124AF
:102A0000E457FE4F80818F708061808387EB91E077
:102A10000E94F813DF91CF911F910C947C1421E058
:102A2000C6CF2A2FC4CF260F371FDBCF0196877062
:102A3000B2CFAF92BF92CF92DF92EF92FF920F93FD
:102A40001F93CF93DF93CDB7DEB761970FB6F8949E
:102A5000DEBF0FBECDBF8C0185E0F801DE011D9603
:102A600001900D928A95E1F7D8014C9111965C91F5
:102A700011971296EC903091B7016091B801809156
:102A8000BA019091BB01009739F06F3F19F421E032
:102A90003F3F19F020E001C021E0B22FB170BB2E02
:102AA00020FD90C1F801C380D480A090B901AA2074
:102AB00009F432C12091BC01C816D90610F1D60123
:102AC000A81BB90BCD01FF24F394883C9105F0F0CD
:102AD000F12C207F09F0E9C07C2DD98AC88A6E2D9F
:102AE00089890E945D1487EB91E00E94F813E7EB5F
:102AF000F1E086E0DF011D928A95E9F70E949D14BE
:102B00001EC0809590958C0D9D1DDDCF822F807FFE
:102B100009F084C0651325C0341323C0FE2CE110D6
:102B200020C02F7020612093BC010E949D1487EB70
:102B300091E00E94F8138091BC01F80185838F2DEC
:102B400061960FB6F894DEBF0FBECDBFDF91CF9177
:102B50001F910F91FF90EF90DF90CF90BF90AF90BB
:102B60000895CD2839F05F3F19F481E04F3F19F007
:102B700080E001C081E080FD24C081E08E25F82F37
:102B8000F170FF2E80FF3FC080918501209186016A
:102B900036E0821318C04D875E878D859E850E9422
:102BA0009019292F22952F70223008F1243030F50A
:102BB0009F7009F1D80115969C91907FE1F4FB2C50
:102BC000BECF80E0DCCF90E0389FF001399FF00D60
:102BD0001124E957FE4F6181561306C060816413CA
:102BE00003C06281E6120FC001968770D2CF9F703A
:102BF00011F0882321F3805E883008F3C8010E9419
:102C0000F813BF2CDCCFFE2CEE2009F498CF809176
:102C1000BC0181608093BC01F12C91CF651314C07D
:102C2000341312C0E11010C08091BC01F8018583FB
:102C3000C8010E94F81386E0F801A7EBB1E001900B
:102C40000D928A95E1F75ACF4D875E878D859E85D7
:102C50000E943D14882309F4BFC0EE2009F4BCC0D3
:102C60002091BC01822F82958F7090E0029774F0C2
:102C70008091B7019091B80198878F831986DB8680
:102C8000CA862C87CE0107960E94F81386E0F801C9
:102C9000A7EBB1E001900D928A95E1F70E94AB1489
:102CA0000E949D14FF24F3944ACF651314C034137B
:102CB00012C0E11010C08091BC01F8018583C801E9
:102CC0000E94F81386E0E7EBF1E0DF011D928A95A0
:102CD000E9F7FA2C34CF4D875E878D859E850E945B
:102CE0003D14882309F478C0EE2009F475C02091C2
:102CF000BC01822F82958F7090E002973CF2809108
:102D0000B7019091B8019A8389831B82DD82CC82BE
:102D10002E83CE010196B8CFC816D90680F0F601F1
:102D2000E81BF90BCF01883C910570F0F12C7C2D4C
:102D3000D98AC88A6E2D89890E945D14D8CE809563
:102D400090958C0D9D1DEFCFFE2CEE2009F444C014
:102D5000651327C0341325C08091BC0180FD18C0C5
:102D6000982F92959F70292F30E02115310581F021
:102D7000D80115968C9315972F30310509F458CF4B
:102D80009F5F9295907F8F70892B15968C9350CF73
:102D900086E0F801A7EBB1E001900D928A95E1F78A
:102DA000CECE4D875E878D859E850E943D14811114
:102DB0006DCF8091BC0181608093BC01C8010E94ED
:102DC000F813BDCEEE2041F04D875E878D859E8540
:102DD0000E943D1481115ACFC8010E94F81362CF9E
:102DE0001F93CF93DF93CDB7DEB72C970FB6F89430
:102DF000DEBF0FBECDBF4F83588769877A878B8729
:102E00009C87CE0107960E941915882349F19F815E
:102E100088852A853B85232B39F08F3F19F481E083
:102E20009F3F19F080E001C081E080FD08C04F8124
:102E3000588569857A858B859C850E946C1416E07F
:102E40008091850190918601891343C02C960FB61D
:102E5000F894DEBF0FBECDBFDF91CF911F910895D3
:102E600086E0FE013796DE01119601900D928A955B
:102E7000E1F79F8188852A853B85232B39F08F3F99
:102E800019F481E09F3F19F080E001C081E080FDEE
:102E9000D6CF2091860130E0C9010196877099272D
:102EA0004091850150E084179507A9F196E0929F23
:102EB000D001939FB00D1124A957BE4FFE0131964A
:102EC00001900D929A95E1F7809386010E947C14FF
:102ED000B6CF819FC001112489579E4F0E941915BA
:102EE000882309F4B3CFE09185011E9FF0011124DE
:102EF000E957FE4F408151816281738184819581C0
:102F00000E946C148091850190E00196877099274A
:102F10008093850195CF0E943914109286011092FA
:102F20008501E7EBF1E086E0DF011D928A95E9F784
:102F30008DCFEF92FF920F931F93CF93DF938C016E
:102F4000892B81F0F12CEE24E394E8012196F8011D
:102F50008491843770F4843008F062C08130B1F01D
:102F60008230B1F1DF91CF911F910F91FF90EF90DF
:102F70000895853709F44FC008F43FC09CE7980FC7
:102F8000903780F78F770E9482114CC00E5F1F4FE1
:102F9000FE01849190E2980F983060F48770FE2DC6
:102FA00001C0FF0F8A95EAF78F2F0E946D1A0E94C9
:102FB000941A02C00E94BA108F2D882309F4C5CF3D
:102FC000EFE9FFE03197F1F700C000008150F5CF45
:102FD0000E5F1F4FFE01849190E2980F983050F4DD
:102FE0008770FE2D01C0FF0F8A95EAF78F2F0E9490
:102FF000731ADDCF0E948211DFCF0E5F1F4FFE01DB
:10300000C491CC23C9F28FE99FE00197F1F700C08A
:103010000000C150F6CF0E5F1F4FFE01F490CCCFE1
:103020000E94BA108E01C8CF08956093C1017093B9
:10303000C2018093C3019093C4010C9425140F9393
:103040001F930091C1011091C2012091C3013091E1
:10305000C401DC01CB01802B912BA22BB32B8093DD
:10306000C1019093C201A093C301B093C4011F9109
:103070000F910C9425140F931F930091C10110918F
:10308000C2012091C3013091C401DC01CB01802336
:103090009123A223B3238093C1019093C201A093F3
:1030A000C301B093C4011F910F910C9425140F9389
:1030B0001F930091C1011091C2012091C301309171
:1030C000C401DC01CB0180279127A227B32780937D
:1030D000C1019093C201A093C301B093C4011F9199
:1030E0000F910C9425141092BD011092BE01109204
:1030F000BF011092C0010C94251441E050E060E043
:1031000070E004C0440F551F661F771F8A95D2F7E1
:103110004093BD015093BE016093BF017093C00105
:103120000C94251441E050E060E070E004C0440FCE
:10313000551F661F771F8A95D2F78091BD01909128
:10314000BE01A091BF01B091C001842B952BA62B8D
:10315000B72B8093BD019093BE01A093BF01B093A4
:10316000C0010C94251441E050E060E070E004C020
:10317000440F551F661F771F8A95D2F740955095CB
:10318000609570958091BD019091BE01A091BF01A5
:10319000B091C00184239523A623B7238093BD015A
:1031A0009093BE01A093BF01B093C0010C9425146D
:1031B00041E050E060E070E004C0440F551F661F1E
:1031C000771F8A95D2F78091BD019091BE01A091A1
:1031D000BF01B091C00184279527A627B727809308
:1031E000BD019093BE01A093BF01B093C0010C94A8
:1031F00025140F931F930091BD011091BE012091E2
:10320000BF013091C001DC01CB01802B912BA22B9F
:10321000B32B8093BD019093BE01A093BF01B093E7
:10322000C0011F910F910C9425140F931F930091CF
:10323000BD011091BE012091BF013091C001DC01A0
:10324000CB0180239123A223B3238093BD019093CC
:10325000BE01A093BF01B093C0011F910F910C94C8
:1032600025140F931F930091BD011091BE01209171
:10327000BF013091C001DC01CB0180279127A2273B
:10328000B3278093BD019093BE01A093BF01B0937B
:10329000C0011F910F910C9425140895BF92CF92F5
:1032A000DF92EF92FF920F931F93CF93DF938C01E6
:1032B000C090BD01D090BE01E090BF01F090C00170
:1032C0008091C1019091C201A091C301B091C4014C
:1032D000C82AD92AEA2AFB2ACFE1D0E0BC2ED7019E
:1032E000C6010C2E04C0B695A795979587950A94AC
:1032F000D2F780FD0EC0219788F7B12C8B2DDF917E
:10330000CF911F910F91FF90EF90DF90CF90BF90E2
:103310000895B8018C2F0E940808019761F3EECF41
:10332000CF93DF93EC010E944E19BE010E94080862
:10333000DF91CF910895CB010E949019089580915B
:10334000C50185958595859508958091C5018770FE
:10335000089598E0899F90011124622B6093C50124
:103360000C9492182091C501809582238093C50109
:10337000982F977069F430E0482F082E000C550BF9
:103380002417350729F08595859585950C94B318F4
:1033900008959091C501977081E009F480E0089547
:1033A00090910C019923D9F090910D019923B9F0D6
:1033B000982F9695969596959F3030F5E0910E0151
:1033C000F0910F01E90FF11D877021E030E001C09D
:1033D000220F8A95EAF78181822B818308952091BB
:1033E0000E0130910F01F90132969FEF40E05191AB
:1033F000851751F09F3F19F4511101C0942F4F5F71
:103400004E30A9F79F3F09F40895290F311D97FD0C
:103410003A95F9018283089590910C019923E9F07E
:1034200090910D019923C9F0982F969596959695B0
:103430009F3010F5E0910E01F0910F01E90FF11DA1
:10344000282F277081E090E001C0880F2A95EAF7C5
:1034500080959181892381830895E0910E01F091F7
:103460000F019F01225F3F4F9281891301C0128299
:103470003196E217F307C1F7089581E090E0E091FB
:103480000E01F0910F01E80FF91F108201968031B3
:103490009105A9F708959091D901892B8093D901BD
:1034A0000895982F90958091D90189238093D9010F
:1034B00008951092D90108959091D801892B809395
:1034C000D8010895982F90958091D80189238093F1
:1034D000D80108951092D80108959091D701892BB1
:1034E0008093D7010895982F90958091D7018923D3
:1034F0008093D70108951092D70108958093C60153
:1035000008951092C601089520910E0130910F0187
:10351000F9013196205F3F4F80E0919191118F5FCB
:10352000E217F307D1F70895E0910E01F0910F0132
:103530008091D9018083E0910E01F0910F0180818B
:103540009091D801892B8083E0910E01F0910F01B9
:1035500080819091D701892B80839091C601992316
:1035600061F0E0910E01F0910F018081892B808341
:103570000E94841A81111092C60180910E019091CF
:103580000F010C94A30F20E0009711F4822F0895EF
:10359000AC0141505109842395232F5FF5CFCF9281
:1035A000DF92EF92FF926C01EE24FF24C114D1044C
:1035B000E104F10409F440C0C701B60120E1C72EBF
:1035C000D82EE92EFF24C114D104E104F10419F02E
:1035D000285FC701B6016B017C0154E0F694E794C3
:1035E000D794C7945A95D1F7C114D104E104F104DA
:1035F00019F02C5FC701B6016B017C0142E0F69423
:10360000E794D794C7944A95D1F7C114D104E10443
:10361000F10419F02E5FC701B6019695879577954D
:103620006795672B682B692B09F02F5F822FFF901E
:10363000EF90DF90CF90089520E0C1CF8091F0010E
:10364000843029F120E488E190E00FB6F894A89541
:10365000809360000FBE2093600080E00E949C0871
:1036600083B7817F846083BF83B7816083BF789491
:10367000889583B78E7F83BF0FB6F894A895809105
:103680006000886180936000109260000FBE089512
:1036900008950C94481B0E94491B0E940D040E942F
:1036A000481B0E94030591E0811101C090E0892F21
:1036B00008950E9439140E94970F0C949C0882E090
:1036C00084BD93E095BD9AEF97BD80936E000895F9
:1036D0002FB7F8948091DB019091DC01A091DD017E
:1036E000B091DE012FBF0895CF92DF92EF92FF924B
:1036F0000F931F932FB7F8944091DB015091DC0199
:103700006091DD017091DE012FBF6A017B01EE2423
:10371000FF248C0120E030E0C016D106E206F3065B
:1037200050F0481B590BCA011F910F91FF90EF9069
:10373000DF90CF90089541505109F3CF1F920F921F
:103740000FB60F9211248F939F93AF93BF938091E5
:10375000DB019091DC01A091DD01B091DE010196C9
:10376000A11DB11D8093DB019093DC01A093DD01CD
:10377000B093DE01BF91AF919F918F910F900FBEDB
:103780000F901F9018950E94940CF8942FEF87EAE1
:1037900091E6215080409040E1F700C0000087E0B2
:1037A00090EBDC018093FA019093FB01A093FC0164
:1037B000B093FD019CE088E10FB6F894A895809342
:1037C00060000FBE90936000FFCFEF92FF920F93C7
:1037D0001F93CF93DF93D82FCDE08C2F0E94FC0452
:1037E00005E010E0E82EF12CC701002E02C09595EF
:1037F00087950A94E2F780FF0FC0602F7C2F80E04E
:103800000E94C6058D1308C081E0DF91CF911F9102
:103810000F91FF90EF9008950150110928F7C150C2
:10382000E0F680E0F2CFCF93C82F8CE20E94E51B38
:10383000882321F08C2FCF910C94E51B80E0CF9151
:103840000895CF930E94691D811102C00E944F1DEF
:10385000C5E6C15009F0EDC089E20E94131C811138
:103860001CC18AE20E94131C81110E944F1D85E039
:103870000E94131C81110E94C31B0E94741D80931F
:10388000DA0187E00E94131C882389F08BE10E94F3
:10389000131C882309F4D6C08091DA0181FB992793
:1038A00090F921E0922790FB81F98093DA018091D1
:1038B000DA010E94781D0E94861D8093F90180EE36
:1038C0000E94131C882341F08091F901982F909554
:1038D00090FB80F98093F90189E30E94131C8823EF
:1038E00059F08091F90181FB992790F921E0922705
:1038F00090FB81F98093F90182EE0E94131C8823CA
:1039000059F08091F90182FB992790F921E09227E3
:1039100090FB82F98093F90186EE0E94131C8823A4
:1039200059F08091F90183FB992790F921E09227C2
:1039300090FB83F98093F90183EE0E94131C882386
:1039400059F08091F90184FB992790F921E09227A1
:1039500090FB84F98093F90185E30E94131C88236E
:1039600059F08091F90185FB992790F921E0922780
:1039700090FB85F98093F90181E30E94131C882351
:1039800059F08091F90186FB992790F921E092275F
:1039900090FB86F98093F90181E10E94131C882332
:1039A00059F08091F90187FB992790F921E092273E
:1039B00090FB87F98093F9018091F9010E948A1D9B
:1039C0008091F90187FB882780F980930D0187E2B8
:1039D0000E94131CC82F8EE10E94131C8111C2602B
:1039E0008FE10E94131C8111C46080E20E94131CAD
:1039F0008111C86081E20E94131C8111C06182E2C2
:103A00000E94131C8111C06283E20E94131C811169
:103A1000C06484E20E94131C8823C9F1C0688C2F03
:103A20000E94811D6C2F70E080E090E0CF910C949B
:103A300015180E940D048FE39CE90197F1F700C06F
:103A4000000007CF8EE00E94131C882351F0809164
:103A5000DA0182FB992790F921E0922790FB82F905
:103A600024CF80E10E94131C9091DA01882351F049
:103A700093FB882780F921E0822780FB93F99093BC
:103A8000DA0115CF892F809580FB90F9F8CFC1110D
:103A9000C6CF0E947D1D682FC6CFCF9108956DEED1
:103AA0007EEF80E090E00E94B22360E082E090E050
:103AB0000E94A02360E083E090E00E94A02360E0E9
:103AC00084E090E00E94A02360E085E090E00C9408
:103AD000A02380E090E00E949A2321E08D3E9E4F3B
:103AE00009F020E0822F089582E090E00C94922368
:103AF000682F82E090E00C94A02383E090E00C9487
:103B00009223682F83E090E00C94A02384E090E05F
:103B10000C949223682F84E090E00C94A023809171
:103B2000E10180FF12C06091130185E0689FB00140
:103B30001124759567957595679560387105A8F599
:103B40006115710581F581E0089581FF09C06091DB
:103B5000130185E0689FB001112475956795EDCF3D
:103B600082FF07C06091130185E0689FB0011124B6
:103B7000E4CF9091E2019923A1F060911201961790
:103B800088F72091130185E0289F90011124929FCE
:103B9000A001939F500D112470E0CA010E9464237C
:103BA000CCCF65E070E0862F08958FE7089580916F
:103BB000E10180FF0CC06091110170E0759567957F
:103BC000759567956115710539F581E0089581FF57
:103BD00006C06091110170E075956795F3CF82FF83
:103BE00008C06091110170E06038710558F38FE7EB
:103BF00008958091E201882369F060911001861791
:103C000080F790911101899FC001112470E00E94FA
:103C10006423EACF61E070E0862F0895803F31F49D
:103C20000E948F1D81958093E5010895813F19F4CD
:103C30000E948F1DF8CF823F31F40E948F1D819525
:103C40008093E4010895833F19F40E948F1DF8CFFB
:103C5000893F29F40E94D71D8093E60108958A3F89
:103C600021F40E94D71D8195F7CF8B3F31F40E943C
:103C7000D71D81958093E70108958C3F19F40E9428
:103C8000D71DF8CF843F31F48091E30181608093A8
:103C9000E3010895853F21F48091E3018260F7CF2D
:103CA000863F21F48091E3018460F1CF873F21F4C6
:103CB0008091E3018860EBCF883F21F48091E3019C
:103CC0008061E5CF8D3F31F48091E1018160809387
:103CD000E10108958E3F21F48091E1018260F7CFE8
:103CE0008F3FB9F78091E1018460F1CF803FC1F44B
:103CF0008091E50187FD1092E5018091E401811139
:103D00000EC08091E50181110AC08091E601811108
:103D100006C08091E701811102C01092E20108956E
:103D2000813F29F48091E50118162CF3E6CF90919C
:103D3000E401823F29F497FFE0CF1092E401DDCF48
:103D4000833F19F41916CCF3D8CF893F39F4809109
:103D5000E601181694F61092E601CFCF8A3F29F4B7
:103D60008091E60187FFC9CFF6CF8B3F39F4809170
:103D7000E70187FFC2CF1092E701BFCF8C3F29F444
:103D80008091E7011816BCF3B8CF843F31F48091DD
:103D9000E3018E7F8093E301B0CF853F21F48091D2
:103DA000E3018D7FF7CF863F21F48091E3018B7F84
:103DB000F1CF873F21F48091E301877FEBCF883FEC
:103DC00021F48091E3018F7EE5CF8D3F31F4809126
:103DD000E1018E7F8093E10190CF8E3F21F48091AD
:103DE000E1018D7FF7CF8F3F09F087CF8091E1010F
:103DF0008B7FF0CF83EE91E00E94AE0F0E94681B94
:103E00009093E0018093DF0108951F93CF93DF9398
:103E10008091DF019091E0010E94741BAC019091B0
:103E2000E2019923D1F02091140130E042175307A9
:103E300080F08091E401C091E501D091E6011091FC
:103E4000E701811111C0C1117FC0D1117DC01111D5
:103E50007BC0DF91CF911F910895209115018AE0D9
:103E6000289F90011124E2CF9F3F19F09F5F90930C
:103E7000E201181624F40E948F1D8093E4018091C2
:103E8000E40187FF05C00E948F1D81958093E401A6
:103E90001C1624F40E948F1D8093E5018091E5019A
:103EA00087FF05C00E948F1D81958093E501609179
:103EB000E401662331F1C091E501CC2311F1062E16
:103EC000000C770B880B990B0E946B2223E333E3E2
:103ED00043E35FE30E94CF220E9433226093E40118
:103EE0006C2FCC0F770B880B990B0E946B2223E36E
:103EF00033E343E35FE30E94CF220E9433226093C7
:103F0000E5011D1624F40E94D71D8093E6018091DF
:103F1000E60187FF05C00E94D71D81958093E601C9
:103F2000111624F40E94D71D8093E7018091E701C8
:103F300087FF05C00E94D71D81958093E701DF911F
:103F4000CF911F910C94FA1E9F3F09F08FCFA0CF05
:103F5000E3EEF1E085E0DF011D928A95E9F710922A
:103F6000E2011092E1010895833081F128F481305B
:103F700059F08230D1F00895853009F449C0B8F184
:103F8000863009F456C0089580911501262F30E03F
:103F9000280F311D2F3F310524F4680F6093150160
:103FA00008958FEF80931501089580911401262FB5
:103FB00030E0280F311D2F3F310524F4680F609346
:103FC000140108958FEF80931401089580911301D7
:103FD000262F30E0280F311D2F3F310524F4680FC4
:103FE0006093130108958FEF8093130108958091DA
:103FF0001201262F30E0280F311D2F3F310524F408
:10400000680F6093120108958FEF80931201089555
:1040100080911101262F30E0280F311D2F3F3105EF
:1040200024F4680F6093110108958FEF80931101BC
:10403000089520911001862F90E0820F911D8F3FEF
:10404000910524F4620F6093100108958FEF80931F
:1040500010010895833011F128F4813049F0823045
:1040600091F00895853081F120F18630C1F10895F5
:1040700080911501681720F4861B8093150108951F
:1040800010921501089580911401681720F4861B81
:1040900080931401089510921401089580911301E2
:1040A000681720F4861B8093130108951092130162
:1040B000089580911201681720F4861B80931201E5
:1040C000089510921201089580911101681720F44B
:1040D000861B80931101089510921101089580911B
:1040E0001001681720F4861B809310010895109228
:1040F000100108950F931F9341E050E060E070E0DD
:104100008A019B0104C0000F111F221F331F8A95D3
:10411000D2F7C901B8010E9415181F910F910C9494
:1041200039148D3109F460C0C8F58E3009F47DC0B2
:1041300078F4873009F469C028F4863009F45BC04C
:1041400080E00895883011F08B30D1F781E0089538
:104150008631E1F370F4803109F475C0813181F763
:104160000E94391480910D0191E0892780930D01FF
:10417000EDCF893159F38B3119F78091DA0181FB49
:10418000992790F921E0922790FB81F98093DA0139
:1041900081FFDCCF8091DA01816041C0853339F045
:1041A00040F4873221F008F460C0893249F680E09B
:1041B00059C0833430F48A3308F053C0883331F265
:1041C000BFCF8334A1F3883409F0BACF0E943914E9
:1041D0002FEF83ED90E3215080409040E1F700C045
:1041E00000000E94C31BB2CF0E94ED210E94970FD6
:1041F0000E949C08ABCF8091DA01817F8E7F8093F3
:10420000DA0181E08093E90108958091DA01982F25
:10421000909590FB80F980FF05C086608860809350
:10422000DA0194CF897F877FFACF8091DA0182FB10
:10423000992790F921E0922790FB82F98093DA0187
:1042400082FDA8CF83CF8091DA0183FB992790F973
:1042500021E0922790FB83F98093DA0183FD9ACFC6
:1042600075CF89530E947A2071CF8D51FBCF80E0AA
:1042700008950C943721CF93C82F8091E9018130A4
:10428000E1F038F0823009F43FC01092E90180E09B
:1042900012C0E0910E01F0910F018081813111F087
:1042A0008232A9F78C2F0E94392181111DC08C2FD9
:1042B0000E9491208170CF910895E0910E01F091BC
:1042C0000F018081813171F3823261F38C2F0E9462
:1042D0003721811110C0C43181F048F4CB3059F03E
:1042E000C03171F080E0E6CF81E090E0E3CFC932E9
:1042F00021F0C833B9F781E0DDCF1092E901F2CFA8
:1043000082E08093E901F7CFC93221F190F4C43102
:1043100009F120F4C73089F181E0CDCFCE51C6300C
:10432000D8F7EC2FF0E0E65DFE4F80818093E80146
:10433000F3CFCE3401F120F4CB3471F76AE005C03D
:10434000C13599F0C23541F761E08091E8010E94E2
:10435000B41FE2CF8091E801882319F01092E801A0
:10436000DBCF81E08093E901A6CF61E08091E80195
:104370000E942A20D1CF6AE0F9CF8AE0809315010C
:1043800094E19093140193E09093130180931201B0
:1043900088E08093110188E280931001BDCFE1E8AD
:1043A000F0E08081886080838081816080838FB726
:1043B000F89493E09093890090ED909388008FBFDC
:1043C0000895EFE6F0E08081826080830895EFE653
:1043D000F0E080818D7F80830895EFE6F0E08081BA
:1043E00092E08927808308951F920F920FB60F9253
:1043F00011242F933F934F935F936F937F938F93EA
:104400009F93AF93BF93EF93FF938091EA019091B5
:10441000EB0101969093EB018093EA01811103C0B7
:1044200082E00E949C08E091EB01E695E695F0E0C1
:10443000E95AFB4FE4918091EA018E1303C080E0BA
:104440000E949C08FF91EF91BF91AF919F918F9136
:104450007F916F915F914F913F912F910F900FBE80
:104460000F901F9018950E943A226894B1110C94F5
:10447000C92208950E94AE2288F09F5798F0B92F64
:104480009927B751B0F0E1F0660F771F881F991F89
:104490001AF0BA95C9F714C0B13091F00E94C82241
:1044A000B1E008950C94C822672F782F8827B85F51
:1044B00039F0B93FCCF3869577956795B395D9F7E1
:1044C0003EF490958095709561957F4F8F4F9F4FEB
:1044D0000895E89409C097FB3EF4909580957095F7
:1044E00061957F4F8F4F9F4F9923A9F0F92F96E940
:1044F000BB279395F695879577956795B795F111B5
:10450000F8CFFAF4BB0F11F460FF1BC06F5F7F4F51
:104510008F4F9F4F16C0882311F096E911C0772363
:1045200021F09EE8872F762F05C0662371F096E86C
:10453000862F70E060E02AF09A95660F771F881F3B
:10454000DAF7880F9695879597F9089557FD905853
:10455000440F551F59F05F3F71F04795880F97FB47
:10456000991F61F09F3F79F0879508951216130601
:104570001406551FF2CF4695F1DF08C01616170630
:104580001806991FF1CF8695710561050894089565
:10459000E894BB2766277727CB0197F908950E94F7
:1045A000E2220C9453230E94452338F00E944C23AE
:1045B00020F0952311F00C943C230C9442231124F9
:1045C0000C94C9220E94A62270F3959FC1F3950F07
:1045D00050E0551F629FF001729FBB27F00DB11D87
:1045E000639FAA27F00DB11DAA1F649F6627B00D17
:1045F000A11D661F829F2227B00DA11D621F739F00
:10460000B00DA11D621F839FA00D611D221F749F0D
:104610003327A00D611D231F849F600D211D822F54
:10462000762F6A2F11249F5750409AF0F1F088237B
:104630004AF0EE0FFF1FBB1F661F771F881F9150A8
:104640005040A9F79E3F510580F00C943C230C94F8
:10465000C9225F3FE4F3983ED4F38695779567953A
:10466000B795F795E7959F5FC1F7FE2B880F911DD2
:104670009695879597F9089597F99F6780E870E078
:1046800060E008959FEF80EC089500240A941616C8
:10469000170618060906089500240A941216130630
:1046A000140605060895092E0394000C11F48823BE
:1046B00052F0BB0F40F4BF2B11F460FF04C06F5FDA
:1046C0007F4F8F4F9F4F089597FB072E16F400944E
:1046D00007D077FD09D00E947E2307FC05D03EF469
:1046E000909581959F4F0895709561957F4F08959E
:1046F000EE0FFF1F0590F491E02D0994AA1BBB1B40
:1047000051E107C0AA1FBB1FA617B70710F0A61BD1
:10471000B70B881F991F5A95A9F780959095BC01F2
:10472000CD010895F999FECF92BD81BDF89A9927E0
:1047300080B50895A8E1B0E042E050E00C94BA23BF
:10474000262FF999FECF92BD81BDF89A019700B44A
:10475000021639F01FBA20BD0FB6F894FA9AF99AEA
:104760000FBE08950196272F0E94A1230C94A02329
:10477000DC01CB01FC01F999FECF06C0F2BDE1BD21
:10478000F89A319600B40D9241505040B8F7089510
:04479000F894FFCFCB
:1047940020029E082E090909D508A1080101C701B4
:1047A40028080A03140A404D36391704CA0394032F
:1047B4005B03EE0207032003390301020304050629
:0447C40007080900D9
:00000001FF
